{
	"Q 2.sol": {
		"RockPaperScissor": {
			"abi": [
				{
					"inputs": [
						{
							"internalType": "uint256",
							"name": "playingTime",
							"type": "uint256"
						},
						{
							"internalType": "uint256",
							"name": "revealTime",
							"type": "uint256"
						},
						{
							"internalType": "address payable",
							"name": "beneficiaryAddress",
							"type": "address"
						},
						{
							"internalType": "address payable",
							"name": "p1",
							"type": "address"
						},
						{
							"internalType": "address payable",
							"name": "p2",
							"type": "address"
						}
					],
					"stateMutability": "payable",
					"type": "constructor"
				},
				{
					"inputs": [],
					"name": "GameEndAlreadyCalled",
					"type": "error"
				},
				{
					"inputs": [
						{
							"internalType": "uint256",
							"name": "time",
							"type": "uint256"
						}
					],
					"name": "TooEarly",
					"type": "error"
				},
				{
					"inputs": [
						{
							"internalType": "uint256",
							"name": "time",
							"type": "uint256"
						}
					],
					"name": "TooLate",
					"type": "error"
				},
				{
					"anonymous": false,
					"inputs": [
						{
							"indexed": false,
							"internalType": "string",
							"name": "result",
							"type": "string"
						}
					],
					"name": "GameEnded",
					"type": "event"
				},
				{
					"inputs": [],
					"name": "beneficiary",
					"outputs": [
						{
							"internalType": "address payable",
							"name": "",
							"type": "address"
						}
					],
					"stateMutability": "view",
					"type": "function"
				},
				{
					"inputs": [],
					"name": "ended",
					"outputs": [
						{
							"internalType": "bool",
							"name": "",
							"type": "bool"
						}
					],
					"stateMutability": "view",
					"type": "function"
				},
				{
					"inputs": [],
					"name": "gameEnd",
					"outputs": [],
					"stateMutability": "nonpayable",
					"type": "function"
				},
				{
					"inputs": [],
					"name": "move1",
					"outputs": [
						{
							"internalType": "uint256",
							"name": "",
							"type": "uint256"
						}
					],
					"stateMutability": "view",
					"type": "function"
				},
				{
					"inputs": [],
					"name": "move2",
					"outputs": [
						{
							"internalType": "uint256",
							"name": "",
							"type": "uint256"
						}
					],
					"stateMutability": "view",
					"type": "function"
				},
				{
					"inputs": [
						{
							"internalType": "bytes32",
							"name": "blindedMove",
							"type": "bytes32"
						}
					],
					"name": "play",
					"outputs": [],
					"stateMutability": "payable",
					"type": "function"
				},
				{
					"inputs": [],
					"name": "player1",
					"outputs": [
						{
							"internalType": "address payable",
							"name": "",
							"type": "address"
						}
					],
					"stateMutability": "view",
					"type": "function"
				},
				{
					"inputs": [],
					"name": "player2",
					"outputs": [
						{
							"internalType": "address payable",
							"name": "",
							"type": "address"
						}
					],
					"stateMutability": "view",
					"type": "function"
				},
				{
					"inputs": [],
					"name": "playingEnd",
					"outputs": [
						{
							"internalType": "uint256",
							"name": "",
							"type": "uint256"
						}
					],
					"stateMutability": "view",
					"type": "function"
				},
				{
					"inputs": [
						{
							"internalType": "address",
							"name": "",
							"type": "address"
						}
					],
					"name": "plays",
					"outputs": [
						{
							"internalType": "bytes32",
							"name": "blindedMove",
							"type": "bytes32"
						},
						{
							"internalType": "uint256",
							"name": "deposit",
							"type": "uint256"
						}
					],
					"stateMutability": "view",
					"type": "function"
				},
				{
					"inputs": [
						{
							"internalType": "uint256",
							"name": "value",
							"type": "uint256"
						},
						{
							"internalType": "bytes32",
							"name": "secret",
							"type": "bytes32"
						}
					],
					"name": "reveal",
					"outputs": [],
					"stateMutability": "nonpayable",
					"type": "function"
				},
				{
					"inputs": [],
					"name": "revealEnd",
					"outputs": [
						{
							"internalType": "uint256",
							"name": "",
							"type": "uint256"
						}
					],
					"stateMutability": "view",
					"type": "function"
				},
				{
					"inputs": [],
					"name": "reward",
					"outputs": [
						{
							"internalType": "uint256",
							"name": "",
							"type": "uint256"
						}
					],
					"stateMutability": "view",
					"type": "function"
				}
			],
			"devdoc": {
				"kind": "dev",
				"methods": {},
				"version": 1
			},
			"evm": {
				"assembly": "    /* \"Q 2.sol\":61:4069  contract RockPaperScissor {... */\n  mstore(0x40, 0x80)\n    /* \"Q 2.sol\":918:1319  constructor(... */\n  mload(0x40)\n  sub(codesize, bytecodeSize)\n  dup1\n  bytecodeSize\n  dup4\n  codecopy\n  dup2\n  dup2\n  add\n  0x40\n  mstore\n  dup2\n  add\n  swap1\n  tag_1\n  swap2\n  swap1\n  tag_2\n  jump\t// in\ntag_1:\n    /* \"Q 2.sol\":1125:1143  beneficiaryAddress */\n  dup3\n    /* \"Q 2.sol\":1111:1122  beneficiary */\n  0x00\n  dup1\n    /* \"Q 2.sol\":1111:1143  beneficiary = beneficiaryAddress */\n  0x0100\n  exp\n  dup2\n  sload\n  dup2\n  0xffffffffffffffffffffffffffffffffffffffff\n  mul\n  not\n  and\n  swap1\n  dup4\n  0xffffffffffffffffffffffffffffffffffffffff\n  and\n  mul\n  or\n  swap1\n  sstore\n  pop\n    /* \"Q 2.sol\":1184:1195  playingTime */\n  dup5\n    /* \"Q 2.sol\":1166:1181  block.timestamp */\n  timestamp\n    /* \"Q 2.sol\":1166:1195  block.timestamp + playingTime */\n  tag_5\n  swap2\n  swap1\n  tag_6\n  jump\t// in\ntag_5:\n    /* \"Q 2.sol\":1153:1163  playingEnd */\n  0x03\n    /* \"Q 2.sol\":1153:1195  playingEnd = block.timestamp + playingTime */\n  dup2\n  swap1\n  sstore\n  pop\n    /* \"Q 2.sol\":1230:1240  revealTime */\n  dup4\n    /* \"Q 2.sol\":1217:1227  playingEnd */\n  sload(0x03)\n    /* \"Q 2.sol\":1217:1240  playingEnd + revealTime */\n  tag_7\n  swap2\n  swap1\n  tag_6\n  jump\t// in\ntag_7:\n    /* \"Q 2.sol\":1205:1214  revealEnd */\n  0x04\n    /* \"Q 2.sol\":1205:1240  revealEnd = playingEnd + revealTime */\n  dup2\n  swap1\n  sstore\n  pop\n    /* \"Q 2.sol\":1259:1268  msg.value */\n  callvalue\n    /* \"Q 2.sol\":1250:1256  reward */\n  0x05\n    /* \"Q 2.sol\":1250:1268  reward = msg.value */\n  dup2\n  swap1\n  sstore\n  pop\n    /* \"Q 2.sol\":1288:1290  p1 */\n  dup2\n    /* \"Q 2.sol\":1278:1285  player1 */\n  0x01\n  0x00\n    /* \"Q 2.sol\":1278:1290  player1 = p1 */\n  0x0100\n  exp\n  dup2\n  sload\n  dup2\n  0xffffffffffffffffffffffffffffffffffffffff\n  mul\n  not\n  and\n  swap1\n  dup4\n  0xffffffffffffffffffffffffffffffffffffffff\n  and\n  mul\n  or\n  swap1\n  sstore\n  pop\n    /* \"Q 2.sol\":1310:1312  p2 */\n  dup1\n    /* \"Q 2.sol\":1300:1307  player2 */\n  0x02\n  0x00\n    /* \"Q 2.sol\":1300:1312  player2 = p2 */\n  0x0100\n  exp\n  dup2\n  sload\n  dup2\n  0xffffffffffffffffffffffffffffffffffffffff\n  mul\n  not\n  and\n  swap1\n  dup4\n  0xffffffffffffffffffffffffffffffffffffffff\n  and\n  mul\n  or\n  swap1\n  sstore\n  pop\n    /* \"Q 2.sol\":918:1319  constructor(... */\n  pop\n  pop\n  pop\n  pop\n  pop\n    /* \"Q 2.sol\":61:4069  contract RockPaperScissor {... */\n  jump(tag_8)\n    /* \"#utility.yul\":88:205   */\ntag_10:\n    /* \"#utility.yul\":197:198   */\n  0x00\n    /* \"#utility.yul\":194:195   */\n  dup1\n    /* \"#utility.yul\":187:199   */\n  revert\n    /* \"#utility.yul\":334:411   */\ntag_12:\n    /* \"#utility.yul\":371:378   */\n  0x00\n    /* \"#utility.yul\":400:405   */\n  dup2\n    /* \"#utility.yul\":389:405   */\n  swap1\n  pop\n    /* \"#utility.yul\":334:411   */\n  swap2\n  swap1\n  pop\n  jump\t// out\n    /* \"#utility.yul\":417:539   */\ntag_13:\n    /* \"#utility.yul\":490:514   */\n  tag_26\n    /* \"#utility.yul\":508:513   */\n  dup2\n    /* \"#utility.yul\":490:514   */\n  tag_12\n  jump\t// in\ntag_26:\n    /* \"#utility.yul\":483:488   */\n  dup2\n    /* \"#utility.yul\":480:515   */\n  eq\n    /* \"#utility.yul\":470:533   */\n  tag_27\n  jumpi\n    /* \"#utility.yul\":529:530   */\n  0x00\n    /* \"#utility.yul\":526:527   */\n  dup1\n    /* \"#utility.yul\":519:531   */\n  revert\n    /* \"#utility.yul\":470:533   */\ntag_27:\n    /* \"#utility.yul\":417:539   */\n  pop\n  jump\t// out\n    /* \"#utility.yul\":545:688   */\ntag_14:\n    /* \"#utility.yul\":602:607   */\n  0x00\n    /* \"#utility.yul\":633:639   */\n  dup2\n    /* \"#utility.yul\":627:640   */\n  mload\n    /* \"#utility.yul\":618:640   */\n  swap1\n  pop\n    /* \"#utility.yul\":649:682   */\n  tag_29\n    /* \"#utility.yul\":676:681   */\n  dup2\n    /* \"#utility.yul\":649:682   */\n  tag_13\n  jump\t// in\ntag_29:\n    /* \"#utility.yul\":545:688   */\n  swap3\n  swap2\n  pop\n  pop\n  jump\t// out\n    /* \"#utility.yul\":694:820   */\ntag_15:\n    /* \"#utility.yul\":731:738   */\n  0x00\n    /* \"#utility.yul\":771:813   */\n  0xffffffffffffffffffffffffffffffffffffffff\n    /* \"#utility.yul\":764:769   */\n  dup3\n    /* \"#utility.yul\":760:814   */\n  and\n    /* \"#utility.yul\":749:814   */\n  swap1\n  pop\n    /* \"#utility.yul\":694:820   */\n  swap2\n  swap1\n  pop\n  jump\t// out\n    /* \"#utility.yul\":826:930   */\ntag_16:\n    /* \"#utility.yul\":871:878   */\n  0x00\n    /* \"#utility.yul\":900:924   */\n  tag_32\n    /* \"#utility.yul\":918:923   */\n  dup3\n    /* \"#utility.yul\":900:924   */\n  tag_15\n  jump\t// in\ntag_32:\n    /* \"#utility.yul\":889:924   */\n  swap1\n  pop\n    /* \"#utility.yul\":826:930   */\n  swap2\n  swap1\n  pop\n  jump\t// out\n    /* \"#utility.yul\":936:1074   */\ntag_17:\n    /* \"#utility.yul\":1017:1049   */\n  tag_34\n    /* \"#utility.yul\":1043:1048   */\n  dup2\n    /* \"#utility.yul\":1017:1049   */\n  tag_16\n  jump\t// in\ntag_34:\n    /* \"#utility.yul\":1010:1015   */\n  dup2\n    /* \"#utility.yul\":1007:1050   */\n  eq\n    /* \"#utility.yul\":997:1068   */\n  tag_35\n  jumpi\n    /* \"#utility.yul\":1064:1065   */\n  0x00\n    /* \"#utility.yul\":1061:1062   */\n  dup1\n    /* \"#utility.yul\":1054:1066   */\n  revert\n    /* \"#utility.yul\":997:1068   */\ntag_35:\n    /* \"#utility.yul\":936:1074   */\n  pop\n  jump\t// out\n    /* \"#utility.yul\":1080:1239   */\ntag_18:\n    /* \"#utility.yul\":1145:1150   */\n  0x00\n    /* \"#utility.yul\":1176:1182   */\n  dup2\n    /* \"#utility.yul\":1170:1183   */\n  mload\n    /* \"#utility.yul\":1161:1183   */\n  swap1\n  pop\n    /* \"#utility.yul\":1192:1233   */\n  tag_37\n    /* \"#utility.yul\":1227:1232   */\n  dup2\n    /* \"#utility.yul\":1192:1233   */\n  tag_17\n  jump\t// in\ntag_37:\n    /* \"#utility.yul\":1080:1239   */\n  swap3\n  swap2\n  pop\n  pop\n  jump\t// out\n    /* \"#utility.yul\":1245:2270   */\ntag_2:\n    /* \"#utility.yul\":1375:1381   */\n  0x00\n    /* \"#utility.yul\":1383:1389   */\n  dup1\n    /* \"#utility.yul\":1391:1397   */\n  0x00\n    /* \"#utility.yul\":1399:1405   */\n  dup1\n    /* \"#utility.yul\":1407:1413   */\n  0x00\n    /* \"#utility.yul\":1456:1459   */\n  0xa0\n    /* \"#utility.yul\":1444:1453   */\n  dup7\n    /* \"#utility.yul\":1435:1442   */\n  dup9\n    /* \"#utility.yul\":1431:1454   */\n  sub\n    /* \"#utility.yul\":1427:1460   */\n  slt\n    /* \"#utility.yul\":1424:1544   */\n  iszero\n  tag_39\n  jumpi\n    /* \"#utility.yul\":1463:1542   */\n  tag_40\n  tag_10\n  jump\t// in\ntag_40:\n    /* \"#utility.yul\":1424:1544   */\ntag_39:\n    /* \"#utility.yul\":1583:1584   */\n  0x00\n    /* \"#utility.yul\":1608:1672   */\n  tag_41\n    /* \"#utility.yul\":1664:1671   */\n  dup9\n    /* \"#utility.yul\":1655:1661   */\n  dup3\n    /* \"#utility.yul\":1644:1653   */\n  dup10\n    /* \"#utility.yul\":1640:1662   */\n  add\n    /* \"#utility.yul\":1608:1672   */\n  tag_14\n  jump\t// in\ntag_41:\n    /* \"#utility.yul\":1598:1672   */\n  swap6\n  pop\n    /* \"#utility.yul\":1554:1682   */\n  pop\n    /* \"#utility.yul\":1721:1723   */\n  0x20\n    /* \"#utility.yul\":1747:1811   */\n  tag_42\n    /* \"#utility.yul\":1803:1810   */\n  dup9\n    /* \"#utility.yul\":1794:1800   */\n  dup3\n    /* \"#utility.yul\":1783:1792   */\n  dup10\n    /* \"#utility.yul\":1779:1801   */\n  add\n    /* \"#utility.yul\":1747:1811   */\n  tag_14\n  jump\t// in\ntag_42:\n    /* \"#utility.yul\":1737:1811   */\n  swap5\n  pop\n    /* \"#utility.yul\":1692:1821   */\n  pop\n    /* \"#utility.yul\":1860:1862   */\n  0x40\n    /* \"#utility.yul\":1886:1958   */\n  tag_43\n    /* \"#utility.yul\":1950:1957   */\n  dup9\n    /* \"#utility.yul\":1941:1947   */\n  dup3\n    /* \"#utility.yul\":1930:1939   */\n  dup10\n    /* \"#utility.yul\":1926:1948   */\n  add\n    /* \"#utility.yul\":1886:1958   */\n  tag_18\n  jump\t// in\ntag_43:\n    /* \"#utility.yul\":1876:1958   */\n  swap4\n  pop\n    /* \"#utility.yul\":1831:1968   */\n  pop\n    /* \"#utility.yul\":2007:2009   */\n  0x60\n    /* \"#utility.yul\":2033:2105   */\n  tag_44\n    /* \"#utility.yul\":2097:2104   */\n  dup9\n    /* \"#utility.yul\":2088:2094   */\n  dup3\n    /* \"#utility.yul\":2077:2086   */\n  dup10\n    /* \"#utility.yul\":2073:2095   */\n  add\n    /* \"#utility.yul\":2033:2105   */\n  tag_18\n  jump\t// in\ntag_44:\n    /* \"#utility.yul\":2023:2105   */\n  swap3\n  pop\n    /* \"#utility.yul\":1978:2115   */\n  pop\n    /* \"#utility.yul\":2154:2157   */\n  0x80\n    /* \"#utility.yul\":2181:2253   */\n  tag_45\n    /* \"#utility.yul\":2245:2252   */\n  dup9\n    /* \"#utility.yul\":2236:2242   */\n  dup3\n    /* \"#utility.yul\":2225:2234   */\n  dup10\n    /* \"#utility.yul\":2221:2243   */\n  add\n    /* \"#utility.yul\":2181:2253   */\n  tag_18\n  jump\t// in\ntag_45:\n    /* \"#utility.yul\":2171:2253   */\n  swap2\n  pop\n    /* \"#utility.yul\":2125:2263   */\n  pop\n    /* \"#utility.yul\":1245:2270   */\n  swap3\n  swap6\n  pop\n  swap3\n  swap6\n  swap1\n  swap4\n  pop\n  jump\t// out\n    /* \"#utility.yul\":2276:2456   */\ntag_19:\n    /* \"#utility.yul\":2324:2401   */\n  0x4e487b7100000000000000000000000000000000000000000000000000000000\n    /* \"#utility.yul\":2321:2322   */\n  0x00\n    /* \"#utility.yul\":2314:2402   */\n  mstore\n    /* \"#utility.yul\":2421:2425   */\n  0x11\n    /* \"#utility.yul\":2418:2419   */\n  0x04\n    /* \"#utility.yul\":2411:2426   */\n  mstore\n    /* \"#utility.yul\":2445:2449   */\n  0x24\n    /* \"#utility.yul\":2442:2443   */\n  0x00\n    /* \"#utility.yul\":2435:2450   */\n  revert\n    /* \"#utility.yul\":2462:2653   */\ntag_6:\n    /* \"#utility.yul\":2502:2505   */\n  0x00\n    /* \"#utility.yul\":2521:2541   */\n  tag_48\n    /* \"#utility.yul\":2539:2540   */\n  dup3\n    /* \"#utility.yul\":2521:2541   */\n  tag_12\n  jump\t// in\ntag_48:\n    /* \"#utility.yul\":2516:2541   */\n  swap2\n  pop\n    /* \"#utility.yul\":2555:2575   */\n  tag_49\n    /* \"#utility.yul\":2573:2574   */\n  dup4\n    /* \"#utility.yul\":2555:2575   */\n  tag_12\n  jump\t// in\ntag_49:\n    /* \"#utility.yul\":2550:2575   */\n  swap3\n  pop\n    /* \"#utility.yul\":2598:2599   */\n  dup3\n    /* \"#utility.yul\":2595:2596   */\n  dup3\n    /* \"#utility.yul\":2591:2600   */\n  add\n    /* \"#utility.yul\":2584:2600   */\n  swap1\n  pop\n    /* \"#utility.yul\":2619:2622   */\n  dup1\n    /* \"#utility.yul\":2616:2617   */\n  dup3\n    /* \"#utility.yul\":2613:2623   */\n  gt\n    /* \"#utility.yul\":2610:2646   */\n  iszero\n  tag_50\n  jumpi\n    /* \"#utility.yul\":2626:2644   */\n  tag_51\n  tag_19\n  jump\t// in\ntag_51:\n    /* \"#utility.yul\":2610:2646   */\ntag_50:\n    /* \"#utility.yul\":2462:2653   */\n  swap3\n  swap2\n  pop\n  pop\n  jump\t// out\n    /* \"Q 2.sol\":61:4069  contract RockPaperScissor {... */\ntag_8:\n  dataSize(sub_0)\n  dup1\n  dataOffset(sub_0)\n  0x00\n  codecopy\n  0x00\n  return\nstop\n\nsub_0: assembly {\n        /* \"Q 2.sol\":61:4069  contract RockPaperScissor {... */\n      mstore(0x40, 0x80)\n      jumpi(tag_1, lt(calldatasize, 0x04))\n      shr(0xe0, calldataload(0x00))\n      dup1\n      0x59a5f12d\n      gt\n      tag_15\n      jumpi\n      dup1\n      0xc78eb546\n      gt\n      tag_16\n      jumpi\n      dup1\n      0xc78eb546\n      eq\n      tag_11\n      jumpi\n      dup1\n      0xc7a1865b\n      eq\n      tag_12\n      jumpi\n      dup1\n      0xd30895e4\n      eq\n      tag_13\n      jumpi\n      dup1\n      0xedd66370\n      eq\n      tag_14\n      jumpi\n      jump(tag_1)\n    tag_16:\n      dup1\n      0x59a5f12d\n      eq\n      tag_8\n      jumpi\n      dup1\n      0xa6e66477\n      eq\n      tag_9\n      jumpi\n      dup1\n      0xac71131a\n      eq\n      tag_10\n      jumpi\n      jump(tag_1)\n    tag_15:\n      dup1\n      0x0b8eebde\n      eq\n      tag_2\n      jumpi\n      dup1\n      0x12fa6feb\n      eq\n      tag_3\n      jumpi\n      dup1\n      0x228cb733\n      eq\n      tag_4\n      jumpi\n      dup1\n      0x33d85d44\n      eq\n      tag_5\n      jumpi\n      dup1\n      0x38af3eed\n      eq\n      tag_6\n      jumpi\n      dup1\n      0x4036778f\n      eq\n      tag_7\n      jumpi\n    tag_1:\n      0x00\n      dup1\n      revert\n        /* \"Q 2.sol\":2527:3773  function gameEnd() external onlyAfter(revealEnd) {... */\n    tag_2:\n      callvalue\n      dup1\n      iszero\n      tag_17\n      jumpi\n      0x00\n      dup1\n      revert\n    tag_17:\n      pop\n      tag_18\n      tag_19\n      jump\t// in\n    tag_18:\n      stop\n        /* \"Q 2.sol\":478:495  bool public ended */\n    tag_3:\n      callvalue\n      dup1\n      iszero\n      tag_20\n      jumpi\n      0x00\n      dup1\n      revert\n    tag_20:\n      pop\n      tag_21\n      tag_22\n      jump\t// in\n    tag_21:\n      mload(0x40)\n      tag_23\n      swap2\n      swap1\n      tag_24\n      jump\t// in\n    tag_23:\n      mload(0x40)\n      dup1\n      swap2\n      sub\n      swap1\n      return\n        /* \"Q 2.sol\":344:365  uint256 public reward */\n    tag_4:\n      callvalue\n      dup1\n      iszero\n      tag_25\n      jumpi\n      0x00\n      dup1\n      revert\n    tag_25:\n      pop\n      tag_26\n      tag_27\n      jump\t// in\n    tag_26:\n      mload(0x40)\n      tag_28\n      swap2\n      swap1\n      tag_29\n      jump\t// in\n    tag_28:\n      mload(0x40)\n      dup1\n      swap2\n      sub\n      swap1\n      return\n        /* \"Q 2.sol\":426:446  uint256 public move1 */\n    tag_5:\n      callvalue\n      dup1\n      iszero\n      tag_30\n      jumpi\n      0x00\n      dup1\n      revert\n    tag_30:\n      pop\n      tag_31\n      tag_32\n      jump\t// in\n    tag_31:\n      mload(0x40)\n      tag_33\n      swap2\n      swap1\n      tag_29\n      jump\t// in\n    tag_33:\n      mload(0x40)\n      dup1\n      swap2\n      sub\n      swap1\n      return\n        /* \"Q 2.sol\":171:205  address payable public beneficiary */\n    tag_6:\n      callvalue\n      dup1\n      iszero\n      tag_34\n      jumpi\n      0x00\n      dup1\n      revert\n    tag_34:\n      pop\n      tag_35\n      tag_36\n      jump\t// in\n    tag_35:\n      mload(0x40)\n      tag_37\n      swap2\n      swap1\n      tag_38\n      jump\t// in\n    tag_37:\n      mload(0x40)\n      dup1\n      swap2\n      sub\n      swap1\n      return\n        /* \"Q 2.sol\":1567:2521  function reveal(uint256 value, bytes32 secret)... */\n    tag_7:\n      callvalue\n      dup1\n      iszero\n      tag_39\n      jumpi\n      0x00\n      dup1\n      revert\n    tag_39:\n      pop\n      tag_40\n      0x04\n      dup1\n      calldatasize\n      sub\n      dup2\n      add\n      swap1\n      tag_41\n      swap2\n      swap1\n      tag_42\n      jump\t// in\n    tag_41:\n      tag_43\n      jump\t// in\n    tag_40:\n      stop\n        /* \"Q 2.sol\":247:277  address payable public player2 */\n    tag_8:\n      callvalue\n      dup1\n      iszero\n      tag_44\n      jumpi\n      0x00\n      dup1\n      revert\n    tag_44:\n      pop\n      tag_45\n      tag_46\n      jump\t// in\n    tag_45:\n      mload(0x40)\n      tag_47\n      swap2\n      swap1\n      tag_38\n      jump\t// in\n    tag_47:\n      mload(0x40)\n      dup1\n      swap2\n      sub\n      swap1\n      return\n        /* \"Q 2.sol\":314:338  uint256 public revealEnd */\n    tag_9:\n      callvalue\n      dup1\n      iszero\n      tag_48\n      jumpi\n      0x00\n      dup1\n      revert\n    tag_48:\n      pop\n      tag_49\n      tag_50\n      jump\t// in\n    tag_49:\n      mload(0x40)\n      tag_51\n      swap2\n      swap1\n      tag_29\n      jump\t// in\n    tag_51:\n      mload(0x40)\n      dup1\n      swap2\n      sub\n      swap1\n      return\n        /* \"Q 2.sol\":502:539  mapping(address => Play) public plays */\n    tag_10:\n      callvalue\n      dup1\n      iszero\n      tag_52\n      jumpi\n      0x00\n      dup1\n      revert\n    tag_52:\n      pop\n      tag_53\n      0x04\n      dup1\n      calldatasize\n      sub\n      dup2\n      add\n      swap1\n      tag_54\n      swap2\n      swap1\n      tag_55\n      jump\t// in\n    tag_54:\n      tag_56\n      jump\t// in\n    tag_53:\n      mload(0x40)\n      tag_57\n      swap3\n      swap2\n      swap1\n      tag_58\n      jump\t// in\n    tag_57:\n      mload(0x40)\n      dup1\n      swap2\n      sub\n      swap1\n      return\n        /* \"Q 2.sol\":452:472  uint256 public move2 */\n    tag_11:\n      callvalue\n      dup1\n      iszero\n      tag_59\n      jumpi\n      0x00\n      dup1\n      revert\n    tag_59:\n      pop\n      tag_60\n      tag_61\n      jump\t// in\n    tag_60:\n      mload(0x40)\n      tag_62\n      swap2\n      swap1\n      tag_29\n      jump\t// in\n    tag_62:\n      mload(0x40)\n      dup1\n      swap2\n      sub\n      swap1\n      return\n        /* \"Q 2.sol\":1325:1561  function play(bytes32 blindedMove) external payable onlyBefore(playingEnd) {... */\n    tag_12:\n      tag_63\n      0x04\n      dup1\n      calldatasize\n      sub\n      dup2\n      add\n      swap1\n      tag_64\n      swap2\n      swap1\n      tag_65\n      jump\t// in\n    tag_64:\n      tag_66\n      jump\t// in\n    tag_63:\n      stop\n        /* \"Q 2.sol\":211:241  address payable public player1 */\n    tag_13:\n      callvalue\n      dup1\n      iszero\n      tag_67\n      jumpi\n      0x00\n      dup1\n      revert\n    tag_67:\n      pop\n      tag_68\n      tag_69\n      jump\t// in\n    tag_68:\n      mload(0x40)\n      tag_70\n      swap2\n      swap1\n      tag_38\n      jump\t// in\n    tag_70:\n      mload(0x40)\n      dup1\n      swap2\n      sub\n      swap1\n      return\n        /* \"Q 2.sol\":283:308  uint256 public playingEnd */\n    tag_14:\n      callvalue\n      dup1\n      iszero\n      tag_71\n      jumpi\n      0x00\n      dup1\n      revert\n    tag_71:\n      pop\n      tag_72\n      tag_73\n      jump\t// in\n    tag_72:\n      mload(0x40)\n      tag_74\n      swap2\n      swap1\n      tag_29\n      jump\t// in\n    tag_74:\n      mload(0x40)\n      dup1\n      swap2\n      sub\n      swap1\n      return\n        /* \"Q 2.sol\":2527:3773  function gameEnd() external onlyAfter(revealEnd) {... */\n    tag_19:\n        /* \"Q 2.sol\":2565:2574  revealEnd */\n      sload(0x04)\n        /* \"Q 2.sol\":867:871  time */\n      dup1\n        /* \"Q 2.sol\":848:863  block.timestamp */\n      timestamp\n        /* \"Q 2.sol\":848:871  block.timestamp <= time */\n      gt\n        /* \"Q 2.sol\":844:894  if (block.timestamp <= time) revert TooEarly(time) */\n      tag_76\n      jumpi\n        /* \"Q 2.sol\":889:893  time */\n      dup1\n        /* \"Q 2.sol\":880:894  TooEarly(time) */\n      mload(0x40)\n      0x2a35a32400000000000000000000000000000000000000000000000000000000\n      dup2\n      mstore\n      0x04\n      add\n      tag_77\n      swap2\n      swap1\n      tag_29\n      jump\t// in\n    tag_77:\n      mload(0x40)\n      dup1\n      swap2\n      sub\n      swap1\n      revert\n        /* \"Q 2.sol\":844:894  if (block.timestamp <= time) revert TooEarly(time) */\n    tag_76:\n        /* \"Q 2.sol\":2590:2595  ended */\n      0x08\n      0x00\n      swap1\n      sload\n      swap1\n      0x0100\n      exp\n      swap1\n      div\n      0xff\n      and\n        /* \"Q 2.sol\":2586:2651  if (ended) {... */\n      iszero\n      tag_79\n      jumpi\n        /* \"Q 2.sol\":2618:2640  GameEndAlreadyCalled() */\n      mload(0x40)\n      0x7215832200000000000000000000000000000000000000000000000000000000\n      dup2\n      mstore\n      0x04\n      add\n      mload(0x40)\n      dup1\n      swap2\n      sub\n      swap1\n      revert\n        /* \"Q 2.sol\":2586:2651  if (ended) {... */\n    tag_79:\n        /* \"Q 2.sol\":2668:2672  true */\n      0x01\n        /* \"Q 2.sol\":2660:2665  ended */\n      0x08\n      0x00\n        /* \"Q 2.sol\":2660:2672  ended = true */\n      0x0100\n      exp\n      dup2\n      sload\n      dup2\n      0xff\n      mul\n      not\n      and\n      swap1\n      dup4\n      iszero\n      iszero\n      mul\n      or\n      swap1\n      sstore\n      pop\n        /* \"Q 2.sol\":2695:2696  0 */\n      0x00\n        /* \"Q 2.sol\":2686:2691  move1 */\n      sload(0x06)\n        /* \"Q 2.sol\":2686:2696  move1 == 0 */\n      eq\n        /* \"Q 2.sol\":2686:2710  move1 == 0 && move2 == 0 */\n      dup1\n      iszero\n      tag_80\n      jumpi\n      pop\n        /* \"Q 2.sol\":2709:2710  0 */\n      0x00\n        /* \"Q 2.sol\":2700:2705  move2 */\n      sload(0x07)\n        /* \"Q 2.sol\":2700:2710  move2 == 0 */\n      eq\n        /* \"Q 2.sol\":2686:2710  move1 == 0 && move2 == 0 */\n    tag_80:\n        /* \"Q 2.sol\":2682:2912  if (move1 == 0 && move2 == 0) {... */\n      iszero\n      tag_81\n      jumpi\n        /* \"Q 2.sol\":2726:2737  beneficiary */\n      0x00\n      dup1\n      sload\n      swap1\n      0x0100\n      exp\n      swap1\n      div\n      0xffffffffffffffffffffffffffffffffffffffff\n      and\n        /* \"Q 2.sol\":2726:2746  beneficiary.transfer */\n      0xffffffffffffffffffffffffffffffffffffffff\n      and\n        /* \"Q 2.sol\":2726:2834  beneficiary.transfer(... */\n      0x08fc\n        /* \"Q 2.sol\":2798:2803  plays */\n      0x09\n        /* \"Q 2.sol\":2798:2812  plays[player2] */\n      0x00\n        /* \"Q 2.sol\":2804:2811  player2 */\n      0x02\n      0x00\n      swap1\n      sload\n      swap1\n      0x0100\n      exp\n      swap1\n      div\n      0xffffffffffffffffffffffffffffffffffffffff\n      and\n        /* \"Q 2.sol\":2798:2812  plays[player2] */\n      0xffffffffffffffffffffffffffffffffffffffff\n      and\n      0xffffffffffffffffffffffffffffffffffffffff\n      and\n      dup2\n      mstore\n      0x20\n      add\n      swap1\n      dup2\n      mstore\n      0x20\n      add\n      0x00\n      keccak256\n        /* \"Q 2.sol\":2798:2820  plays[player2].deposit */\n      0x01\n      add\n      sload\n        /* \"Q 2.sol\":2773:2778  plays */\n      0x09\n        /* \"Q 2.sol\":2773:2787  plays[player1] */\n      0x00\n        /* \"Q 2.sol\":2779:2786  player1 */\n      0x01\n      0x00\n      swap1\n      sload\n      swap1\n      0x0100\n      exp\n      swap1\n      div\n      0xffffffffffffffffffffffffffffffffffffffff\n      and\n        /* \"Q 2.sol\":2773:2787  plays[player1] */\n      0xffffffffffffffffffffffffffffffffffffffff\n      and\n      0xffffffffffffffffffffffffffffffffffffffff\n      and\n      dup2\n      mstore\n      0x20\n      add\n      swap1\n      dup2\n      mstore\n      0x20\n      add\n      0x00\n      keccak256\n        /* \"Q 2.sol\":2773:2795  plays[player1].deposit */\n      0x01\n      add\n      sload\n        /* \"Q 2.sol\":2764:2770  reward */\n      sload(0x05)\n        /* \"Q 2.sol\":2764:2795  reward + plays[player1].deposit */\n      tag_82\n      swap2\n      swap1\n      tag_83\n      jump\t// in\n    tag_82:\n        /* \"Q 2.sol\":2764:2820  reward + plays[player1].deposit + plays[player2].deposit */\n      tag_84\n      swap2\n      swap1\n      tag_83\n      jump\t// in\n    tag_84:\n        /* \"Q 2.sol\":2726:2834  beneficiary.transfer(... */\n      swap1\n      dup2\n      iszero\n      mul\n      swap1\n      mload(0x40)\n      0x00\n      mload(0x40)\n      dup1\n      dup4\n      sub\n      dup2\n      dup6\n      dup9\n      dup9\n      call\n      swap4\n      pop\n      pop\n      pop\n      pop\n      iszero\n      dup1\n      iszero\n      tag_86\n      jumpi\n      returndatasize\n      0x00\n      dup1\n      returndatacopy\n      revert(0x00, returndatasize)\n    tag_86:\n      pop\n        /* \"Q 2.sol\":2853:2881  GameEnded(\"No one revealed\") */\n      0x056e3895424a85ef26c4c78d9988dea28d97c77c140b919289906403e8017170\n      mload(0x40)\n      tag_87\n      swap1\n      tag_88\n      jump\t// in\n    tag_87:\n      mload(0x40)\n      dup1\n      swap2\n      sub\n      swap1\n      log1\n        /* \"Q 2.sol\":2895:2902  return; */\n      jump(tag_78)\n        /* \"Q 2.sol\":2682:2912  if (move1 == 0 && move2 == 0) {... */\n    tag_81:\n        /* \"Q 2.sol\":2934:2935  0 */\n      0x00\n        /* \"Q 2.sol\":2925:2930  move1 */\n      sload(0x06)\n        /* \"Q 2.sol\":2925:2935  move1 == 0 */\n      sub\n        /* \"Q 2.sol\":2921:3083  if (move1 == 0) {... */\n      tag_89\n      jumpi\n        /* \"Q 2.sol\":2956:2989  GameEnded(\"Player 1 didn't play\") */\n      0x056e3895424a85ef26c4c78d9988dea28d97c77c140b919289906403e8017170\n      mload(0x40)\n      tag_90\n      swap1\n      tag_91\n      jump\t// in\n    tag_90:\n      mload(0x40)\n      dup1\n      swap2\n      sub\n      swap1\n      log1\n        /* \"Q 2.sol\":3003:3010  player2 */\n      0x02\n      0x00\n      swap1\n      sload\n      swap1\n      0x0100\n      exp\n      swap1\n      div\n      0xffffffffffffffffffffffffffffffffffffffff\n      and\n        /* \"Q 2.sol\":3003:3019  player2.transfer */\n      0xffffffffffffffffffffffffffffffffffffffff\n      and\n        /* \"Q 2.sol\":3003:3052  player2.transfer(reward + plays[player1].deposit) */\n      0x08fc\n        /* \"Q 2.sol\":3029:3034  plays */\n      0x09\n        /* \"Q 2.sol\":3029:3043  plays[player1] */\n      0x00\n        /* \"Q 2.sol\":3035:3042  player1 */\n      0x01\n      0x00\n      swap1\n      sload\n      swap1\n      0x0100\n      exp\n      swap1\n      div\n      0xffffffffffffffffffffffffffffffffffffffff\n      and\n        /* \"Q 2.sol\":3029:3043  plays[player1] */\n      0xffffffffffffffffffffffffffffffffffffffff\n      and\n      0xffffffffffffffffffffffffffffffffffffffff\n      and\n      dup2\n      mstore\n      0x20\n      add\n      swap1\n      dup2\n      mstore\n      0x20\n      add\n      0x00\n      keccak256\n        /* \"Q 2.sol\":3029:3051  plays[player1].deposit */\n      0x01\n      add\n      sload\n        /* \"Q 2.sol\":3020:3026  reward */\n      sload(0x05)\n        /* \"Q 2.sol\":3020:3051  reward + plays[player1].deposit */\n      tag_92\n      swap2\n      swap1\n      tag_83\n      jump\t// in\n    tag_92:\n        /* \"Q 2.sol\":3003:3052  player2.transfer(reward + plays[player1].deposit) */\n      swap1\n      dup2\n      iszero\n      mul\n      swap1\n      mload(0x40)\n      0x00\n      mload(0x40)\n      dup1\n      dup4\n      sub\n      dup2\n      dup6\n      dup9\n      dup9\n      call\n      swap4\n      pop\n      pop\n      pop\n      pop\n      iszero\n      dup1\n      iszero\n      tag_94\n      jumpi\n      returndatasize\n      0x00\n      dup1\n      returndatacopy\n      revert(0x00, returndatasize)\n    tag_94:\n      pop\n        /* \"Q 2.sol\":3066:3073  return; */\n      jump(tag_78)\n        /* \"Q 2.sol\":2921:3083  if (move1 == 0) {... */\n    tag_89:\n        /* \"Q 2.sol\":3105:3106  0 */\n      0x00\n        /* \"Q 2.sol\":3096:3101  move2 */\n      sload(0x07)\n        /* \"Q 2.sol\":3096:3106  move2 == 0 */\n      sub\n        /* \"Q 2.sol\":3092:3254  if (move2 == 0) {... */\n      tag_95\n      jumpi\n        /* \"Q 2.sol\":3127:3160  GameEnded(\"Player 2 didn't play\") */\n      0x056e3895424a85ef26c4c78d9988dea28d97c77c140b919289906403e8017170\n      mload(0x40)\n      tag_96\n      swap1\n      tag_97\n      jump\t// in\n    tag_96:\n      mload(0x40)\n      dup1\n      swap2\n      sub\n      swap1\n      log1\n        /* \"Q 2.sol\":3174:3181  player1 */\n      0x01\n      0x00\n      swap1\n      sload\n      swap1\n      0x0100\n      exp\n      swap1\n      div\n      0xffffffffffffffffffffffffffffffffffffffff\n      and\n        /* \"Q 2.sol\":3174:3190  player1.transfer */\n      0xffffffffffffffffffffffffffffffffffffffff\n      and\n        /* \"Q 2.sol\":3174:3223  player1.transfer(reward + plays[player2].deposit) */\n      0x08fc\n        /* \"Q 2.sol\":3200:3205  plays */\n      0x09\n        /* \"Q 2.sol\":3200:3214  plays[player2] */\n      0x00\n        /* \"Q 2.sol\":3206:3213  player2 */\n      0x02\n      0x00\n      swap1\n      sload\n      swap1\n      0x0100\n      exp\n      swap1\n      div\n      0xffffffffffffffffffffffffffffffffffffffff\n      and\n        /* \"Q 2.sol\":3200:3214  plays[player2] */\n      0xffffffffffffffffffffffffffffffffffffffff\n      and\n      0xffffffffffffffffffffffffffffffffffffffff\n      and\n      dup2\n      mstore\n      0x20\n      add\n      swap1\n      dup2\n      mstore\n      0x20\n      add\n      0x00\n      keccak256\n        /* \"Q 2.sol\":3200:3222  plays[player2].deposit */\n      0x01\n      add\n      sload\n        /* \"Q 2.sol\":3191:3197  reward */\n      sload(0x05)\n        /* \"Q 2.sol\":3191:3222  reward + plays[player2].deposit */\n      tag_98\n      swap2\n      swap1\n      tag_83\n      jump\t// in\n    tag_98:\n        /* \"Q 2.sol\":3174:3223  player1.transfer(reward + plays[player2].deposit) */\n      swap1\n      dup2\n      iszero\n      mul\n      swap1\n      mload(0x40)\n      0x00\n      mload(0x40)\n      dup1\n      dup4\n      sub\n      dup2\n      dup6\n      dup9\n      dup9\n      call\n      swap4\n      pop\n      pop\n      pop\n      pop\n      iszero\n      dup1\n      iszero\n      tag_100\n      jumpi\n      returndatasize\n      0x00\n      dup1\n      returndatacopy\n      revert(0x00, returndatasize)\n    tag_100:\n      pop\n        /* \"Q 2.sol\":3237:3244  return; */\n      jump(tag_78)\n        /* \"Q 2.sol\":3092:3254  if (move2 == 0) {... */\n    tag_95:\n        /* \"Q 2.sol\":3276:3281  move2 */\n      sload(0x07)\n        /* \"Q 2.sol\":3267:3272  move1 */\n      sload(0x06)\n        /* \"Q 2.sol\":3267:3281  move1 == move2 */\n      sub\n        /* \"Q 2.sol\":3263:3434  if (move1 == move2) {... */\n      tag_101\n      jumpi\n        /* \"Q 2.sol\":3302:3319  GameEnded(\"Draw\") */\n      0x056e3895424a85ef26c4c78d9988dea28d97c77c140b919289906403e8017170\n      mload(0x40)\n      tag_102\n      swap1\n      tag_103\n      jump\t// in\n    tag_102:\n      mload(0x40)\n      dup1\n      swap2\n      sub\n      swap1\n      log1\n        /* \"Q 2.sol\":3333:3340  player1 */\n      0x01\n      0x00\n      swap1\n      sload\n      swap1\n      0x0100\n      exp\n      swap1\n      div\n      0xffffffffffffffffffffffffffffffffffffffff\n      and\n        /* \"Q 2.sol\":3333:3349  player1.transfer */\n      0xffffffffffffffffffffffffffffffffffffffff\n      and\n        /* \"Q 2.sol\":3333:3361  player1.transfer(reward / 2) */\n      0x08fc\n        /* \"Q 2.sol\":3359:3360  2 */\n      0x02\n        /* \"Q 2.sol\":3350:3356  reward */\n      sload(0x05)\n        /* \"Q 2.sol\":3350:3360  reward / 2 */\n      tag_104\n      swap2\n      swap1\n      tag_105\n      jump\t// in\n    tag_104:\n        /* \"Q 2.sol\":3333:3361  player1.transfer(reward / 2) */\n      swap1\n      dup2\n      iszero\n      mul\n      swap1\n      mload(0x40)\n      0x00\n      mload(0x40)\n      dup1\n      dup4\n      sub\n      dup2\n      dup6\n      dup9\n      dup9\n      call\n      swap4\n      pop\n      pop\n      pop\n      pop\n      iszero\n      dup1\n      iszero\n      tag_107\n      jumpi\n      returndatasize\n      0x00\n      dup1\n      returndatacopy\n      revert(0x00, returndatasize)\n    tag_107:\n      pop\n        /* \"Q 2.sol\":3375:3382  player2 */\n      0x02\n      0x00\n      swap1\n      sload\n      swap1\n      0x0100\n      exp\n      swap1\n      div\n      0xffffffffffffffffffffffffffffffffffffffff\n      and\n        /* \"Q 2.sol\":3375:3391  player2.transfer */\n      0xffffffffffffffffffffffffffffffffffffffff\n      and\n        /* \"Q 2.sol\":3375:3403  player2.transfer(reward / 2) */\n      0x08fc\n        /* \"Q 2.sol\":3401:3402  2 */\n      0x02\n        /* \"Q 2.sol\":3392:3398  reward */\n      sload(0x05)\n        /* \"Q 2.sol\":3392:3402  reward / 2 */\n      tag_108\n      swap2\n      swap1\n      tag_105\n      jump\t// in\n    tag_108:\n        /* \"Q 2.sol\":3375:3403  player2.transfer(reward / 2) */\n      swap1\n      dup2\n      iszero\n      mul\n      swap1\n      mload(0x40)\n      0x00\n      mload(0x40)\n      dup1\n      dup4\n      sub\n      dup2\n      dup6\n      dup9\n      dup9\n      call\n      swap4\n      pop\n      pop\n      pop\n      pop\n      iszero\n      dup1\n      iszero\n      tag_110\n      jumpi\n      returndatasize\n      0x00\n      dup1\n      returndatacopy\n      revert(0x00, returndatasize)\n    tag_110:\n      pop\n        /* \"Q 2.sol\":3417:3424  return; */\n      jump(tag_78)\n        /* \"Q 2.sol\":3263:3434  if (move1 == move2) {... */\n    tag_101:\n        /* \"Q 2.sol\":3456:3461  move2 */\n      sload(0x07)\n        /* \"Q 2.sol\":3447:3452  move1 */\n      sload(0x06)\n        /* \"Q 2.sol\":3447:3461  move1 != move2 */\n      eq\n        /* \"Q 2.sol\":3443:3767  if (move1 != move2) {... */\n      tag_111\n      jumpi\n        /* \"Q 2.sol\":3481:3489  whoWin() */\n      tag_112\n        /* \"Q 2.sol\":3481:3487  whoWin */\n      tag_113\n        /* \"Q 2.sol\":3481:3489  whoWin() */\n      jump\t// in\n    tag_112:\n        /* \"Q 2.sol\":3477:3757  if (whoWin()) {... */\n      iszero\n      tag_114\n      jumpi\n        /* \"Q 2.sol\":3514:3540  GameEnded(\"Player 1 wins\") */\n      0x056e3895424a85ef26c4c78d9988dea28d97c77c140b919289906403e8017170\n      mload(0x40)\n      tag_115\n      swap1\n      tag_116\n      jump\t// in\n    tag_115:\n      mload(0x40)\n      dup1\n      swap2\n      sub\n      swap1\n      log1\n        /* \"Q 2.sol\":3558:3565  player1 */\n      0x01\n      0x00\n      swap1\n      sload\n      swap1\n      0x0100\n      exp\n      swap1\n      div\n      0xffffffffffffffffffffffffffffffffffffffff\n      and\n        /* \"Q 2.sol\":3558:3574  player1.transfer */\n      0xffffffffffffffffffffffffffffffffffffffff\n      and\n        /* \"Q 2.sol\":3558:3582  player1.transfer(reward) */\n      0x08fc\n        /* \"Q 2.sol\":3575:3581  reward */\n      sload(0x05)\n        /* \"Q 2.sol\":3558:3582  player1.transfer(reward) */\n      swap1\n      dup2\n      iszero\n      mul\n      swap1\n      mload(0x40)\n      0x00\n      mload(0x40)\n      dup1\n      dup4\n      sub\n      dup2\n      dup6\n      dup9\n      dup9\n      call\n      swap4\n      pop\n      pop\n      pop\n      pop\n      iszero\n      dup1\n      iszero\n      tag_118\n      jumpi\n      returndatasize\n      0x00\n      dup1\n      returndatacopy\n      revert(0x00, returndatasize)\n    tag_118:\n      pop\n        /* \"Q 2.sol\":3600:3607  return; */\n      jump(tag_78)\n        /* \"Q 2.sol\":3477:3757  if (whoWin()) {... */\n    tag_114:\n        /* \"Q 2.sol\":3650:3676  GameEnded(\"Player 2 wins\") */\n      0x056e3895424a85ef26c4c78d9988dea28d97c77c140b919289906403e8017170\n      mload(0x40)\n      tag_120\n      swap1\n      tag_121\n      jump\t// in\n    tag_120:\n      mload(0x40)\n      dup1\n      swap2\n      sub\n      swap1\n      log1\n        /* \"Q 2.sol\":3694:3701  player2 */\n      0x02\n      0x00\n      swap1\n      sload\n      swap1\n      0x0100\n      exp\n      swap1\n      div\n      0xffffffffffffffffffffffffffffffffffffffff\n      and\n        /* \"Q 2.sol\":3694:3710  player2.transfer */\n      0xffffffffffffffffffffffffffffffffffffffff\n      and\n        /* \"Q 2.sol\":3694:3718  player2.transfer(reward) */\n      0x08fc\n        /* \"Q 2.sol\":3711:3717  reward */\n      sload(0x05)\n        /* \"Q 2.sol\":3694:3718  player2.transfer(reward) */\n      swap1\n      dup2\n      iszero\n      mul\n      swap1\n      mload(0x40)\n      0x00\n      mload(0x40)\n      dup1\n      dup4\n      sub\n      dup2\n      dup6\n      dup9\n      dup9\n      call\n      swap4\n      pop\n      pop\n      pop\n      pop\n      iszero\n      dup1\n      iszero\n      tag_123\n      jumpi\n      returndatasize\n      0x00\n      dup1\n      returndatacopy\n      revert(0x00, returndatasize)\n    tag_123:\n      pop\n        /* \"Q 2.sol\":3736:3743  return; */\n      jump(tag_78)\n        /* \"Q 2.sol\":3443:3767  if (move1 != move2) {... */\n    tag_111:\n        /* \"Q 2.sol\":904:905  _ */\n    tag_78:\n        /* \"Q 2.sol\":2527:3773  function gameEnd() external onlyAfter(revealEnd) {... */\n      pop\n      jump\t// out\n        /* \"Q 2.sol\":478:495  bool public ended */\n    tag_22:\n      0x08\n      0x00\n      swap1\n      sload\n      swap1\n      0x0100\n      exp\n      swap1\n      div\n      0xff\n      and\n      dup2\n      jump\t// out\n        /* \"Q 2.sol\":344:365  uint256 public reward */\n    tag_27:\n      sload(0x05)\n      dup2\n      jump\t// out\n        /* \"Q 2.sol\":426:446  uint256 public move1 */\n    tag_32:\n      sload(0x06)\n      dup2\n      jump\t// out\n        /* \"Q 2.sol\":171:205  address payable public beneficiary */\n    tag_36:\n      0x00\n      dup1\n      sload\n      swap1\n      0x0100\n      exp\n      swap1\n      div\n      0xffffffffffffffffffffffffffffffffffffffff\n      and\n      dup2\n      jump\t// out\n        /* \"Q 2.sol\":1567:2521  function reveal(uint256 value, bytes32 secret)... */\n    tag_43:\n        /* \"Q 2.sol\":1649:1659  playingEnd */\n      sload(0x03)\n        /* \"Q 2.sol\":867:871  time */\n      dup1\n        /* \"Q 2.sol\":848:863  block.timestamp */\n      timestamp\n        /* \"Q 2.sol\":848:871  block.timestamp <= time */\n      gt\n        /* \"Q 2.sol\":844:894  if (block.timestamp <= time) revert TooEarly(time) */\n      tag_125\n      jumpi\n        /* \"Q 2.sol\":889:893  time */\n      dup1\n        /* \"Q 2.sol\":880:894  TooEarly(time) */\n      mload(0x40)\n      0x2a35a32400000000000000000000000000000000000000000000000000000000\n      dup2\n      mstore\n      0x04\n      add\n      tag_126\n      swap2\n      swap1\n      tag_29\n      jump\t// in\n    tag_126:\n      mload(0x40)\n      dup1\n      swap2\n      sub\n      swap1\n      revert\n        /* \"Q 2.sol\":844:894  if (block.timestamp <= time) revert TooEarly(time) */\n    tag_125:\n        /* \"Q 2.sol\":1680:1689  revealEnd */\n      sload(0x04)\n        /* \"Q 2.sol\":752:756  time */\n      dup1\n        /* \"Q 2.sol\":733:748  block.timestamp */\n      timestamp\n        /* \"Q 2.sol\":733:756  block.timestamp >= time */\n      lt\n        /* \"Q 2.sol\":729:778  if (block.timestamp >= time) revert TooLate(time) */\n      tag_128\n      jumpi\n        /* \"Q 2.sol\":773:777  time */\n      dup1\n        /* \"Q 2.sol\":765:778  TooLate(time) */\n      mload(0x40)\n      0x691e568200000000000000000000000000000000000000000000000000000000\n      dup2\n      mstore\n      0x04\n      add\n      tag_129\n      swap2\n      swap1\n      tag_29\n      jump\t// in\n    tag_129:\n      mload(0x40)\n      dup1\n      swap2\n      sub\n      swap1\n      revert\n        /* \"Q 2.sol\":729:778  if (block.timestamp >= time) revert TooLate(time) */\n    tag_128:\n        /* \"Q 2.sol\":1723:1730  player1 */\n      0x01\n      0x00\n      swap1\n      sload\n      swap1\n      0x0100\n      exp\n      swap1\n      div\n      0xffffffffffffffffffffffffffffffffffffffff\n      and\n        /* \"Q 2.sol\":1709:1730  msg.sender != player1 */\n      0xffffffffffffffffffffffffffffffffffffffff\n      and\n        /* \"Q 2.sol\":1709:1719  msg.sender */\n      caller\n        /* \"Q 2.sol\":1709:1730  msg.sender != player1 */\n      0xffffffffffffffffffffffffffffffffffffffff\n      and\n      eq\n      iszero\n        /* \"Q 2.sol\":1709:1755  msg.sender != player1 && msg.sender != player2 */\n      dup1\n      iszero\n      tag_131\n      jumpi\n      pop\n        /* \"Q 2.sol\":1748:1755  player2 */\n      0x02\n      0x00\n      swap1\n      sload\n      swap1\n      0x0100\n      exp\n      swap1\n      div\n      0xffffffffffffffffffffffffffffffffffffffff\n      and\n        /* \"Q 2.sol\":1734:1755  msg.sender != player2 */\n      0xffffffffffffffffffffffffffffffffffffffff\n      and\n        /* \"Q 2.sol\":1734:1744  msg.sender */\n      caller\n        /* \"Q 2.sol\":1734:1755  msg.sender != player2 */\n      0xffffffffffffffffffffffffffffffffffffffff\n      and\n      eq\n      iszero\n        /* \"Q 2.sol\":1709:1755  msg.sender != player1 && msg.sender != player2 */\n    tag_131:\n        /* \"Q 2.sol\":1771:1778  return; */\n      tag_130\n        /* \"Q 2.sol\":1705:1788  if (msg.sender != player1 && msg.sender != player2) {... */\n      jumpi\n        /* \"Q 2.sol\":1826:1836  msg.sender */\n      caller\n        /* \"Q 2.sol\":1815:1836  player1 == msg.sender */\n      0xffffffffffffffffffffffffffffffffffffffff\n      and\n        /* \"Q 2.sol\":1815:1822  player1 */\n      0x01\n      0x00\n      swap1\n      sload\n      swap1\n      0x0100\n      exp\n      swap1\n      div\n      0xffffffffffffffffffffffffffffffffffffffff\n      and\n        /* \"Q 2.sol\":1815:1836  player1 == msg.sender */\n      0xffffffffffffffffffffffffffffffffffffffff\n      and\n      eq\n        /* \"Q 2.sol\":1815:1850  player1 == msg.sender && move1 != 0 */\n      dup1\n      iszero\n      tag_133\n      jumpi\n      pop\n        /* \"Q 2.sol\":1849:1850  0 */\n      0x00\n        /* \"Q 2.sol\":1840:1845  move1 */\n      sload(0x06)\n        /* \"Q 2.sol\":1840:1850  move1 != 0 */\n      eq\n      iszero\n        /* \"Q 2.sol\":1815:1850  player1 == msg.sender && move1 != 0 */\n    tag_133:\n        /* \"Q 2.sol\":1814:1904  (player1 == msg.sender && move1 != 0) ||... */\n      dup1\n      tag_134\n      jumpi\n      pop\n        /* \"Q 2.sol\":1879:1889  msg.sender */\n      caller\n        /* \"Q 2.sol\":1868:1889  player2 == msg.sender */\n      0xffffffffffffffffffffffffffffffffffffffff\n      and\n        /* \"Q 2.sol\":1868:1875  player2 */\n      0x02\n      0x00\n      swap1\n      sload\n      swap1\n      0x0100\n      exp\n      swap1\n      div\n      0xffffffffffffffffffffffffffffffffffffffff\n      and\n        /* \"Q 2.sol\":1868:1889  player2 == msg.sender */\n      0xffffffffffffffffffffffffffffffffffffffff\n      and\n      eq\n        /* \"Q 2.sol\":1868:1903  player2 == msg.sender && move2 != 0 */\n      dup1\n      iszero\n      tag_135\n      jumpi\n      pop\n        /* \"Q 2.sol\":1902:1903  0 */\n      0x00\n        /* \"Q 2.sol\":1893:1898  move2 */\n      sload(0x07)\n        /* \"Q 2.sol\":1893:1903  move2 != 0 */\n      eq\n      iszero\n        /* \"Q 2.sol\":1868:1903  player2 == msg.sender && move2 != 0 */\n    tag_135:\n        /* \"Q 2.sol\":1814:1904  (player1 == msg.sender && move1 != 0) ||... */\n    tag_134:\n        /* \"Q 2.sol\":1797:1967  if (... */\n      iszero\n      tag_136\n      jumpi\n        /* \"Q 2.sol\":1929:1956  revert(\"Already Revealed!\") */\n      mload(0x40)\n      0x08c379a000000000000000000000000000000000000000000000000000000000\n      dup2\n      mstore\n      0x04\n      add\n      tag_137\n      swap1\n      tag_138\n      jump\t// in\n    tag_137:\n      mload(0x40)\n      dup1\n      swap2\n      sub\n      swap1\n      revert\n        /* \"Q 2.sol\":1797:1967  if (... */\n    tag_136:\n        /* \"Q 2.sol\":1988:1989  1 */\n      0x01\n        /* \"Q 2.sol\":1980:1985  value */\n      dup5\n        /* \"Q 2.sol\":1980:1989  value < 1 */\n      lt\n        /* \"Q 2.sol\":1980:2002  value < 1 || value > 3 */\n      dup1\n      tag_139\n      jumpi\n      pop\n        /* \"Q 2.sol\":2001:2002  3 */\n      0x03\n        /* \"Q 2.sol\":1993:1998  value */\n      dup5\n        /* \"Q 2.sol\":1993:2002  value > 3 */\n      gt\n        /* \"Q 2.sol\":1980:2002  value < 1 || value > 3 */\n    tag_139:\n        /* \"Q 2.sol\":1976:2053  if (value < 1 || value > 3) {... */\n      iszero\n      tag_140\n      jumpi\n        /* \"Q 2.sol\":2018:2042  revert(\"Invalid value!\") */\n      mload(0x40)\n      0x08c379a000000000000000000000000000000000000000000000000000000000\n      dup2\n      mstore\n      0x04\n      add\n      tag_141\n      swap1\n      tag_142\n      jump\t// in\n    tag_141:\n      mload(0x40)\n      dup1\n      swap2\n      sub\n      swap1\n      revert\n        /* \"Q 2.sol\":1976:2053  if (value < 1 || value > 3) {... */\n    tag_140:\n        /* \"Q 2.sol\":2151:2156  value */\n      dup4\n        /* \"Q 2.sol\":2158:2164  secret */\n      dup4\n        /* \"Q 2.sol\":2134:2165  abi.encodePacked(value, secret) */\n      add(0x20, mload(0x40))\n      tag_143\n      swap3\n      swap2\n      swap1\n      tag_144\n      jump\t// in\n    tag_143:\n      mload(0x40)\n      0x20\n      dup2\n      dup4\n      sub\n      sub\n      dup2\n      mstore\n      swap1\n      0x40\n      mstore\n        /* \"Q 2.sol\":2124:2166  keccak256(abi.encodePacked(value, secret)) */\n      dup1\n      mload\n      swap1\n      0x20\n      add\n      keccak256\n        /* \"Q 2.sol\":2079:2084  plays */\n      0x09\n        /* \"Q 2.sol\":2079:2096  plays[msg.sender] */\n      0x00\n        /* \"Q 2.sol\":2085:2095  msg.sender */\n      caller\n        /* \"Q 2.sol\":2079:2096  plays[msg.sender] */\n      0xffffffffffffffffffffffffffffffffffffffff\n      and\n      0xffffffffffffffffffffffffffffffffffffffff\n      and\n      dup2\n      mstore\n      0x20\n      add\n      swap1\n      dup2\n      mstore\n      0x20\n      add\n      0x00\n      keccak256\n        /* \"Q 2.sol\":2079:2108  plays[msg.sender].blindedMove */\n      0x00\n      add\n      sload\n        /* \"Q 2.sol\":2079:2166  plays[msg.sender].blindedMove ==... */\n      sub\n        /* \"Q 2.sol\":2062:2515  if (... */\n      tag_145\n      jumpi\n        /* \"Q 2.sol\":2209:2216  player1 */\n      0x01\n      0x00\n      swap1\n      sload\n      swap1\n      0x0100\n      exp\n      swap1\n      div\n      0xffffffffffffffffffffffffffffffffffffffff\n      and\n        /* \"Q 2.sol\":2195:2216  msg.sender == player1 */\n      0xffffffffffffffffffffffffffffffffffffffff\n      and\n        /* \"Q 2.sol\":2195:2205  msg.sender */\n      caller\n        /* \"Q 2.sol\":2195:2216  msg.sender == player1 */\n      0xffffffffffffffffffffffffffffffffffffffff\n      and\n      sub\n        /* \"Q 2.sol\":2191:2438  if (msg.sender == player1) {... */\n      tag_146\n      jumpi\n        /* \"Q 2.sol\":2244:2249  value */\n      dup4\n        /* \"Q 2.sol\":2236:2241  move1 */\n      0x06\n        /* \"Q 2.sol\":2236:2249  move1 = value */\n      dup2\n      swap1\n      sstore\n      pop\n        /* \"Q 2.sol\":2267:2274  player1 */\n      0x01\n      0x00\n      swap1\n      sload\n      swap1\n      0x0100\n      exp\n      swap1\n      div\n      0xffffffffffffffffffffffffffffffffffffffff\n      and\n        /* \"Q 2.sol\":2267:2283  player1.transfer */\n      0xffffffffffffffffffffffffffffffffffffffff\n      and\n        /* \"Q 2.sol\":2267:2310  player1.transfer(plays[msg.sender].deposit) */\n      0x08fc\n        /* \"Q 2.sol\":2284:2289  plays */\n      0x09\n        /* \"Q 2.sol\":2284:2301  plays[msg.sender] */\n      0x00\n        /* \"Q 2.sol\":2290:2300  msg.sender */\n      caller\n        /* \"Q 2.sol\":2284:2301  plays[msg.sender] */\n      0xffffffffffffffffffffffffffffffffffffffff\n      and\n      0xffffffffffffffffffffffffffffffffffffffff\n      and\n      dup2\n      mstore\n      0x20\n      add\n      swap1\n      dup2\n      mstore\n      0x20\n      add\n      0x00\n      keccak256\n        /* \"Q 2.sol\":2284:2309  plays[msg.sender].deposit */\n      0x01\n      add\n      sload\n        /* \"Q 2.sol\":2267:2310  player1.transfer(plays[msg.sender].deposit) */\n      swap1\n      dup2\n      iszero\n      mul\n      swap1\n      mload(0x40)\n      0x00\n      mload(0x40)\n      dup1\n      dup4\n      sub\n      dup2\n      dup6\n      dup9\n      dup9\n      call\n      swap4\n      pop\n      pop\n      pop\n      pop\n      iszero\n      dup1\n      iszero\n      tag_148\n      jumpi\n      returndatasize\n      0x00\n      dup1\n      returndatacopy\n      revert(0x00, returndatasize)\n    tag_148:\n      pop\n        /* \"Q 2.sol\":2191:2438  if (msg.sender == player1) {... */\n      jump(tag_149)\n    tag_146:\n        /* \"Q 2.sol\":2357:2362  value */\n      dup4\n        /* \"Q 2.sol\":2349:2354  move2 */\n      0x07\n        /* \"Q 2.sol\":2349:2362  move2 = value */\n      dup2\n      swap1\n      sstore\n      pop\n        /* \"Q 2.sol\":2380:2387  player2 */\n      0x02\n      0x00\n      swap1\n      sload\n      swap1\n      0x0100\n      exp\n      swap1\n      div\n      0xffffffffffffffffffffffffffffffffffffffff\n      and\n        /* \"Q 2.sol\":2380:2396  player2.transfer */\n      0xffffffffffffffffffffffffffffffffffffffff\n      and\n        /* \"Q 2.sol\":2380:2423  player2.transfer(plays[msg.sender].deposit) */\n      0x08fc\n        /* \"Q 2.sol\":2397:2402  plays */\n      0x09\n        /* \"Q 2.sol\":2397:2414  plays[msg.sender] */\n      0x00\n        /* \"Q 2.sol\":2403:2413  msg.sender */\n      caller\n        /* \"Q 2.sol\":2397:2414  plays[msg.sender] */\n      0xffffffffffffffffffffffffffffffffffffffff\n      and\n      0xffffffffffffffffffffffffffffffffffffffff\n      and\n      dup2\n      mstore\n      0x20\n      add\n      swap1\n      dup2\n      mstore\n      0x20\n      add\n      0x00\n      keccak256\n        /* \"Q 2.sol\":2397:2422  plays[msg.sender].deposit */\n      0x01\n      add\n      sload\n        /* \"Q 2.sol\":2380:2423  player2.transfer(plays[msg.sender].deposit) */\n      swap1\n      dup2\n      iszero\n      mul\n      swap1\n      mload(0x40)\n      0x00\n      mload(0x40)\n      dup1\n      dup4\n      sub\n      dup2\n      dup6\n      dup9\n      dup9\n      call\n      swap4\n      pop\n      pop\n      pop\n      pop\n      iszero\n      dup1\n      iszero\n      tag_151\n      jumpi\n      returndatasize\n      0x00\n      dup1\n      returndatacopy\n      revert(0x00, returndatasize)\n    tag_151:\n      pop\n        /* \"Q 2.sol\":2191:2438  if (msg.sender == player1) {... */\n    tag_149:\n        /* \"Q 2.sol\":2062:2515  if (... */\n      jump(tag_152)\n    tag_145:\n        /* \"Q 2.sol\":2468:2504  revert(\"Doesn't mach blinded Play!\") */\n      mload(0x40)\n      0x08c379a000000000000000000000000000000000000000000000000000000000\n      dup2\n      mstore\n      0x04\n      add\n      tag_153\n      swap1\n      tag_154\n      jump\t// in\n    tag_153:\n      mload(0x40)\n      dup1\n      swap2\n      sub\n      swap1\n      revert\n        /* \"Q 2.sol\":2062:2515  if (... */\n    tag_152:\n        /* \"Q 2.sol\":788:789  _ */\n    tag_130:\n        /* \"Q 2.sol\":904:905  _ */\n      pop\n        /* \"Q 2.sol\":1567:2521  function reveal(uint256 value, bytes32 secret)... */\n      pop\n      pop\n      pop\n      jump\t// out\n        /* \"Q 2.sol\":247:277  address payable public player2 */\n    tag_46:\n      0x02\n      0x00\n      swap1\n      sload\n      swap1\n      0x0100\n      exp\n      swap1\n      div\n      0xffffffffffffffffffffffffffffffffffffffff\n      and\n      dup2\n      jump\t// out\n        /* \"Q 2.sol\":314:338  uint256 public revealEnd */\n    tag_50:\n      sload(0x04)\n      dup2\n      jump\t// out\n        /* \"Q 2.sol\":502:539  mapping(address => Play) public plays */\n    tag_56:\n      mstore(0x20, 0x09)\n      dup1\n      0x00\n      mstore\n      keccak256(0x00, 0x40)\n      0x00\n      swap2\n      pop\n      swap1\n      pop\n      dup1\n      0x00\n      add\n      sload\n      swap1\n      dup1\n      0x01\n      add\n      sload\n      swap1\n      pop\n      dup3\n      jump\t// out\n        /* \"Q 2.sol\":452:472  uint256 public move2 */\n    tag_61:\n      sload(0x07)\n      dup2\n      jump\t// out\n        /* \"Q 2.sol\":1325:1561  function play(bytes32 blindedMove) external payable onlyBefore(playingEnd) {... */\n    tag_66:\n        /* \"Q 2.sol\":1388:1398  playingEnd */\n      sload(0x03)\n        /* \"Q 2.sol\":752:756  time */\n      dup1\n        /* \"Q 2.sol\":733:748  block.timestamp */\n      timestamp\n        /* \"Q 2.sol\":733:756  block.timestamp >= time */\n      lt\n        /* \"Q 2.sol\":729:778  if (block.timestamp >= time) revert TooLate(time) */\n      tag_156\n      jumpi\n        /* \"Q 2.sol\":773:777  time */\n      dup1\n        /* \"Q 2.sol\":765:778  TooLate(time) */\n      mload(0x40)\n      0x691e568200000000000000000000000000000000000000000000000000000000\n      dup2\n      mstore\n      0x04\n      add\n      tag_157\n      swap2\n      swap1\n      tag_29\n      jump\t// in\n    tag_157:\n      mload(0x40)\n      dup1\n      swap2\n      sub\n      swap1\n      revert\n        /* \"Q 2.sol\":729:778  if (block.timestamp >= time) revert TooLate(time) */\n    tag_156:\n        /* \"Q 2.sol\":1431:1437  reward */\n      sload(0x05)\n        /* \"Q 2.sol\":1418:1427  msg.value */\n      callvalue\n        /* \"Q 2.sol\":1418:1437  msg.value == reward */\n      eq\n        /* \"Q 2.sol\":1410:1438  require(msg.value == reward) */\n      tag_159\n      jumpi\n      0x00\n      dup1\n      revert\n    tag_159:\n        /* \"Q 2.sol\":1468:1554  Play({... */\n      mload(0x40)\n      dup1\n      0x40\n      add\n      0x40\n      mstore\n      dup1\n        /* \"Q 2.sol\":1500:1511  blindedMove */\n      dup4\n        /* \"Q 2.sol\":1468:1554  Play({... */\n      dup2\n      mstore\n      0x20\n      add\n        /* \"Q 2.sol\":1534:1543  msg.value */\n      callvalue\n        /* \"Q 2.sol\":1468:1554  Play({... */\n      dup2\n      mstore\n      pop\n        /* \"Q 2.sol\":1448:1453  plays */\n      0x09\n        /* \"Q 2.sol\":1448:1465  plays[msg.sender] */\n      0x00\n        /* \"Q 2.sol\":1454:1464  msg.sender */\n      caller\n        /* \"Q 2.sol\":1448:1465  plays[msg.sender] */\n      0xffffffffffffffffffffffffffffffffffffffff\n      and\n      0xffffffffffffffffffffffffffffffffffffffff\n      and\n      dup2\n      mstore\n      0x20\n      add\n      swap1\n      dup2\n      mstore\n      0x20\n      add\n      0x00\n      keccak256\n        /* \"Q 2.sol\":1448:1554  plays[msg.sender] = Play({... */\n      0x00\n      dup3\n      add\n      mload\n      dup2\n      0x00\n      add\n      sstore\n      0x20\n      dup3\n      add\n      mload\n      dup2\n      0x01\n      add\n      sstore\n      swap1\n      pop\n      pop\n        /* \"Q 2.sol\":1325:1561  function play(bytes32 blindedMove) external payable onlyBefore(playingEnd) {... */\n      pop\n      pop\n      jump\t// out\n        /* \"Q 2.sol\":211:241  address payable public player1 */\n    tag_69:\n      0x01\n      0x00\n      swap1\n      sload\n      swap1\n      0x0100\n      exp\n      swap1\n      div\n      0xffffffffffffffffffffffffffffffffffffffff\n      and\n      dup2\n      jump\t// out\n        /* \"Q 2.sol\":283:308  uint256 public playingEnd */\n    tag_73:\n      sload(0x03)\n      dup2\n      jump\t// out\n        /* \"Q 2.sol\":3779:4067  function whoWin() internal view returns (bool success) {... */\n    tag_113:\n        /* \"Q 2.sol\":3820:3832  bool success */\n      0x00\n        /* \"Q 2.sol\":3871:3872  1 */\n      0x01\n        /* \"Q 2.sol\":3862:3867  move1 */\n      sload(0x06)\n        /* \"Q 2.sol\":3862:3872  move1 == 1 */\n      eq\n        /* \"Q 2.sol\":3862:3886  move1 == 1 && move2 == 3 */\n      dup1\n      iszero\n      tag_161\n      jumpi\n      pop\n        /* \"Q 2.sol\":3885:3886  3 */\n      0x03\n        /* \"Q 2.sol\":3876:3881  move2 */\n      sload(0x07)\n        /* \"Q 2.sol\":3876:3886  move2 == 3 */\n      eq\n        /* \"Q 2.sol\":3862:3886  move1 == 1 && move2 == 3 */\n    tag_161:\n        /* \"Q 2.sol\":3861:3929  (move1 == 1 && move2 == 3) ||... */\n      dup1\n      tag_162\n      jumpi\n      pop\n        /* \"Q 2.sol\":3913:3914  2 */\n      0x02\n        /* \"Q 2.sol\":3904:3909  move1 */\n      sload(0x06)\n        /* \"Q 2.sol\":3904:3914  move1 == 2 */\n      eq\n        /* \"Q 2.sol\":3904:3928  move1 == 2 && move2 == 1 */\n      dup1\n      iszero\n      tag_163\n      jumpi\n      pop\n        /* \"Q 2.sol\":3927:3928  1 */\n      0x01\n        /* \"Q 2.sol\":3918:3923  move2 */\n      sload(0x07)\n        /* \"Q 2.sol\":3918:3928  move2 == 1 */\n      eq\n        /* \"Q 2.sol\":3904:3928  move1 == 2 && move2 == 1 */\n    tag_163:\n        /* \"Q 2.sol\":3861:3929  (move1 == 1 && move2 == 3) ||... */\n    tag_162:\n        /* \"Q 2.sol\":3861:3971  (move1 == 1 && move2 == 3) ||... */\n      dup1\n      tag_164\n      jumpi\n      pop\n        /* \"Q 2.sol\":3955:3956  3 */\n      0x03\n        /* \"Q 2.sol\":3946:3951  move1 */\n      sload(0x06)\n        /* \"Q 2.sol\":3946:3956  move1 == 3 */\n      eq\n        /* \"Q 2.sol\":3946:3970  move1 == 3 && move2 == 2 */\n      dup1\n      iszero\n      tag_165\n      jumpi\n      pop\n        /* \"Q 2.sol\":3969:3970  2 */\n      0x02\n        /* \"Q 2.sol\":3960:3965  move2 */\n      sload(0x07)\n        /* \"Q 2.sol\":3960:3970  move2 == 2 */\n      eq\n        /* \"Q 2.sol\":3946:3970  move1 == 3 && move2 == 2 */\n    tag_165:\n        /* \"Q 2.sol\":3861:3971  (move1 == 1 && move2 == 3) ||... */\n    tag_164:\n        /* \"Q 2.sol\":3844:4061  if (... */\n      iszero\n      tag_166\n      jumpi\n        /* \"Q 2.sol\":4003:4007  true */\n      0x01\n        /* \"Q 2.sol\":3996:4007  return true */\n      swap1\n      pop\n      jump(tag_160)\n        /* \"Q 2.sol\":3844:4061  if (... */\n    tag_166:\n        /* \"Q 2.sol\":4045:4050  false */\n      0x00\n        /* \"Q 2.sol\":4038:4050  return false */\n      swap1\n      pop\n        /* \"Q 2.sol\":3779:4067  function whoWin() internal view returns (bool success) {... */\n    tag_160:\n      swap1\n      jump\t// out\n        /* \"#utility.yul\":7:97   */\n    tag_168:\n        /* \"#utility.yul\":41:48   */\n      0x00\n        /* \"#utility.yul\":84:89   */\n      dup2\n        /* \"#utility.yul\":77:90   */\n      iszero\n        /* \"#utility.yul\":70:91   */\n      iszero\n        /* \"#utility.yul\":59:91   */\n      swap1\n      pop\n        /* \"#utility.yul\":7:97   */\n      swap2\n      swap1\n      pop\n      jump\t// out\n        /* \"#utility.yul\":103:212   */\n    tag_169:\n        /* \"#utility.yul\":184:205   */\n      tag_215\n        /* \"#utility.yul\":199:204   */\n      dup2\n        /* \"#utility.yul\":184:205   */\n      tag_168\n      jump\t// in\n    tag_215:\n        /* \"#utility.yul\":179:182   */\n      dup3\n        /* \"#utility.yul\":172:206   */\n      mstore\n        /* \"#utility.yul\":103:212   */\n      pop\n      pop\n      jump\t// out\n        /* \"#utility.yul\":218:428   */\n    tag_24:\n        /* \"#utility.yul\":305:309   */\n      0x00\n        /* \"#utility.yul\":343:345   */\n      0x20\n        /* \"#utility.yul\":332:341   */\n      dup3\n        /* \"#utility.yul\":328:346   */\n      add\n        /* \"#utility.yul\":320:346   */\n      swap1\n      pop\n        /* \"#utility.yul\":356:421   */\n      tag_217\n        /* \"#utility.yul\":418:419   */\n      0x00\n        /* \"#utility.yul\":407:416   */\n      dup4\n        /* \"#utility.yul\":403:420   */\n      add\n        /* \"#utility.yul\":394:400   */\n      dup5\n        /* \"#utility.yul\":356:421   */\n      tag_169\n      jump\t// in\n    tag_217:\n        /* \"#utility.yul\":218:428   */\n      swap3\n      swap2\n      pop\n      pop\n      jump\t// out\n        /* \"#utility.yul\":434:511   */\n    tag_170:\n        /* \"#utility.yul\":471:478   */\n      0x00\n        /* \"#utility.yul\":500:505   */\n      dup2\n        /* \"#utility.yul\":489:505   */\n      swap1\n      pop\n        /* \"#utility.yul\":434:511   */\n      swap2\n      swap1\n      pop\n      jump\t// out\n        /* \"#utility.yul\":517:635   */\n    tag_171:\n        /* \"#utility.yul\":604:628   */\n      tag_220\n        /* \"#utility.yul\":622:627   */\n      dup2\n        /* \"#utility.yul\":604:628   */\n      tag_170\n      jump\t// in\n    tag_220:\n        /* \"#utility.yul\":599:602   */\n      dup3\n        /* \"#utility.yul\":592:629   */\n      mstore\n        /* \"#utility.yul\":517:635   */\n      pop\n      pop\n      jump\t// out\n        /* \"#utility.yul\":641:863   */\n    tag_29:\n        /* \"#utility.yul\":734:738   */\n      0x00\n        /* \"#utility.yul\":772:774   */\n      0x20\n        /* \"#utility.yul\":761:770   */\n      dup3\n        /* \"#utility.yul\":757:775   */\n      add\n        /* \"#utility.yul\":749:775   */\n      swap1\n      pop\n        /* \"#utility.yul\":785:856   */\n      tag_222\n        /* \"#utility.yul\":853:854   */\n      0x00\n        /* \"#utility.yul\":842:851   */\n      dup4\n        /* \"#utility.yul\":838:855   */\n      add\n        /* \"#utility.yul\":829:835   */\n      dup5\n        /* \"#utility.yul\":785:856   */\n      tag_171\n      jump\t// in\n    tag_222:\n        /* \"#utility.yul\":641:863   */\n      swap3\n      swap2\n      pop\n      pop\n      jump\t// out\n        /* \"#utility.yul\":869:995   */\n    tag_172:\n        /* \"#utility.yul\":906:913   */\n      0x00\n        /* \"#utility.yul\":946:988   */\n      0xffffffffffffffffffffffffffffffffffffffff\n        /* \"#utility.yul\":939:944   */\n      dup3\n        /* \"#utility.yul\":935:989   */\n      and\n        /* \"#utility.yul\":924:989   */\n      swap1\n      pop\n        /* \"#utility.yul\":869:995   */\n      swap2\n      swap1\n      pop\n      jump\t// out\n        /* \"#utility.yul\":1001:1105   */\n    tag_173:\n        /* \"#utility.yul\":1046:1053   */\n      0x00\n        /* \"#utility.yul\":1075:1099   */\n      tag_225\n        /* \"#utility.yul\":1093:1098   */\n      dup3\n        /* \"#utility.yul\":1075:1099   */\n      tag_172\n      jump\t// in\n    tag_225:\n        /* \"#utility.yul\":1064:1099   */\n      swap1\n      pop\n        /* \"#utility.yul\":1001:1105   */\n      swap2\n      swap1\n      pop\n      jump\t// out\n        /* \"#utility.yul\":1111:1253   */\n    tag_174:\n        /* \"#utility.yul\":1214:1246   */\n      tag_227\n        /* \"#utility.yul\":1240:1245   */\n      dup2\n        /* \"#utility.yul\":1214:1246   */\n      tag_173\n      jump\t// in\n    tag_227:\n        /* \"#utility.yul\":1209:1212   */\n      dup3\n        /* \"#utility.yul\":1202:1247   */\n      mstore\n        /* \"#utility.yul\":1111:1253   */\n      pop\n      pop\n      jump\t// out\n        /* \"#utility.yul\":1259:1513   */\n    tag_38:\n        /* \"#utility.yul\":1368:1372   */\n      0x00\n        /* \"#utility.yul\":1406:1408   */\n      0x20\n        /* \"#utility.yul\":1395:1404   */\n      dup3\n        /* \"#utility.yul\":1391:1409   */\n      add\n        /* \"#utility.yul\":1383:1409   */\n      swap1\n      pop\n        /* \"#utility.yul\":1419:1506   */\n      tag_229\n        /* \"#utility.yul\":1503:1504   */\n      0x00\n        /* \"#utility.yul\":1492:1501   */\n      dup4\n        /* \"#utility.yul\":1488:1505   */\n      add\n        /* \"#utility.yul\":1479:1485   */\n      dup5\n        /* \"#utility.yul\":1419:1506   */\n      tag_174\n      jump\t// in\n    tag_229:\n        /* \"#utility.yul\":1259:1513   */\n      swap3\n      swap2\n      pop\n      pop\n      jump\t// out\n        /* \"#utility.yul\":1600:1717   */\n    tag_176:\n        /* \"#utility.yul\":1709:1710   */\n      0x00\n        /* \"#utility.yul\":1706:1707   */\n      dup1\n        /* \"#utility.yul\":1699:1711   */\n      revert\n        /* \"#utility.yul\":1846:1968   */\n    tag_178:\n        /* \"#utility.yul\":1919:1943   */\n      tag_234\n        /* \"#utility.yul\":1937:1942   */\n      dup2\n        /* \"#utility.yul\":1919:1943   */\n      tag_170\n      jump\t// in\n    tag_234:\n        /* \"#utility.yul\":1912:1917   */\n      dup2\n        /* \"#utility.yul\":1909:1944   */\n      eq\n        /* \"#utility.yul\":1899:1962   */\n      tag_235\n      jumpi\n        /* \"#utility.yul\":1958:1959   */\n      0x00\n        /* \"#utility.yul\":1955:1956   */\n      dup1\n        /* \"#utility.yul\":1948:1960   */\n      revert\n        /* \"#utility.yul\":1899:1962   */\n    tag_235:\n        /* \"#utility.yul\":1846:1968   */\n      pop\n      jump\t// out\n        /* \"#utility.yul\":1974:2113   */\n    tag_179:\n        /* \"#utility.yul\":2020:2025   */\n      0x00\n        /* \"#utility.yul\":2058:2064   */\n      dup2\n        /* \"#utility.yul\":2045:2065   */\n      calldataload\n        /* \"#utility.yul\":2036:2065   */\n      swap1\n      pop\n        /* \"#utility.yul\":2074:2107   */\n      tag_237\n        /* \"#utility.yul\":2101:2106   */\n      dup2\n        /* \"#utility.yul\":2074:2107   */\n      tag_178\n      jump\t// in\n    tag_237:\n        /* \"#utility.yul\":1974:2113   */\n      swap3\n      swap2\n      pop\n      pop\n      jump\t// out\n        /* \"#utility.yul\":2119:2196   */\n    tag_180:\n        /* \"#utility.yul\":2156:2163   */\n      0x00\n        /* \"#utility.yul\":2185:2190   */\n      dup2\n        /* \"#utility.yul\":2174:2190   */\n      swap1\n      pop\n        /* \"#utility.yul\":2119:2196   */\n      swap2\n      swap1\n      pop\n      jump\t// out\n        /* \"#utility.yul\":2202:2324   */\n    tag_181:\n        /* \"#utility.yul\":2275:2299   */\n      tag_240\n        /* \"#utility.yul\":2293:2298   */\n      dup2\n        /* \"#utility.yul\":2275:2299   */\n      tag_180\n      jump\t// in\n    tag_240:\n        /* \"#utility.yul\":2268:2273   */\n      dup2\n        /* \"#utility.yul\":2265:2300   */\n      eq\n        /* \"#utility.yul\":2255:2318   */\n      tag_241\n      jumpi\n        /* \"#utility.yul\":2314:2315   */\n      0x00\n        /* \"#utility.yul\":2311:2312   */\n      dup1\n        /* \"#utility.yul\":2304:2316   */\n      revert\n        /* \"#utility.yul\":2255:2318   */\n    tag_241:\n        /* \"#utility.yul\":2202:2324   */\n      pop\n      jump\t// out\n        /* \"#utility.yul\":2330:2469   */\n    tag_182:\n        /* \"#utility.yul\":2376:2381   */\n      0x00\n        /* \"#utility.yul\":2414:2420   */\n      dup2\n        /* \"#utility.yul\":2401:2421   */\n      calldataload\n        /* \"#utility.yul\":2392:2421   */\n      swap1\n      pop\n        /* \"#utility.yul\":2430:2463   */\n      tag_243\n        /* \"#utility.yul\":2457:2462   */\n      dup2\n        /* \"#utility.yul\":2430:2463   */\n      tag_181\n      jump\t// in\n    tag_243:\n        /* \"#utility.yul\":2330:2469   */\n      swap3\n      swap2\n      pop\n      pop\n      jump\t// out\n        /* \"#utility.yul\":2475:2949   */\n    tag_42:\n        /* \"#utility.yul\":2543:2549   */\n      0x00\n        /* \"#utility.yul\":2551:2557   */\n      dup1\n        /* \"#utility.yul\":2600:2602   */\n      0x40\n        /* \"#utility.yul\":2588:2597   */\n      dup4\n        /* \"#utility.yul\":2579:2586   */\n      dup6\n        /* \"#utility.yul\":2575:2598   */\n      sub\n        /* \"#utility.yul\":2571:2603   */\n      slt\n        /* \"#utility.yul\":2568:2687   */\n      iszero\n      tag_245\n      jumpi\n        /* \"#utility.yul\":2606:2685   */\n      tag_246\n      tag_176\n      jump\t// in\n    tag_246:\n        /* \"#utility.yul\":2568:2687   */\n    tag_245:\n        /* \"#utility.yul\":2726:2727   */\n      0x00\n        /* \"#utility.yul\":2751:2804   */\n      tag_247\n        /* \"#utility.yul\":2796:2803   */\n      dup6\n        /* \"#utility.yul\":2787:2793   */\n      dup3\n        /* \"#utility.yul\":2776:2785   */\n      dup7\n        /* \"#utility.yul\":2772:2794   */\n      add\n        /* \"#utility.yul\":2751:2804   */\n      tag_179\n      jump\t// in\n    tag_247:\n        /* \"#utility.yul\":2741:2804   */\n      swap3\n      pop\n        /* \"#utility.yul\":2697:2814   */\n      pop\n        /* \"#utility.yul\":2853:2855   */\n      0x20\n        /* \"#utility.yul\":2879:2932   */\n      tag_248\n        /* \"#utility.yul\":2924:2931   */\n      dup6\n        /* \"#utility.yul\":2915:2921   */\n      dup3\n        /* \"#utility.yul\":2904:2913   */\n      dup7\n        /* \"#utility.yul\":2900:2922   */\n      add\n        /* \"#utility.yul\":2879:2932   */\n      tag_182\n      jump\t// in\n    tag_248:\n        /* \"#utility.yul\":2869:2932   */\n      swap2\n      pop\n        /* \"#utility.yul\":2824:2942   */\n      pop\n        /* \"#utility.yul\":2475:2949   */\n      swap3\n      pop\n      swap3\n      swap1\n      pop\n      jump\t// out\n        /* \"#utility.yul\":2955:3051   */\n    tag_183:\n        /* \"#utility.yul\":2992:2999   */\n      0x00\n        /* \"#utility.yul\":3021:3045   */\n      tag_250\n        /* \"#utility.yul\":3039:3044   */\n      dup3\n        /* \"#utility.yul\":3021:3045   */\n      tag_172\n      jump\t// in\n    tag_250:\n        /* \"#utility.yul\":3010:3045   */\n      swap1\n      pop\n        /* \"#utility.yul\":2955:3051   */\n      swap2\n      swap1\n      pop\n      jump\t// out\n        /* \"#utility.yul\":3057:3179   */\n    tag_184:\n        /* \"#utility.yul\":3130:3154   */\n      tag_252\n        /* \"#utility.yul\":3148:3153   */\n      dup2\n        /* \"#utility.yul\":3130:3154   */\n      tag_183\n      jump\t// in\n    tag_252:\n        /* \"#utility.yul\":3123:3128   */\n      dup2\n        /* \"#utility.yul\":3120:3155   */\n      eq\n        /* \"#utility.yul\":3110:3173   */\n      tag_253\n      jumpi\n        /* \"#utility.yul\":3169:3170   */\n      0x00\n        /* \"#utility.yul\":3166:3167   */\n      dup1\n        /* \"#utility.yul\":3159:3171   */\n      revert\n        /* \"#utility.yul\":3110:3173   */\n    tag_253:\n        /* \"#utility.yul\":3057:3179   */\n      pop\n      jump\t// out\n        /* \"#utility.yul\":3185:3324   */\n    tag_185:\n        /* \"#utility.yul\":3231:3236   */\n      0x00\n        /* \"#utility.yul\":3269:3275   */\n      dup2\n        /* \"#utility.yul\":3256:3276   */\n      calldataload\n        /* \"#utility.yul\":3247:3276   */\n      swap1\n      pop\n        /* \"#utility.yul\":3285:3318   */\n      tag_255\n        /* \"#utility.yul\":3312:3317   */\n      dup2\n        /* \"#utility.yul\":3285:3318   */\n      tag_184\n      jump\t// in\n    tag_255:\n        /* \"#utility.yul\":3185:3324   */\n      swap3\n      swap2\n      pop\n      pop\n      jump\t// out\n        /* \"#utility.yul\":3330:3659   */\n    tag_55:\n        /* \"#utility.yul\":3389:3395   */\n      0x00\n        /* \"#utility.yul\":3438:3440   */\n      0x20\n        /* \"#utility.yul\":3426:3435   */\n      dup3\n        /* \"#utility.yul\":3417:3424   */\n      dup5\n        /* \"#utility.yul\":3413:3436   */\n      sub\n        /* \"#utility.yul\":3409:3441   */\n      slt\n        /* \"#utility.yul\":3406:3525   */\n      iszero\n      tag_257\n      jumpi\n        /* \"#utility.yul\":3444:3523   */\n      tag_258\n      tag_176\n      jump\t// in\n    tag_258:\n        /* \"#utility.yul\":3406:3525   */\n    tag_257:\n        /* \"#utility.yul\":3564:3565   */\n      0x00\n        /* \"#utility.yul\":3589:3642   */\n      tag_259\n        /* \"#utility.yul\":3634:3641   */\n      dup5\n        /* \"#utility.yul\":3625:3631   */\n      dup3\n        /* \"#utility.yul\":3614:3623   */\n      dup6\n        /* \"#utility.yul\":3610:3632   */\n      add\n        /* \"#utility.yul\":3589:3642   */\n      tag_185\n      jump\t// in\n    tag_259:\n        /* \"#utility.yul\":3579:3642   */\n      swap2\n      pop\n        /* \"#utility.yul\":3535:3652   */\n      pop\n        /* \"#utility.yul\":3330:3659   */\n      swap3\n      swap2\n      pop\n      pop\n      jump\t// out\n        /* \"#utility.yul\":3665:3783   */\n    tag_186:\n        /* \"#utility.yul\":3752:3776   */\n      tag_261\n        /* \"#utility.yul\":3770:3775   */\n      dup2\n        /* \"#utility.yul\":3752:3776   */\n      tag_180\n      jump\t// in\n    tag_261:\n        /* \"#utility.yul\":3747:3750   */\n      dup3\n        /* \"#utility.yul\":3740:3777   */\n      mstore\n        /* \"#utility.yul\":3665:3783   */\n      pop\n      pop\n      jump\t// out\n        /* \"#utility.yul\":3789:4121   */\n    tag_58:\n        /* \"#utility.yul\":3910:3914   */\n      0x00\n        /* \"#utility.yul\":3948:3950   */\n      0x40\n        /* \"#utility.yul\":3937:3946   */\n      dup3\n        /* \"#utility.yul\":3933:3951   */\n      add\n        /* \"#utility.yul\":3925:3951   */\n      swap1\n      pop\n        /* \"#utility.yul\":3961:4032   */\n      tag_263\n        /* \"#utility.yul\":4029:4030   */\n      0x00\n        /* \"#utility.yul\":4018:4027   */\n      dup4\n        /* \"#utility.yul\":4014:4031   */\n      add\n        /* \"#utility.yul\":4005:4011   */\n      dup6\n        /* \"#utility.yul\":3961:4032   */\n      tag_186\n      jump\t// in\n    tag_263:\n        /* \"#utility.yul\":4042:4114   */\n      tag_264\n        /* \"#utility.yul\":4110:4112   */\n      0x20\n        /* \"#utility.yul\":4099:4108   */\n      dup4\n        /* \"#utility.yul\":4095:4113   */\n      add\n        /* \"#utility.yul\":4086:4092   */\n      dup5\n        /* \"#utility.yul\":4042:4114   */\n      tag_171\n      jump\t// in\n    tag_264:\n        /* \"#utility.yul\":3789:4121   */\n      swap4\n      swap3\n      pop\n      pop\n      pop\n      jump\t// out\n        /* \"#utility.yul\":4127:4456   */\n    tag_65:\n        /* \"#utility.yul\":4186:4192   */\n      0x00\n        /* \"#utility.yul\":4235:4237   */\n      0x20\n        /* \"#utility.yul\":4223:4232   */\n      dup3\n        /* \"#utility.yul\":4214:4221   */\n      dup5\n        /* \"#utility.yul\":4210:4233   */\n      sub\n        /* \"#utility.yul\":4206:4238   */\n      slt\n        /* \"#utility.yul\":4203:4322   */\n      iszero\n      tag_266\n      jumpi\n        /* \"#utility.yul\":4241:4320   */\n      tag_267\n      tag_176\n      jump\t// in\n    tag_267:\n        /* \"#utility.yul\":4203:4322   */\n    tag_266:\n        /* \"#utility.yul\":4361:4362   */\n      0x00\n        /* \"#utility.yul\":4386:4439   */\n      tag_268\n        /* \"#utility.yul\":4431:4438   */\n      dup5\n        /* \"#utility.yul\":4422:4428   */\n      dup3\n        /* \"#utility.yul\":4411:4420   */\n      dup6\n        /* \"#utility.yul\":4407:4429   */\n      add\n        /* \"#utility.yul\":4386:4439   */\n      tag_182\n      jump\t// in\n    tag_268:\n        /* \"#utility.yul\":4376:4439   */\n      swap2\n      pop\n        /* \"#utility.yul\":4332:4449   */\n      pop\n        /* \"#utility.yul\":4127:4456   */\n      swap3\n      swap2\n      pop\n      pop\n      jump\t// out\n        /* \"#utility.yul\":4462:4642   */\n    tag_187:\n        /* \"#utility.yul\":4510:4587   */\n      0x4e487b7100000000000000000000000000000000000000000000000000000000\n        /* \"#utility.yul\":4507:4508   */\n      0x00\n        /* \"#utility.yul\":4500:4588   */\n      mstore\n        /* \"#utility.yul\":4607:4611   */\n      0x11\n        /* \"#utility.yul\":4604:4605   */\n      0x04\n        /* \"#utility.yul\":4597:4612   */\n      mstore\n        /* \"#utility.yul\":4631:4635   */\n      0x24\n        /* \"#utility.yul\":4628:4629   */\n      0x00\n        /* \"#utility.yul\":4621:4636   */\n      revert\n        /* \"#utility.yul\":4648:4839   */\n    tag_83:\n        /* \"#utility.yul\":4688:4691   */\n      0x00\n        /* \"#utility.yul\":4707:4727   */\n      tag_271\n        /* \"#utility.yul\":4725:4726   */\n      dup3\n        /* \"#utility.yul\":4707:4727   */\n      tag_170\n      jump\t// in\n    tag_271:\n        /* \"#utility.yul\":4702:4727   */\n      swap2\n      pop\n        /* \"#utility.yul\":4741:4761   */\n      tag_272\n        /* \"#utility.yul\":4759:4760   */\n      dup4\n        /* \"#utility.yul\":4741:4761   */\n      tag_170\n      jump\t// in\n    tag_272:\n        /* \"#utility.yul\":4736:4761   */\n      swap3\n      pop\n        /* \"#utility.yul\":4784:4785   */\n      dup3\n        /* \"#utility.yul\":4781:4782   */\n      dup3\n        /* \"#utility.yul\":4777:4786   */\n      add\n        /* \"#utility.yul\":4770:4786   */\n      swap1\n      pop\n        /* \"#utility.yul\":4805:4808   */\n      dup1\n        /* \"#utility.yul\":4802:4803   */\n      dup3\n        /* \"#utility.yul\":4799:4809   */\n      gt\n        /* \"#utility.yul\":4796:4832   */\n      iszero\n      tag_273\n      jumpi\n        /* \"#utility.yul\":4812:4830   */\n      tag_274\n      tag_187\n      jump\t// in\n    tag_274:\n        /* \"#utility.yul\":4796:4832   */\n    tag_273:\n        /* \"#utility.yul\":4648:4839   */\n      swap3\n      swap2\n      pop\n      pop\n      jump\t// out\n        /* \"#utility.yul\":4845:5014   */\n    tag_188:\n        /* \"#utility.yul\":4929:4940   */\n      0x00\n        /* \"#utility.yul\":4963:4969   */\n      dup3\n        /* \"#utility.yul\":4958:4961   */\n      dup3\n        /* \"#utility.yul\":4951:4970   */\n      mstore\n        /* \"#utility.yul\":5003:5007   */\n      0x20\n        /* \"#utility.yul\":4998:5001   */\n      dup3\n        /* \"#utility.yul\":4994:5008   */\n      add\n        /* \"#utility.yul\":4979:5008   */\n      swap1\n      pop\n        /* \"#utility.yul\":4845:5014   */\n      swap3\n      swap2\n      pop\n      pop\n      jump\t// out\n        /* \"#utility.yul\":5020:5185   */\n    tag_189:\n        /* \"#utility.yul\":5160:5177   */\n      0x4e6f206f6e652072657665616c65640000000000000000000000000000000000\n        /* \"#utility.yul\":5156:5157   */\n      0x00\n        /* \"#utility.yul\":5148:5154   */\n      dup3\n        /* \"#utility.yul\":5144:5158   */\n      add\n        /* \"#utility.yul\":5137:5178   */\n      mstore\n        /* \"#utility.yul\":5020:5185   */\n      pop\n      jump\t// out\n        /* \"#utility.yul\":5191:5557   */\n    tag_190:\n        /* \"#utility.yul\":5333:5336   */\n      0x00\n        /* \"#utility.yul\":5354:5421   */\n      tag_278\n        /* \"#utility.yul\":5418:5420   */\n      0x0f\n        /* \"#utility.yul\":5413:5416   */\n      dup4\n        /* \"#utility.yul\":5354:5421   */\n      tag_188\n      jump\t// in\n    tag_278:\n        /* \"#utility.yul\":5347:5421   */\n      swap2\n      pop\n        /* \"#utility.yul\":5430:5523   */\n      tag_279\n        /* \"#utility.yul\":5519:5522   */\n      dup3\n        /* \"#utility.yul\":5430:5523   */\n      tag_189\n      jump\t// in\n    tag_279:\n        /* \"#utility.yul\":5548:5550   */\n      0x20\n        /* \"#utility.yul\":5543:5546   */\n      dup3\n        /* \"#utility.yul\":5539:5551   */\n      add\n        /* \"#utility.yul\":5532:5551   */\n      swap1\n      pop\n        /* \"#utility.yul\":5191:5557   */\n      swap2\n      swap1\n      pop\n      jump\t// out\n        /* \"#utility.yul\":5563:5982   */\n    tag_88:\n        /* \"#utility.yul\":5729:5733   */\n      0x00\n        /* \"#utility.yul\":5767:5769   */\n      0x20\n        /* \"#utility.yul\":5756:5765   */\n      dup3\n        /* \"#utility.yul\":5752:5770   */\n      add\n        /* \"#utility.yul\":5744:5770   */\n      swap1\n      pop\n        /* \"#utility.yul\":5816:5825   */\n      dup2\n        /* \"#utility.yul\":5810:5814   */\n      dup2\n        /* \"#utility.yul\":5806:5826   */\n      sub\n        /* \"#utility.yul\":5802:5803   */\n      0x00\n        /* \"#utility.yul\":5791:5800   */\n      dup4\n        /* \"#utility.yul\":5787:5804   */\n      add\n        /* \"#utility.yul\":5780:5827   */\n      mstore\n        /* \"#utility.yul\":5844:5975   */\n      tag_281\n        /* \"#utility.yul\":5970:5974   */\n      dup2\n        /* \"#utility.yul\":5844:5975   */\n      tag_190\n      jump\t// in\n    tag_281:\n        /* \"#utility.yul\":5836:5975   */\n      swap1\n      pop\n        /* \"#utility.yul\":5563:5982   */\n      swap2\n      swap1\n      pop\n      jump\t// out\n        /* \"#utility.yul\":5988:6158   */\n    tag_191:\n        /* \"#utility.yul\":6128:6150   */\n      0x506c617965722031206469646e277420706c6179000000000000000000000000\n        /* \"#utility.yul\":6124:6125   */\n      0x00\n        /* \"#utility.yul\":6116:6122   */\n      dup3\n        /* \"#utility.yul\":6112:6126   */\n      add\n        /* \"#utility.yul\":6105:6151   */\n      mstore\n        /* \"#utility.yul\":5988:6158   */\n      pop\n      jump\t// out\n        /* \"#utility.yul\":6164:6530   */\n    tag_192:\n        /* \"#utility.yul\":6306:6309   */\n      0x00\n        /* \"#utility.yul\":6327:6394   */\n      tag_284\n        /* \"#utility.yul\":6391:6393   */\n      0x14\n        /* \"#utility.yul\":6386:6389   */\n      dup4\n        /* \"#utility.yul\":6327:6394   */\n      tag_188\n      jump\t// in\n    tag_284:\n        /* \"#utility.yul\":6320:6394   */\n      swap2\n      pop\n        /* \"#utility.yul\":6403:6496   */\n      tag_285\n        /* \"#utility.yul\":6492:6495   */\n      dup3\n        /* \"#utility.yul\":6403:6496   */\n      tag_191\n      jump\t// in\n    tag_285:\n        /* \"#utility.yul\":6521:6523   */\n      0x20\n        /* \"#utility.yul\":6516:6519   */\n      dup3\n        /* \"#utility.yul\":6512:6524   */\n      add\n        /* \"#utility.yul\":6505:6524   */\n      swap1\n      pop\n        /* \"#utility.yul\":6164:6530   */\n      swap2\n      swap1\n      pop\n      jump\t// out\n        /* \"#utility.yul\":6536:6955   */\n    tag_91:\n        /* \"#utility.yul\":6702:6706   */\n      0x00\n        /* \"#utility.yul\":6740:6742   */\n      0x20\n        /* \"#utility.yul\":6729:6738   */\n      dup3\n        /* \"#utility.yul\":6725:6743   */\n      add\n        /* \"#utility.yul\":6717:6743   */\n      swap1\n      pop\n        /* \"#utility.yul\":6789:6798   */\n      dup2\n        /* \"#utility.yul\":6783:6787   */\n      dup2\n        /* \"#utility.yul\":6779:6799   */\n      sub\n        /* \"#utility.yul\":6775:6776   */\n      0x00\n        /* \"#utility.yul\":6764:6773   */\n      dup4\n        /* \"#utility.yul\":6760:6777   */\n      add\n        /* \"#utility.yul\":6753:6800   */\n      mstore\n        /* \"#utility.yul\":6817:6948   */\n      tag_287\n        /* \"#utility.yul\":6943:6947   */\n      dup2\n        /* \"#utility.yul\":6817:6948   */\n      tag_192\n      jump\t// in\n    tag_287:\n        /* \"#utility.yul\":6809:6948   */\n      swap1\n      pop\n        /* \"#utility.yul\":6536:6955   */\n      swap2\n      swap1\n      pop\n      jump\t// out\n        /* \"#utility.yul\":6961:7131   */\n    tag_193:\n        /* \"#utility.yul\":7101:7123   */\n      0x506c617965722032206469646e277420706c6179000000000000000000000000\n        /* \"#utility.yul\":7097:7098   */\n      0x00\n        /* \"#utility.yul\":7089:7095   */\n      dup3\n        /* \"#utility.yul\":7085:7099   */\n      add\n        /* \"#utility.yul\":7078:7124   */\n      mstore\n        /* \"#utility.yul\":6961:7131   */\n      pop\n      jump\t// out\n        /* \"#utility.yul\":7137:7503   */\n    tag_194:\n        /* \"#utility.yul\":7279:7282   */\n      0x00\n        /* \"#utility.yul\":7300:7367   */\n      tag_290\n        /* \"#utility.yul\":7364:7366   */\n      0x14\n        /* \"#utility.yul\":7359:7362   */\n      dup4\n        /* \"#utility.yul\":7300:7367   */\n      tag_188\n      jump\t// in\n    tag_290:\n        /* \"#utility.yul\":7293:7367   */\n      swap2\n      pop\n        /* \"#utility.yul\":7376:7469   */\n      tag_291\n        /* \"#utility.yul\":7465:7468   */\n      dup3\n        /* \"#utility.yul\":7376:7469   */\n      tag_193\n      jump\t// in\n    tag_291:\n        /* \"#utility.yul\":7494:7496   */\n      0x20\n        /* \"#utility.yul\":7489:7492   */\n      dup3\n        /* \"#utility.yul\":7485:7497   */\n      add\n        /* \"#utility.yul\":7478:7497   */\n      swap1\n      pop\n        /* \"#utility.yul\":7137:7503   */\n      swap2\n      swap1\n      pop\n      jump\t// out\n        /* \"#utility.yul\":7509:7928   */\n    tag_97:\n        /* \"#utility.yul\":7675:7679   */\n      0x00\n        /* \"#utility.yul\":7713:7715   */\n      0x20\n        /* \"#utility.yul\":7702:7711   */\n      dup3\n        /* \"#utility.yul\":7698:7716   */\n      add\n        /* \"#utility.yul\":7690:7716   */\n      swap1\n      pop\n        /* \"#utility.yul\":7762:7771   */\n      dup2\n        /* \"#utility.yul\":7756:7760   */\n      dup2\n        /* \"#utility.yul\":7752:7772   */\n      sub\n        /* \"#utility.yul\":7748:7749   */\n      0x00\n        /* \"#utility.yul\":7737:7746   */\n      dup4\n        /* \"#utility.yul\":7733:7750   */\n      add\n        /* \"#utility.yul\":7726:7773   */\n      mstore\n        /* \"#utility.yul\":7790:7921   */\n      tag_293\n        /* \"#utility.yul\":7916:7920   */\n      dup2\n        /* \"#utility.yul\":7790:7921   */\n      tag_194\n      jump\t// in\n    tag_293:\n        /* \"#utility.yul\":7782:7921   */\n      swap1\n      pop\n        /* \"#utility.yul\":7509:7928   */\n      swap2\n      swap1\n      pop\n      jump\t// out\n        /* \"#utility.yul\":7934:8088   */\n    tag_195:\n        /* \"#utility.yul\":8074:8080   */\n      0x4472617700000000000000000000000000000000000000000000000000000000\n        /* \"#utility.yul\":8070:8071   */\n      0x00\n        /* \"#utility.yul\":8062:8068   */\n      dup3\n        /* \"#utility.yul\":8058:8072   */\n      add\n        /* \"#utility.yul\":8051:8081   */\n      mstore\n        /* \"#utility.yul\":7934:8088   */\n      pop\n      jump\t// out\n        /* \"#utility.yul\":8094:8459   */\n    tag_196:\n        /* \"#utility.yul\":8236:8239   */\n      0x00\n        /* \"#utility.yul\":8257:8323   */\n      tag_296\n        /* \"#utility.yul\":8321:8322   */\n      0x04\n        /* \"#utility.yul\":8316:8319   */\n      dup4\n        /* \"#utility.yul\":8257:8323   */\n      tag_188\n      jump\t// in\n    tag_296:\n        /* \"#utility.yul\":8250:8323   */\n      swap2\n      pop\n        /* \"#utility.yul\":8332:8425   */\n      tag_297\n        /* \"#utility.yul\":8421:8424   */\n      dup3\n        /* \"#utility.yul\":8332:8425   */\n      tag_195\n      jump\t// in\n    tag_297:\n        /* \"#utility.yul\":8450:8452   */\n      0x20\n        /* \"#utility.yul\":8445:8448   */\n      dup3\n        /* \"#utility.yul\":8441:8453   */\n      add\n        /* \"#utility.yul\":8434:8453   */\n      swap1\n      pop\n        /* \"#utility.yul\":8094:8459   */\n      swap2\n      swap1\n      pop\n      jump\t// out\n        /* \"#utility.yul\":8465:8884   */\n    tag_103:\n        /* \"#utility.yul\":8631:8635   */\n      0x00\n        /* \"#utility.yul\":8669:8671   */\n      0x20\n        /* \"#utility.yul\":8658:8667   */\n      dup3\n        /* \"#utility.yul\":8654:8672   */\n      add\n        /* \"#utility.yul\":8646:8672   */\n      swap1\n      pop\n        /* \"#utility.yul\":8718:8727   */\n      dup2\n        /* \"#utility.yul\":8712:8716   */\n      dup2\n        /* \"#utility.yul\":8708:8728   */\n      sub\n        /* \"#utility.yul\":8704:8705   */\n      0x00\n        /* \"#utility.yul\":8693:8702   */\n      dup4\n        /* \"#utility.yul\":8689:8706   */\n      add\n        /* \"#utility.yul\":8682:8729   */\n      mstore\n        /* \"#utility.yul\":8746:8877   */\n      tag_299\n        /* \"#utility.yul\":8872:8876   */\n      dup2\n        /* \"#utility.yul\":8746:8877   */\n      tag_196\n      jump\t// in\n    tag_299:\n        /* \"#utility.yul\":8738:8877   */\n      swap1\n      pop\n        /* \"#utility.yul\":8465:8884   */\n      swap2\n      swap1\n      pop\n      jump\t// out\n        /* \"#utility.yul\":8890:9070   */\n    tag_197:\n        /* \"#utility.yul\":8938:9015   */\n      0x4e487b7100000000000000000000000000000000000000000000000000000000\n        /* \"#utility.yul\":8935:8936   */\n      0x00\n        /* \"#utility.yul\":8928:9016   */\n      mstore\n        /* \"#utility.yul\":9035:9039   */\n      0x12\n        /* \"#utility.yul\":9032:9033   */\n      0x04\n        /* \"#utility.yul\":9025:9040   */\n      mstore\n        /* \"#utility.yul\":9059:9063   */\n      0x24\n        /* \"#utility.yul\":9056:9057   */\n      0x00\n        /* \"#utility.yul\":9049:9064   */\n      revert\n        /* \"#utility.yul\":9076:9261   */\n    tag_105:\n        /* \"#utility.yul\":9116:9117   */\n      0x00\n        /* \"#utility.yul\":9133:9153   */\n      tag_302\n        /* \"#utility.yul\":9151:9152   */\n      dup3\n        /* \"#utility.yul\":9133:9153   */\n      tag_170\n      jump\t// in\n    tag_302:\n        /* \"#utility.yul\":9128:9153   */\n      swap2\n      pop\n        /* \"#utility.yul\":9167:9187   */\n      tag_303\n        /* \"#utility.yul\":9185:9186   */\n      dup4\n        /* \"#utility.yul\":9167:9187   */\n      tag_170\n      jump\t// in\n    tag_303:\n        /* \"#utility.yul\":9162:9187   */\n      swap3\n      pop\n        /* \"#utility.yul\":9206:9207   */\n      dup3\n        /* \"#utility.yul\":9196:9231   */\n      tag_304\n      jumpi\n        /* \"#utility.yul\":9211:9229   */\n      tag_305\n      tag_197\n      jump\t// in\n    tag_305:\n        /* \"#utility.yul\":9196:9231   */\n    tag_304:\n        /* \"#utility.yul\":9253:9254   */\n      dup3\n        /* \"#utility.yul\":9250:9251   */\n      dup3\n        /* \"#utility.yul\":9246:9255   */\n      div\n        /* \"#utility.yul\":9241:9255   */\n      swap1\n      pop\n        /* \"#utility.yul\":9076:9261   */\n      swap3\n      swap2\n      pop\n      pop\n      jump\t// out\n        /* \"#utility.yul\":9267:9430   */\n    tag_198:\n        /* \"#utility.yul\":9407:9422   */\n      0x506c6179657220312077696e7300000000000000000000000000000000000000\n        /* \"#utility.yul\":9403:9404   */\n      0x00\n        /* \"#utility.yul\":9395:9401   */\n      dup3\n        /* \"#utility.yul\":9391:9405   */\n      add\n        /* \"#utility.yul\":9384:9423   */\n      mstore\n        /* \"#utility.yul\":9267:9430   */\n      pop\n      jump\t// out\n        /* \"#utility.yul\":9436:9802   */\n    tag_199:\n        /* \"#utility.yul\":9578:9581   */\n      0x00\n        /* \"#utility.yul\":9599:9666   */\n      tag_308\n        /* \"#utility.yul\":9663:9665   */\n      0x0d\n        /* \"#utility.yul\":9658:9661   */\n      dup4\n        /* \"#utility.yul\":9599:9666   */\n      tag_188\n      jump\t// in\n    tag_308:\n        /* \"#utility.yul\":9592:9666   */\n      swap2\n      pop\n        /* \"#utility.yul\":9675:9768   */\n      tag_309\n        /* \"#utility.yul\":9764:9767   */\n      dup3\n        /* \"#utility.yul\":9675:9768   */\n      tag_198\n      jump\t// in\n    tag_309:\n        /* \"#utility.yul\":9793:9795   */\n      0x20\n        /* \"#utility.yul\":9788:9791   */\n      dup3\n        /* \"#utility.yul\":9784:9796   */\n      add\n        /* \"#utility.yul\":9777:9796   */\n      swap1\n      pop\n        /* \"#utility.yul\":9436:9802   */\n      swap2\n      swap1\n      pop\n      jump\t// out\n        /* \"#utility.yul\":9808:10227   */\n    tag_116:\n        /* \"#utility.yul\":9974:9978   */\n      0x00\n        /* \"#utility.yul\":10012:10014   */\n      0x20\n        /* \"#utility.yul\":10001:10010   */\n      dup3\n        /* \"#utility.yul\":9997:10015   */\n      add\n        /* \"#utility.yul\":9989:10015   */\n      swap1\n      pop\n        /* \"#utility.yul\":10061:10070   */\n      dup2\n        /* \"#utility.yul\":10055:10059   */\n      dup2\n        /* \"#utility.yul\":10051:10071   */\n      sub\n        /* \"#utility.yul\":10047:10048   */\n      0x00\n        /* \"#utility.yul\":10036:10045   */\n      dup4\n        /* \"#utility.yul\":10032:10049   */\n      add\n        /* \"#utility.yul\":10025:10072   */\n      mstore\n        /* \"#utility.yul\":10089:10220   */\n      tag_311\n        /* \"#utility.yul\":10215:10219   */\n      dup2\n        /* \"#utility.yul\":10089:10220   */\n      tag_199\n      jump\t// in\n    tag_311:\n        /* \"#utility.yul\":10081:10220   */\n      swap1\n      pop\n        /* \"#utility.yul\":9808:10227   */\n      swap2\n      swap1\n      pop\n      jump\t// out\n        /* \"#utility.yul\":10233:10396   */\n    tag_200:\n        /* \"#utility.yul\":10373:10388   */\n      0x506c6179657220322077696e7300000000000000000000000000000000000000\n        /* \"#utility.yul\":10369:10370   */\n      0x00\n        /* \"#utility.yul\":10361:10367   */\n      dup3\n        /* \"#utility.yul\":10357:10371   */\n      add\n        /* \"#utility.yul\":10350:10389   */\n      mstore\n        /* \"#utility.yul\":10233:10396   */\n      pop\n      jump\t// out\n        /* \"#utility.yul\":10402:10768   */\n    tag_201:\n        /* \"#utility.yul\":10544:10547   */\n      0x00\n        /* \"#utility.yul\":10565:10632   */\n      tag_314\n        /* \"#utility.yul\":10629:10631   */\n      0x0d\n        /* \"#utility.yul\":10624:10627   */\n      dup4\n        /* \"#utility.yul\":10565:10632   */\n      tag_188\n      jump\t// in\n    tag_314:\n        /* \"#utility.yul\":10558:10632   */\n      swap2\n      pop\n        /* \"#utility.yul\":10641:10734   */\n      tag_315\n        /* \"#utility.yul\":10730:10733   */\n      dup3\n        /* \"#utility.yul\":10641:10734   */\n      tag_200\n      jump\t// in\n    tag_315:\n        /* \"#utility.yul\":10759:10761   */\n      0x20\n        /* \"#utility.yul\":10754:10757   */\n      dup3\n        /* \"#utility.yul\":10750:10762   */\n      add\n        /* \"#utility.yul\":10743:10762   */\n      swap1\n      pop\n        /* \"#utility.yul\":10402:10768   */\n      swap2\n      swap1\n      pop\n      jump\t// out\n        /* \"#utility.yul\":10774:11193   */\n    tag_121:\n        /* \"#utility.yul\":10940:10944   */\n      0x00\n        /* \"#utility.yul\":10978:10980   */\n      0x20\n        /* \"#utility.yul\":10967:10976   */\n      dup3\n        /* \"#utility.yul\":10963:10981   */\n      add\n        /* \"#utility.yul\":10955:10981   */\n      swap1\n      pop\n        /* \"#utility.yul\":11027:11036   */\n      dup2\n        /* \"#utility.yul\":11021:11025   */\n      dup2\n        /* \"#utility.yul\":11017:11037   */\n      sub\n        /* \"#utility.yul\":11013:11014   */\n      0x00\n        /* \"#utility.yul\":11002:11011   */\n      dup4\n        /* \"#utility.yul\":10998:11015   */\n      add\n        /* \"#utility.yul\":10991:11038   */\n      mstore\n        /* \"#utility.yul\":11055:11186   */\n      tag_317\n        /* \"#utility.yul\":11181:11185   */\n      dup2\n        /* \"#utility.yul\":11055:11186   */\n      tag_201\n      jump\t// in\n    tag_317:\n        /* \"#utility.yul\":11047:11186   */\n      swap1\n      pop\n        /* \"#utility.yul\":10774:11193   */\n      swap2\n      swap1\n      pop\n      jump\t// out\n        /* \"#utility.yul\":11199:11366   */\n    tag_202:\n        /* \"#utility.yul\":11339:11358   */\n      0x416c72656164792052657665616c656421000000000000000000000000000000\n        /* \"#utility.yul\":11335:11336   */\n      0x00\n        /* \"#utility.yul\":11327:11333   */\n      dup3\n        /* \"#utility.yul\":11323:11337   */\n      add\n        /* \"#utility.yul\":11316:11359   */\n      mstore\n        /* \"#utility.yul\":11199:11366   */\n      pop\n      jump\t// out\n        /* \"#utility.yul\":11372:11738   */\n    tag_203:\n        /* \"#utility.yul\":11514:11517   */\n      0x00\n        /* \"#utility.yul\":11535:11602   */\n      tag_320\n        /* \"#utility.yul\":11599:11601   */\n      0x11\n        /* \"#utility.yul\":11594:11597   */\n      dup4\n        /* \"#utility.yul\":11535:11602   */\n      tag_188\n      jump\t// in\n    tag_320:\n        /* \"#utility.yul\":11528:11602   */\n      swap2\n      pop\n        /* \"#utility.yul\":11611:11704   */\n      tag_321\n        /* \"#utility.yul\":11700:11703   */\n      dup3\n        /* \"#utility.yul\":11611:11704   */\n      tag_202\n      jump\t// in\n    tag_321:\n        /* \"#utility.yul\":11729:11731   */\n      0x20\n        /* \"#utility.yul\":11724:11727   */\n      dup3\n        /* \"#utility.yul\":11720:11732   */\n      add\n        /* \"#utility.yul\":11713:11732   */\n      swap1\n      pop\n        /* \"#utility.yul\":11372:11738   */\n      swap2\n      swap1\n      pop\n      jump\t// out\n        /* \"#utility.yul\":11744:12163   */\n    tag_138:\n        /* \"#utility.yul\":11910:11914   */\n      0x00\n        /* \"#utility.yul\":11948:11950   */\n      0x20\n        /* \"#utility.yul\":11937:11946   */\n      dup3\n        /* \"#utility.yul\":11933:11951   */\n      add\n        /* \"#utility.yul\":11925:11951   */\n      swap1\n      pop\n        /* \"#utility.yul\":11997:12006   */\n      dup2\n        /* \"#utility.yul\":11991:11995   */\n      dup2\n        /* \"#utility.yul\":11987:12007   */\n      sub\n        /* \"#utility.yul\":11983:11984   */\n      0x00\n        /* \"#utility.yul\":11972:11981   */\n      dup4\n        /* \"#utility.yul\":11968:11985   */\n      add\n        /* \"#utility.yul\":11961:12008   */\n      mstore\n        /* \"#utility.yul\":12025:12156   */\n      tag_323\n        /* \"#utility.yul\":12151:12155   */\n      dup2\n        /* \"#utility.yul\":12025:12156   */\n      tag_203\n      jump\t// in\n    tag_323:\n        /* \"#utility.yul\":12017:12156   */\n      swap1\n      pop\n        /* \"#utility.yul\":11744:12163   */\n      swap2\n      swap1\n      pop\n      jump\t// out\n        /* \"#utility.yul\":12169:12333   */\n    tag_204:\n        /* \"#utility.yul\":12309:12325   */\n      0x496e76616c69642076616c756521000000000000000000000000000000000000\n        /* \"#utility.yul\":12305:12306   */\n      0x00\n        /* \"#utility.yul\":12297:12303   */\n      dup3\n        /* \"#utility.yul\":12293:12307   */\n      add\n        /* \"#utility.yul\":12286:12326   */\n      mstore\n        /* \"#utility.yul\":12169:12333   */\n      pop\n      jump\t// out\n        /* \"#utility.yul\":12339:12705   */\n    tag_205:\n        /* \"#utility.yul\":12481:12484   */\n      0x00\n        /* \"#utility.yul\":12502:12569   */\n      tag_326\n        /* \"#utility.yul\":12566:12568   */\n      0x0e\n        /* \"#utility.yul\":12561:12564   */\n      dup4\n        /* \"#utility.yul\":12502:12569   */\n      tag_188\n      jump\t// in\n    tag_326:\n        /* \"#utility.yul\":12495:12569   */\n      swap2\n      pop\n        /* \"#utility.yul\":12578:12671   */\n      tag_327\n        /* \"#utility.yul\":12667:12670   */\n      dup3\n        /* \"#utility.yul\":12578:12671   */\n      tag_204\n      jump\t// in\n    tag_327:\n        /* \"#utility.yul\":12696:12698   */\n      0x20\n        /* \"#utility.yul\":12691:12694   */\n      dup3\n        /* \"#utility.yul\":12687:12699   */\n      add\n        /* \"#utility.yul\":12680:12699   */\n      swap1\n      pop\n        /* \"#utility.yul\":12339:12705   */\n      swap2\n      swap1\n      pop\n      jump\t// out\n        /* \"#utility.yul\":12711:13130   */\n    tag_142:\n        /* \"#utility.yul\":12877:12881   */\n      0x00\n        /* \"#utility.yul\":12915:12917   */\n      0x20\n        /* \"#utility.yul\":12904:12913   */\n      dup3\n        /* \"#utility.yul\":12900:12918   */\n      add\n        /* \"#utility.yul\":12892:12918   */\n      swap1\n      pop\n        /* \"#utility.yul\":12964:12973   */\n      dup2\n        /* \"#utility.yul\":12958:12962   */\n      dup2\n        /* \"#utility.yul\":12954:12974   */\n      sub\n        /* \"#utility.yul\":12950:12951   */\n      0x00\n        /* \"#utility.yul\":12939:12948   */\n      dup4\n        /* \"#utility.yul\":12935:12952   */\n      add\n        /* \"#utility.yul\":12928:12975   */\n      mstore\n        /* \"#utility.yul\":12992:13123   */\n      tag_329\n        /* \"#utility.yul\":13118:13122   */\n      dup2\n        /* \"#utility.yul\":12992:13123   */\n      tag_205\n      jump\t// in\n    tag_329:\n        /* \"#utility.yul\":12984:13123   */\n      swap1\n      pop\n        /* \"#utility.yul\":12711:13130   */\n      swap2\n      swap1\n      pop\n      jump\t// out\n        /* \"#utility.yul\":13136:13215   */\n    tag_206:\n        /* \"#utility.yul\":13175:13182   */\n      0x00\n        /* \"#utility.yul\":13204:13209   */\n      dup2\n        /* \"#utility.yul\":13193:13209   */\n      swap1\n      pop\n        /* \"#utility.yul\":13136:13215   */\n      swap2\n      swap1\n      pop\n      jump\t// out\n        /* \"#utility.yul\":13221:13378   */\n    tag_207:\n        /* \"#utility.yul\":13326:13371   */\n      tag_332\n        /* \"#utility.yul\":13346:13370   */\n      tag_333\n        /* \"#utility.yul\":13364:13369   */\n      dup3\n        /* \"#utility.yul\":13346:13370   */\n      tag_170\n      jump\t// in\n    tag_333:\n        /* \"#utility.yul\":13326:13371   */\n      tag_206\n      jump\t// in\n    tag_332:\n        /* \"#utility.yul\":13321:13324   */\n      dup3\n        /* \"#utility.yul\":13314:13372   */\n      mstore\n        /* \"#utility.yul\":13221:13378   */\n      pop\n      pop\n      jump\t// out\n        /* \"#utility.yul\":13384:13463   */\n    tag_208:\n        /* \"#utility.yul\":13423:13430   */\n      0x00\n        /* \"#utility.yul\":13452:13457   */\n      dup2\n        /* \"#utility.yul\":13441:13457   */\n      swap1\n      pop\n        /* \"#utility.yul\":13384:13463   */\n      swap2\n      swap1\n      pop\n      jump\t// out\n        /* \"#utility.yul\":13469:13626   */\n    tag_209:\n        /* \"#utility.yul\":13574:13619   */\n      tag_336\n        /* \"#utility.yul\":13594:13618   */\n      tag_337\n        /* \"#utility.yul\":13612:13617   */\n      dup3\n        /* \"#utility.yul\":13594:13618   */\n      tag_180\n      jump\t// in\n    tag_337:\n        /* \"#utility.yul\":13574:13619   */\n      tag_208\n      jump\t// in\n    tag_336:\n        /* \"#utility.yul\":13569:13572   */\n      dup3\n        /* \"#utility.yul\":13562:13620   */\n      mstore\n        /* \"#utility.yul\":13469:13626   */\n      pop\n      pop\n      jump\t// out\n        /* \"#utility.yul\":13632:14029   */\n    tag_144:\n        /* \"#utility.yul\":13772:13775   */\n      0x00\n        /* \"#utility.yul\":13787:13862   */\n      tag_339\n        /* \"#utility.yul\":13858:13861   */\n      dup3\n        /* \"#utility.yul\":13849:13855   */\n      dup6\n        /* \"#utility.yul\":13787:13862   */\n      tag_207\n      jump\t// in\n    tag_339:\n        /* \"#utility.yul\":13887:13889   */\n      0x20\n        /* \"#utility.yul\":13882:13885   */\n      dup3\n        /* \"#utility.yul\":13878:13890   */\n      add\n        /* \"#utility.yul\":13871:13890   */\n      swap2\n      pop\n        /* \"#utility.yul\":13900:13975   */\n      tag_340\n        /* \"#utility.yul\":13971:13974   */\n      dup3\n        /* \"#utility.yul\":13962:13968   */\n      dup5\n        /* \"#utility.yul\":13900:13975   */\n      tag_209\n      jump\t// in\n    tag_340:\n        /* \"#utility.yul\":14000:14002   */\n      0x20\n        /* \"#utility.yul\":13995:13998   */\n      dup3\n        /* \"#utility.yul\":13991:14003   */\n      add\n        /* \"#utility.yul\":13984:14003   */\n      swap2\n      pop\n        /* \"#utility.yul\":14020:14023   */\n      dup2\n        /* \"#utility.yul\":14013:14023   */\n      swap1\n      pop\n        /* \"#utility.yul\":13632:14029   */\n      swap4\n      swap3\n      pop\n      pop\n      pop\n      jump\t// out\n        /* \"#utility.yul\":14035:14211   */\n    tag_210:\n        /* \"#utility.yul\":14175:14203   */\n      0x446f65736e2774206d61636820626c696e64656420506c617921000000000000\n        /* \"#utility.yul\":14171:14172   */\n      0x00\n        /* \"#utility.yul\":14163:14169   */\n      dup3\n        /* \"#utility.yul\":14159:14173   */\n      add\n        /* \"#utility.yul\":14152:14204   */\n      mstore\n        /* \"#utility.yul\":14035:14211   */\n      pop\n      jump\t// out\n        /* \"#utility.yul\":14217:14583   */\n    tag_211:\n        /* \"#utility.yul\":14359:14362   */\n      0x00\n        /* \"#utility.yul\":14380:14447   */\n      tag_343\n        /* \"#utility.yul\":14444:14446   */\n      0x1a\n        /* \"#utility.yul\":14439:14442   */\n      dup4\n        /* \"#utility.yul\":14380:14447   */\n      tag_188\n      jump\t// in\n    tag_343:\n        /* \"#utility.yul\":14373:14447   */\n      swap2\n      pop\n        /* \"#utility.yul\":14456:14549   */\n      tag_344\n        /* \"#utility.yul\":14545:14548   */\n      dup3\n        /* \"#utility.yul\":14456:14549   */\n      tag_210\n      jump\t// in\n    tag_344:\n        /* \"#utility.yul\":14574:14576   */\n      0x20\n        /* \"#utility.yul\":14569:14572   */\n      dup3\n        /* \"#utility.yul\":14565:14577   */\n      add\n        /* \"#utility.yul\":14558:14577   */\n      swap1\n      pop\n        /* \"#utility.yul\":14217:14583   */\n      swap2\n      swap1\n      pop\n      jump\t// out\n        /* \"#utility.yul\":14589:15008   */\n    tag_154:\n        /* \"#utility.yul\":14755:14759   */\n      0x00\n        /* \"#utility.yul\":14793:14795   */\n      0x20\n        /* \"#utility.yul\":14782:14791   */\n      dup3\n        /* \"#utility.yul\":14778:14796   */\n      add\n        /* \"#utility.yul\":14770:14796   */\n      swap1\n      pop\n        /* \"#utility.yul\":14842:14851   */\n      dup2\n        /* \"#utility.yul\":14836:14840   */\n      dup2\n        /* \"#utility.yul\":14832:14852   */\n      sub\n        /* \"#utility.yul\":14828:14829   */\n      0x00\n        /* \"#utility.yul\":14817:14826   */\n      dup4\n        /* \"#utility.yul\":14813:14830   */\n      add\n        /* \"#utility.yul\":14806:14853   */\n      mstore\n        /* \"#utility.yul\":14870:15001   */\n      tag_346\n        /* \"#utility.yul\":14996:15000   */\n      dup2\n        /* \"#utility.yul\":14870:15001   */\n      tag_211\n      jump\t// in\n    tag_346:\n        /* \"#utility.yul\":14862:15001   */\n      swap1\n      pop\n        /* \"#utility.yul\":14589:15008   */\n      swap2\n      swap1\n      pop\n      jump\t// out\n\n    auxdata: 0xa2646970667358221220c331b6cc4c360fb7b12eaf164894f93942309efbfa03b249e0731966f1a0e18164736f6c63430008170033\n}\n",
				"bytecode": {
					"linkReferences": {},
					"object": "608060405260405162001a8338038062001a838339818101604052810190620000299190620001c1565b825f806101000a81548173ffffffffffffffffffffffffffffffffffffffff021916908373ffffffffffffffffffffffffffffffffffffffff160217905550844262000076919062000272565b600381905550836003546200008c919062000272565b600481905550346005819055508160015f6101000a81548173ffffffffffffffffffffffffffffffffffffffff021916908373ffffffffffffffffffffffffffffffffffffffff1602179055508060025f6101000a81548173ffffffffffffffffffffffffffffffffffffffff021916908373ffffffffffffffffffffffffffffffffffffffff1602179055505050505050620002ac565b5f80fd5b5f819050919050565b6200013c8162000128565b811462000147575f80fd5b50565b5f815190506200015a8162000131565b92915050565b5f73ffffffffffffffffffffffffffffffffffffffff82169050919050565b5f6200018b8262000160565b9050919050565b6200019d816200017f565b8114620001a8575f80fd5b50565b5f81519050620001bb8162000192565b92915050565b5f805f805f60a08688031215620001dd57620001dc62000124565b5b5f620001ec888289016200014a565b9550506020620001ff888289016200014a565b94505060406200021288828901620001ab565b93505060606200022588828901620001ab565b92505060806200023888828901620001ab565b9150509295509295909350565b7f4e487b71000000000000000000000000000000000000000000000000000000005f52601160045260245ffd5b5f6200027e8262000128565b91506200028b8362000128565b9250828201905080821115620002a657620002a562000245565b5b92915050565b6117c980620002ba5f395ff3fe6080604052600436106100c1575f3560e01c806359a5f12d1161007e578063c78eb54611610058578063c78eb5461461023c578063c7a1865b14610266578063d30895e414610282578063edd66370146102ac576100c1565b806359a5f12d146101ab578063a6e66477146101d5578063ac71131a146101ff576100c1565b80630b8eebde146100c557806312fa6feb146100db578063228cb7331461010557806333d85d441461012f57806338af3eed146101595780634036778f14610183575b5f80fd5b3480156100d0575f80fd5b506100d96102d6565b005b3480156100e6575f80fd5b506100ef6109c0565b6040516100fc91906110ab565b60405180910390f35b348015610110575f80fd5b506101196109d2565b60405161012691906110dc565b60405180910390f35b34801561013a575f80fd5b506101436109d8565b60405161015091906110dc565b60405180910390f35b348015610164575f80fd5b5061016d6109de565b60405161017a9190611134565b60405180910390f35b34801561018e575f80fd5b506101a960048036038101906101a491906111ae565b610a01565b005b3480156101b6575f80fd5b506101bf610ef6565b6040516101cc9190611134565b60405180910390f35b3480156101e0575f80fd5b506101e9610f1b565b6040516101f691906110dc565b60405180910390f35b34801561020a575f80fd5b5061022560048036038101906102209190611227565b610f21565b604051610233929190611261565b60405180910390f35b348015610247575f80fd5b50610250610f41565b60405161025d91906110dc565b60405180910390f35b610280600480360381019061027b9190611288565b610f47565b005b34801561028d575f80fd5b50610296611006565b6040516102a39190611134565b60405180910390f35b3480156102b7575f80fd5b506102c061102b565b6040516102cd91906110dc565b60405180910390f35b60045480421161031d57806040517f2a35a32400000000000000000000000000000000000000000000000000000000815260040161031491906110dc565b60405180910390fd5b60085f9054906101000a900460ff1615610363576040517f7215832200000000000000000000000000000000000000000000000000000000815260040160405180910390fd5b600160085f6101000a81548160ff0219169083151502179055505f60065414801561038f57505f600754145b1561050b575f8054906101000a900473ffffffffffffffffffffffffffffffffffffffff1673ffffffffffffffffffffffffffffffffffffffff166108fc60095f60025f9054906101000a900473ffffffffffffffffffffffffffffffffffffffff1673ffffffffffffffffffffffffffffffffffffffff1673ffffffffffffffffffffffffffffffffffffffff1681526020019081526020015f206001015460095f60015f9054906101000a900473ffffffffffffffffffffffffffffffffffffffff1673ffffffffffffffffffffffffffffffffffffffff1673ffffffffffffffffffffffffffffffffffffffff1681526020019081526020015f206001015460055461049e91906112e0565b6104a891906112e0565b90811502906040515f60405180830381858888f193505050501580156104d0573d5f803e3d5ffd5b507f056e3895424a85ef26c4c78d9988dea28d97c77c140b919289906403e80171706040516104fe9061136d565b60405180910390a16109bd565b5f60065403610621577f056e3895424a85ef26c4c78d9988dea28d97c77c140b919289906403e8017170604051610541906113d5565b60405180910390a160025f9054906101000a900473ffffffffffffffffffffffffffffffffffffffff1673ffffffffffffffffffffffffffffffffffffffff166108fc60095f60015f9054906101000a900473ffffffffffffffffffffffffffffffffffffffff1673ffffffffffffffffffffffffffffffffffffffff1673ffffffffffffffffffffffffffffffffffffffff1681526020019081526020015f20600101546005546105f391906112e0565b90811502906040515f60405180830381858888f1935050505015801561061b573d5f803e3d5ffd5b506109bd565b5f60075403610737577f056e3895424a85ef26c4c78d9988dea28d97c77c140b919289906403e80171706040516106579061143d565b60405180910390a160015f9054906101000a900473ffffffffffffffffffffffffffffffffffffffff1673ffffffffffffffffffffffffffffffffffffffff166108fc60095f60025f9054906101000a900473ffffffffffffffffffffffffffffffffffffffff1673ffffffffffffffffffffffffffffffffffffffff1673ffffffffffffffffffffffffffffffffffffffff1681526020019081526020015f206001015460055461070991906112e0565b90811502906040515f60405180830381858888f19350505050158015610731573d5f803e3d5ffd5b506109bd565b60075460065403610862577f056e3895424a85ef26c4c78d9988dea28d97c77c140b919289906403e801717060405161076f906114a5565b60405180910390a160015f9054906101000a900473ffffffffffffffffffffffffffffffffffffffff1673ffffffffffffffffffffffffffffffffffffffff166108fc60026005546107c191906114f0565b90811502906040515f60405180830381858888f193505050501580156107e9573d5f803e3d5ffd5b5060025f9054906101000a900473ffffffffffffffffffffffffffffffffffffffff1673ffffffffffffffffffffffffffffffffffffffff166108fc600260055461083491906114f0565b90811502906040515f60405180830381858888f1935050505015801561085c573d5f803e3d5ffd5b506109bd565b600754600654146109bc57610875611031565b1561091b577f056e3895424a85ef26c4c78d9988dea28d97c77c140b919289906403e80171706040516108a79061156a565b60405180910390a160015f9054906101000a900473ffffffffffffffffffffffffffffffffffffffff1673ffffffffffffffffffffffffffffffffffffffff166108fc60055490811502906040515f60405180830381858888f19350505050158015610915573d5f803e3d5ffd5b506109bd565b7f056e3895424a85ef26c4c78d9988dea28d97c77c140b919289906403e8017170604051610948906115d2565b60405180910390a160025f9054906101000a900473ffffffffffffffffffffffffffffffffffffffff1673ffffffffffffffffffffffffffffffffffffffff166108fc60055490811502906040515f60405180830381858888f193505050501580156109b6573d5f803e3d5ffd5b506109bd565b5b50565b60085f9054906101000a900460ff1681565b60055481565b60065481565b5f8054906101000a900473ffffffffffffffffffffffffffffffffffffffff1681565b600354804211610a4857806040517f2a35a324000000000000000000000000000000000000000000000000000000008152600401610a3f91906110dc565b60405180910390fd5b600454804210610a8f57806040517f691e5682000000000000000000000000000000000000000000000000000000008152600401610a8691906110dc565b60405180910390fd5b60015f9054906101000a900473ffffffffffffffffffffffffffffffffffffffff1673ffffffffffffffffffffffffffffffffffffffff163373ffffffffffffffffffffffffffffffffffffffff1614158015610b39575060025f9054906101000a900473ffffffffffffffffffffffffffffffffffffffff1673ffffffffffffffffffffffffffffffffffffffff163373ffffffffffffffffffffffffffffffffffffffff1614155b610ef0573373ffffffffffffffffffffffffffffffffffffffff1660015f9054906101000a900473ffffffffffffffffffffffffffffffffffffffff1673ffffffffffffffffffffffffffffffffffffffff16148015610b9b57505f60065414155b80610c0057503373ffffffffffffffffffffffffffffffffffffffff1660025f9054906101000a900473ffffffffffffffffffffffffffffffffffffffff1673ffffffffffffffffffffffffffffffffffffffff16148015610bff57505f60075414155b5b15610c40576040517f08c379a0000000000000000000000000000000000000000000000000000000008152600401610c379061163a565b60405180910390fd5b6001841080610c4f5750600384115b15610c8f576040517f08c379a0000000000000000000000000000000000000000000000000000000008152600401610c86906116a2565b60405180910390fd5b8383604051602001610ca2929190611700565b6040516020818303038152906040528051906020012060095f3373ffffffffffffffffffffffffffffffffffffffff1673ffffffffffffffffffffffffffffffffffffffff1681526020019081526020015f205f015403610eb45760015f9054906101000a900473ffffffffffffffffffffffffffffffffffffffff1673ffffffffffffffffffffffffffffffffffffffff163373ffffffffffffffffffffffffffffffffffffffff1603610e02578360068190555060015f9054906101000a900473ffffffffffffffffffffffffffffffffffffffff1673ffffffffffffffffffffffffffffffffffffffff166108fc60095f3373ffffffffffffffffffffffffffffffffffffffff1673ffffffffffffffffffffffffffffffffffffffff1681526020019081526020015f206001015490811502906040515f60405180830381858888f19350505050158015610dfc573d5f803e3d5ffd5b50610eaf565b8360078190555060025f9054906101000a900473ffffffffffffffffffffffffffffffffffffffff1673ffffffffffffffffffffffffffffffffffffffff166108fc60095f3373ffffffffffffffffffffffffffffffffffffffff1673ffffffffffffffffffffffffffffffffffffffff1681526020019081526020015f206001015490811502906040515f60405180830381858888f19350505050158015610ead573d5f803e3d5ffd5b505b610eef565b6040517f08c379a0000000000000000000000000000000000000000000000000000000008152600401610ee690611775565b60405180910390fd5b5b50505050565b60025f9054906101000a900473ffffffffffffffffffffffffffffffffffffffff1681565b60045481565b6009602052805f5260405f205f91509050805f0154908060010154905082565b60075481565b600354804210610f8e57806040517f691e5682000000000000000000000000000000000000000000000000000000008152600401610f8591906110dc565b60405180910390fd5b6005543414610f9b575f80fd5b60405180604001604052808381526020013481525060095f3373ffffffffffffffffffffffffffffffffffffffff1673ffffffffffffffffffffffffffffffffffffffff1681526020019081526020015f205f820151815f0155602082015181600101559050505050565b60015f9054906101000a900473ffffffffffffffffffffffffffffffffffffffff1681565b60035481565b5f600160065414801561104657506003600754145b806110615750600260065414801561106057506001600754145b5b8061107c5750600360065414801561107b57506002600754145b5b1561108a576001905061108e565b5f90505b90565b5f8115159050919050565b6110a581611091565b82525050565b5f6020820190506110be5f83018461109c565b92915050565b5f819050919050565b6110d6816110c4565b82525050565b5f6020820190506110ef5f8301846110cd565b92915050565b5f73ffffffffffffffffffffffffffffffffffffffff82169050919050565b5f61111e826110f5565b9050919050565b61112e81611114565b82525050565b5f6020820190506111475f830184611125565b92915050565b5f80fd5b61115a816110c4565b8114611164575f80fd5b50565b5f8135905061117581611151565b92915050565b5f819050919050565b61118d8161117b565b8114611197575f80fd5b50565b5f813590506111a881611184565b92915050565b5f80604083850312156111c4576111c361114d565b5b5f6111d185828601611167565b92505060206111e28582860161119a565b9150509250929050565b5f6111f6826110f5565b9050919050565b611206816111ec565b8114611210575f80fd5b50565b5f81359050611221816111fd565b92915050565b5f6020828403121561123c5761123b61114d565b5b5f61124984828501611213565b91505092915050565b61125b8161117b565b82525050565b5f6040820190506112745f830185611252565b61128160208301846110cd565b9392505050565b5f6020828403121561129d5761129c61114d565b5b5f6112aa8482850161119a565b91505092915050565b7f4e487b71000000000000000000000000000000000000000000000000000000005f52601160045260245ffd5b5f6112ea826110c4565b91506112f5836110c4565b925082820190508082111561130d5761130c6112b3565b5b92915050565b5f82825260208201905092915050565b7f4e6f206f6e652072657665616c656400000000000000000000000000000000005f82015250565b5f611357600f83611313565b915061136282611323565b602082019050919050565b5f6020820190508181035f8301526113848161134b565b9050919050565b7f506c617965722031206469646e277420706c61790000000000000000000000005f82015250565b5f6113bf601483611313565b91506113ca8261138b565b602082019050919050565b5f6020820190508181035f8301526113ec816113b3565b9050919050565b7f506c617965722032206469646e277420706c61790000000000000000000000005f82015250565b5f611427601483611313565b9150611432826113f3565b602082019050919050565b5f6020820190508181035f8301526114548161141b565b9050919050565b7f44726177000000000000000000000000000000000000000000000000000000005f82015250565b5f61148f600483611313565b915061149a8261145b565b602082019050919050565b5f6020820190508181035f8301526114bc81611483565b9050919050565b7f4e487b71000000000000000000000000000000000000000000000000000000005f52601260045260245ffd5b5f6114fa826110c4565b9150611505836110c4565b925082611515576115146114c3565b5b828204905092915050565b7f506c6179657220312077696e73000000000000000000000000000000000000005f82015250565b5f611554600d83611313565b915061155f82611520565b602082019050919050565b5f6020820190508181035f83015261158181611548565b9050919050565b7f506c6179657220322077696e73000000000000000000000000000000000000005f82015250565b5f6115bc600d83611313565b91506115c782611588565b602082019050919050565b5f6020820190508181035f8301526115e9816115b0565b9050919050565b7f416c72656164792052657665616c6564210000000000000000000000000000005f82015250565b5f611624601183611313565b915061162f826115f0565b602082019050919050565b5f6020820190508181035f83015261165181611618565b9050919050565b7f496e76616c69642076616c7565210000000000000000000000000000000000005f82015250565b5f61168c600e83611313565b915061169782611658565b602082019050919050565b5f6020820190508181035f8301526116b981611680565b9050919050565b5f819050919050565b6116da6116d5826110c4565b6116c0565b82525050565b5f819050919050565b6116fa6116f58261117b565b6116e0565b82525050565b5f61170b82856116c9565b60208201915061171b82846116e9565b6020820191508190509392505050565b7f446f65736e2774206d61636820626c696e64656420506c6179210000000000005f82015250565b5f61175f601a83611313565b915061176a8261172b565b602082019050919050565b5f6020820190508181035f83015261178c81611753565b905091905056fea2646970667358221220c331b6cc4c360fb7b12eaf164894f93942309efbfa03b249e0731966f1a0e18164736f6c63430008170033",
					"opcodes": "PUSH1 0x80 PUSH1 0x40 MSTORE PUSH1 0x40 MLOAD PUSH3 0x1A83 CODESIZE SUB DUP1 PUSH3 0x1A83 DUP4 CODECOPY DUP2 DUP2 ADD PUSH1 0x40 MSTORE DUP2 ADD SWAP1 PUSH3 0x29 SWAP2 SWAP1 PUSH3 0x1C1 JUMP JUMPDEST DUP3 PUSH0 DUP1 PUSH2 0x100 EXP DUP2 SLOAD DUP2 PUSH20 0xFFFFFFFFFFFFFFFFFFFFFFFFFFFFFFFFFFFFFFFF MUL NOT AND SWAP1 DUP4 PUSH20 0xFFFFFFFFFFFFFFFFFFFFFFFFFFFFFFFFFFFFFFFF AND MUL OR SWAP1 SSTORE POP DUP5 TIMESTAMP PUSH3 0x76 SWAP2 SWAP1 PUSH3 0x272 JUMP JUMPDEST PUSH1 0x3 DUP2 SWAP1 SSTORE POP DUP4 PUSH1 0x3 SLOAD PUSH3 0x8C SWAP2 SWAP1 PUSH3 0x272 JUMP JUMPDEST PUSH1 0x4 DUP2 SWAP1 SSTORE POP CALLVALUE PUSH1 0x5 DUP2 SWAP1 SSTORE POP DUP2 PUSH1 0x1 PUSH0 PUSH2 0x100 EXP DUP2 SLOAD DUP2 PUSH20 0xFFFFFFFFFFFFFFFFFFFFFFFFFFFFFFFFFFFFFFFF MUL NOT AND SWAP1 DUP4 PUSH20 0xFFFFFFFFFFFFFFFFFFFFFFFFFFFFFFFFFFFFFFFF AND MUL OR SWAP1 SSTORE POP DUP1 PUSH1 0x2 PUSH0 PUSH2 0x100 EXP DUP2 SLOAD DUP2 PUSH20 0xFFFFFFFFFFFFFFFFFFFFFFFFFFFFFFFFFFFFFFFF MUL NOT AND SWAP1 DUP4 PUSH20 0xFFFFFFFFFFFFFFFFFFFFFFFFFFFFFFFFFFFFFFFF AND MUL OR SWAP1 SSTORE POP POP POP POP POP POP PUSH3 0x2AC JUMP JUMPDEST PUSH0 DUP1 REVERT JUMPDEST PUSH0 DUP2 SWAP1 POP SWAP2 SWAP1 POP JUMP JUMPDEST PUSH3 0x13C DUP2 PUSH3 0x128 JUMP JUMPDEST DUP2 EQ PUSH3 0x147 JUMPI PUSH0 DUP1 REVERT JUMPDEST POP JUMP JUMPDEST PUSH0 DUP2 MLOAD SWAP1 POP PUSH3 0x15A DUP2 PUSH3 0x131 JUMP JUMPDEST SWAP3 SWAP2 POP POP JUMP JUMPDEST PUSH0 PUSH20 0xFFFFFFFFFFFFFFFFFFFFFFFFFFFFFFFFFFFFFFFF DUP3 AND SWAP1 POP SWAP2 SWAP1 POP JUMP JUMPDEST PUSH0 PUSH3 0x18B DUP3 PUSH3 0x160 JUMP JUMPDEST SWAP1 POP SWAP2 SWAP1 POP JUMP JUMPDEST PUSH3 0x19D DUP2 PUSH3 0x17F JUMP JUMPDEST DUP2 EQ PUSH3 0x1A8 JUMPI PUSH0 DUP1 REVERT JUMPDEST POP JUMP JUMPDEST PUSH0 DUP2 MLOAD SWAP1 POP PUSH3 0x1BB DUP2 PUSH3 0x192 JUMP JUMPDEST SWAP3 SWAP2 POP POP JUMP JUMPDEST PUSH0 DUP1 PUSH0 DUP1 PUSH0 PUSH1 0xA0 DUP7 DUP9 SUB SLT ISZERO PUSH3 0x1DD JUMPI PUSH3 0x1DC PUSH3 0x124 JUMP JUMPDEST JUMPDEST PUSH0 PUSH3 0x1EC DUP9 DUP3 DUP10 ADD PUSH3 0x14A JUMP JUMPDEST SWAP6 POP POP PUSH1 0x20 PUSH3 0x1FF DUP9 DUP3 DUP10 ADD PUSH3 0x14A JUMP JUMPDEST SWAP5 POP POP PUSH1 0x40 PUSH3 0x212 DUP9 DUP3 DUP10 ADD PUSH3 0x1AB JUMP JUMPDEST SWAP4 POP POP PUSH1 0x60 PUSH3 0x225 DUP9 DUP3 DUP10 ADD PUSH3 0x1AB JUMP JUMPDEST SWAP3 POP POP PUSH1 0x80 PUSH3 0x238 DUP9 DUP3 DUP10 ADD PUSH3 0x1AB JUMP JUMPDEST SWAP2 POP POP SWAP3 SWAP6 POP SWAP3 SWAP6 SWAP1 SWAP4 POP JUMP JUMPDEST PUSH32 0x4E487B7100000000000000000000000000000000000000000000000000000000 PUSH0 MSTORE PUSH1 0x11 PUSH1 0x4 MSTORE PUSH1 0x24 PUSH0 REVERT JUMPDEST PUSH0 PUSH3 0x27E DUP3 PUSH3 0x128 JUMP JUMPDEST SWAP2 POP PUSH3 0x28B DUP4 PUSH3 0x128 JUMP JUMPDEST SWAP3 POP DUP3 DUP3 ADD SWAP1 POP DUP1 DUP3 GT ISZERO PUSH3 0x2A6 JUMPI PUSH3 0x2A5 PUSH3 0x245 JUMP JUMPDEST JUMPDEST SWAP3 SWAP2 POP POP JUMP JUMPDEST PUSH2 0x17C9 DUP1 PUSH3 0x2BA PUSH0 CODECOPY PUSH0 RETURN INVALID PUSH1 0x80 PUSH1 0x40 MSTORE PUSH1 0x4 CALLDATASIZE LT PUSH2 0xC1 JUMPI PUSH0 CALLDATALOAD PUSH1 0xE0 SHR DUP1 PUSH4 0x59A5F12D GT PUSH2 0x7E JUMPI DUP1 PUSH4 0xC78EB546 GT PUSH2 0x58 JUMPI DUP1 PUSH4 0xC78EB546 EQ PUSH2 0x23C JUMPI DUP1 PUSH4 0xC7A1865B EQ PUSH2 0x266 JUMPI DUP1 PUSH4 0xD30895E4 EQ PUSH2 0x282 JUMPI DUP1 PUSH4 0xEDD66370 EQ PUSH2 0x2AC JUMPI PUSH2 0xC1 JUMP JUMPDEST DUP1 PUSH4 0x59A5F12D EQ PUSH2 0x1AB JUMPI DUP1 PUSH4 0xA6E66477 EQ PUSH2 0x1D5 JUMPI DUP1 PUSH4 0xAC71131A EQ PUSH2 0x1FF JUMPI PUSH2 0xC1 JUMP JUMPDEST DUP1 PUSH4 0xB8EEBDE EQ PUSH2 0xC5 JUMPI DUP1 PUSH4 0x12FA6FEB EQ PUSH2 0xDB JUMPI DUP1 PUSH4 0x228CB733 EQ PUSH2 0x105 JUMPI DUP1 PUSH4 0x33D85D44 EQ PUSH2 0x12F JUMPI DUP1 PUSH4 0x38AF3EED EQ PUSH2 0x159 JUMPI DUP1 PUSH4 0x4036778F EQ PUSH2 0x183 JUMPI JUMPDEST PUSH0 DUP1 REVERT JUMPDEST CALLVALUE DUP1 ISZERO PUSH2 0xD0 JUMPI PUSH0 DUP1 REVERT JUMPDEST POP PUSH2 0xD9 PUSH2 0x2D6 JUMP JUMPDEST STOP JUMPDEST CALLVALUE DUP1 ISZERO PUSH2 0xE6 JUMPI PUSH0 DUP1 REVERT JUMPDEST POP PUSH2 0xEF PUSH2 0x9C0 JUMP JUMPDEST PUSH1 0x40 MLOAD PUSH2 0xFC SWAP2 SWAP1 PUSH2 0x10AB JUMP JUMPDEST PUSH1 0x40 MLOAD DUP1 SWAP2 SUB SWAP1 RETURN JUMPDEST CALLVALUE DUP1 ISZERO PUSH2 0x110 JUMPI PUSH0 DUP1 REVERT JUMPDEST POP PUSH2 0x119 PUSH2 0x9D2 JUMP JUMPDEST PUSH1 0x40 MLOAD PUSH2 0x126 SWAP2 SWAP1 PUSH2 0x10DC JUMP JUMPDEST PUSH1 0x40 MLOAD DUP1 SWAP2 SUB SWAP1 RETURN JUMPDEST CALLVALUE DUP1 ISZERO PUSH2 0x13A JUMPI PUSH0 DUP1 REVERT JUMPDEST POP PUSH2 0x143 PUSH2 0x9D8 JUMP JUMPDEST PUSH1 0x40 MLOAD PUSH2 0x150 SWAP2 SWAP1 PUSH2 0x10DC JUMP JUMPDEST PUSH1 0x40 MLOAD DUP1 SWAP2 SUB SWAP1 RETURN JUMPDEST CALLVALUE DUP1 ISZERO PUSH2 0x164 JUMPI PUSH0 DUP1 REVERT JUMPDEST POP PUSH2 0x16D PUSH2 0x9DE JUMP JUMPDEST PUSH1 0x40 MLOAD PUSH2 0x17A SWAP2 SWAP1 PUSH2 0x1134 JUMP JUMPDEST PUSH1 0x40 MLOAD DUP1 SWAP2 SUB SWAP1 RETURN JUMPDEST CALLVALUE DUP1 ISZERO PUSH2 0x18E JUMPI PUSH0 DUP1 REVERT JUMPDEST POP PUSH2 0x1A9 PUSH1 0x4 DUP1 CALLDATASIZE SUB DUP2 ADD SWAP1 PUSH2 0x1A4 SWAP2 SWAP1 PUSH2 0x11AE JUMP JUMPDEST PUSH2 0xA01 JUMP JUMPDEST STOP JUMPDEST CALLVALUE DUP1 ISZERO PUSH2 0x1B6 JUMPI PUSH0 DUP1 REVERT JUMPDEST POP PUSH2 0x1BF PUSH2 0xEF6 JUMP JUMPDEST PUSH1 0x40 MLOAD PUSH2 0x1CC SWAP2 SWAP1 PUSH2 0x1134 JUMP JUMPDEST PUSH1 0x40 MLOAD DUP1 SWAP2 SUB SWAP1 RETURN JUMPDEST CALLVALUE DUP1 ISZERO PUSH2 0x1E0 JUMPI PUSH0 DUP1 REVERT JUMPDEST POP PUSH2 0x1E9 PUSH2 0xF1B JUMP JUMPDEST PUSH1 0x40 MLOAD PUSH2 0x1F6 SWAP2 SWAP1 PUSH2 0x10DC JUMP JUMPDEST PUSH1 0x40 MLOAD DUP1 SWAP2 SUB SWAP1 RETURN JUMPDEST CALLVALUE DUP1 ISZERO PUSH2 0x20A JUMPI PUSH0 DUP1 REVERT JUMPDEST POP PUSH2 0x225 PUSH1 0x4 DUP1 CALLDATASIZE SUB DUP2 ADD SWAP1 PUSH2 0x220 SWAP2 SWAP1 PUSH2 0x1227 JUMP JUMPDEST PUSH2 0xF21 JUMP JUMPDEST PUSH1 0x40 MLOAD PUSH2 0x233 SWAP3 SWAP2 SWAP1 PUSH2 0x1261 JUMP JUMPDEST PUSH1 0x40 MLOAD DUP1 SWAP2 SUB SWAP1 RETURN JUMPDEST CALLVALUE DUP1 ISZERO PUSH2 0x247 JUMPI PUSH0 DUP1 REVERT JUMPDEST POP PUSH2 0x250 PUSH2 0xF41 JUMP JUMPDEST PUSH1 0x40 MLOAD PUSH2 0x25D SWAP2 SWAP1 PUSH2 0x10DC JUMP JUMPDEST PUSH1 0x40 MLOAD DUP1 SWAP2 SUB SWAP1 RETURN JUMPDEST PUSH2 0x280 PUSH1 0x4 DUP1 CALLDATASIZE SUB DUP2 ADD SWAP1 PUSH2 0x27B SWAP2 SWAP1 PUSH2 0x1288 JUMP JUMPDEST PUSH2 0xF47 JUMP JUMPDEST STOP JUMPDEST CALLVALUE DUP1 ISZERO PUSH2 0x28D JUMPI PUSH0 DUP1 REVERT JUMPDEST POP PUSH2 0x296 PUSH2 0x1006 JUMP JUMPDEST PUSH1 0x40 MLOAD PUSH2 0x2A3 SWAP2 SWAP1 PUSH2 0x1134 JUMP JUMPDEST PUSH1 0x40 MLOAD DUP1 SWAP2 SUB SWAP1 RETURN JUMPDEST CALLVALUE DUP1 ISZERO PUSH2 0x2B7 JUMPI PUSH0 DUP1 REVERT JUMPDEST POP PUSH2 0x2C0 PUSH2 0x102B JUMP JUMPDEST PUSH1 0x40 MLOAD PUSH2 0x2CD SWAP2 SWAP1 PUSH2 0x10DC JUMP JUMPDEST PUSH1 0x40 MLOAD DUP1 SWAP2 SUB SWAP1 RETURN JUMPDEST PUSH1 0x4 SLOAD DUP1 TIMESTAMP GT PUSH2 0x31D JUMPI DUP1 PUSH1 0x40 MLOAD PUSH32 0x2A35A32400000000000000000000000000000000000000000000000000000000 DUP2 MSTORE PUSH1 0x4 ADD PUSH2 0x314 SWAP2 SWAP1 PUSH2 0x10DC JUMP JUMPDEST PUSH1 0x40 MLOAD DUP1 SWAP2 SUB SWAP1 REVERT JUMPDEST PUSH1 0x8 PUSH0 SWAP1 SLOAD SWAP1 PUSH2 0x100 EXP SWAP1 DIV PUSH1 0xFF AND ISZERO PUSH2 0x363 JUMPI PUSH1 0x40 MLOAD PUSH32 0x7215832200000000000000000000000000000000000000000000000000000000 DUP2 MSTORE PUSH1 0x4 ADD PUSH1 0x40 MLOAD DUP1 SWAP2 SUB SWAP1 REVERT JUMPDEST PUSH1 0x1 PUSH1 0x8 PUSH0 PUSH2 0x100 EXP DUP2 SLOAD DUP2 PUSH1 0xFF MUL NOT AND SWAP1 DUP4 ISZERO ISZERO MUL OR SWAP1 SSTORE POP PUSH0 PUSH1 0x6 SLOAD EQ DUP1 ISZERO PUSH2 0x38F JUMPI POP PUSH0 PUSH1 0x7 SLOAD EQ JUMPDEST ISZERO PUSH2 0x50B JUMPI PUSH0 DUP1 SLOAD SWAP1 PUSH2 0x100 EXP SWAP1 DIV PUSH20 0xFFFFFFFFFFFFFFFFFFFFFFFFFFFFFFFFFFFFFFFF AND PUSH20 0xFFFFFFFFFFFFFFFFFFFFFFFFFFFFFFFFFFFFFFFF AND PUSH2 0x8FC PUSH1 0x9 PUSH0 PUSH1 0x2 PUSH0 SWAP1 SLOAD SWAP1 PUSH2 0x100 EXP SWAP1 DIV PUSH20 0xFFFFFFFFFFFFFFFFFFFFFFFFFFFFFFFFFFFFFFFF AND PUSH20 0xFFFFFFFFFFFFFFFFFFFFFFFFFFFFFFFFFFFFFFFF AND PUSH20 0xFFFFFFFFFFFFFFFFFFFFFFFFFFFFFFFFFFFFFFFF AND DUP2 MSTORE PUSH1 0x20 ADD SWAP1 DUP2 MSTORE PUSH1 0x20 ADD PUSH0 KECCAK256 PUSH1 0x1 ADD SLOAD PUSH1 0x9 PUSH0 PUSH1 0x1 PUSH0 SWAP1 SLOAD SWAP1 PUSH2 0x100 EXP SWAP1 DIV PUSH20 0xFFFFFFFFFFFFFFFFFFFFFFFFFFFFFFFFFFFFFFFF AND PUSH20 0xFFFFFFFFFFFFFFFFFFFFFFFFFFFFFFFFFFFFFFFF AND PUSH20 0xFFFFFFFFFFFFFFFFFFFFFFFFFFFFFFFFFFFFFFFF AND DUP2 MSTORE PUSH1 0x20 ADD SWAP1 DUP2 MSTORE PUSH1 0x20 ADD PUSH0 KECCAK256 PUSH1 0x1 ADD SLOAD PUSH1 0x5 SLOAD PUSH2 0x49E SWAP2 SWAP1 PUSH2 0x12E0 JUMP JUMPDEST PUSH2 0x4A8 SWAP2 SWAP1 PUSH2 0x12E0 JUMP JUMPDEST SWAP1 DUP2 ISZERO MUL SWAP1 PUSH1 0x40 MLOAD PUSH0 PUSH1 0x40 MLOAD DUP1 DUP4 SUB DUP2 DUP6 DUP9 DUP9 CALL SWAP4 POP POP POP POP ISZERO DUP1 ISZERO PUSH2 0x4D0 JUMPI RETURNDATASIZE PUSH0 DUP1 RETURNDATACOPY RETURNDATASIZE PUSH0 REVERT JUMPDEST POP PUSH32 0x56E3895424A85EF26C4C78D9988DEA28D97C77C140B919289906403E8017170 PUSH1 0x40 MLOAD PUSH2 0x4FE SWAP1 PUSH2 0x136D JUMP JUMPDEST PUSH1 0x40 MLOAD DUP1 SWAP2 SUB SWAP1 LOG1 PUSH2 0x9BD JUMP JUMPDEST PUSH0 PUSH1 0x6 SLOAD SUB PUSH2 0x621 JUMPI PUSH32 0x56E3895424A85EF26C4C78D9988DEA28D97C77C140B919289906403E8017170 PUSH1 0x40 MLOAD PUSH2 0x541 SWAP1 PUSH2 0x13D5 JUMP JUMPDEST PUSH1 0x40 MLOAD DUP1 SWAP2 SUB SWAP1 LOG1 PUSH1 0x2 PUSH0 SWAP1 SLOAD SWAP1 PUSH2 0x100 EXP SWAP1 DIV PUSH20 0xFFFFFFFFFFFFFFFFFFFFFFFFFFFFFFFFFFFFFFFF AND PUSH20 0xFFFFFFFFFFFFFFFFFFFFFFFFFFFFFFFFFFFFFFFF AND PUSH2 0x8FC PUSH1 0x9 PUSH0 PUSH1 0x1 PUSH0 SWAP1 SLOAD SWAP1 PUSH2 0x100 EXP SWAP1 DIV PUSH20 0xFFFFFFFFFFFFFFFFFFFFFFFFFFFFFFFFFFFFFFFF AND PUSH20 0xFFFFFFFFFFFFFFFFFFFFFFFFFFFFFFFFFFFFFFFF AND PUSH20 0xFFFFFFFFFFFFFFFFFFFFFFFFFFFFFFFFFFFFFFFF AND DUP2 MSTORE PUSH1 0x20 ADD SWAP1 DUP2 MSTORE PUSH1 0x20 ADD PUSH0 KECCAK256 PUSH1 0x1 ADD SLOAD PUSH1 0x5 SLOAD PUSH2 0x5F3 SWAP2 SWAP1 PUSH2 0x12E0 JUMP JUMPDEST SWAP1 DUP2 ISZERO MUL SWAP1 PUSH1 0x40 MLOAD PUSH0 PUSH1 0x40 MLOAD DUP1 DUP4 SUB DUP2 DUP6 DUP9 DUP9 CALL SWAP4 POP POP POP POP ISZERO DUP1 ISZERO PUSH2 0x61B JUMPI RETURNDATASIZE PUSH0 DUP1 RETURNDATACOPY RETURNDATASIZE PUSH0 REVERT JUMPDEST POP PUSH2 0x9BD JUMP JUMPDEST PUSH0 PUSH1 0x7 SLOAD SUB PUSH2 0x737 JUMPI PUSH32 0x56E3895424A85EF26C4C78D9988DEA28D97C77C140B919289906403E8017170 PUSH1 0x40 MLOAD PUSH2 0x657 SWAP1 PUSH2 0x143D JUMP JUMPDEST PUSH1 0x40 MLOAD DUP1 SWAP2 SUB SWAP1 LOG1 PUSH1 0x1 PUSH0 SWAP1 SLOAD SWAP1 PUSH2 0x100 EXP SWAP1 DIV PUSH20 0xFFFFFFFFFFFFFFFFFFFFFFFFFFFFFFFFFFFFFFFF AND PUSH20 0xFFFFFFFFFFFFFFFFFFFFFFFFFFFFFFFFFFFFFFFF AND PUSH2 0x8FC PUSH1 0x9 PUSH0 PUSH1 0x2 PUSH0 SWAP1 SLOAD SWAP1 PUSH2 0x100 EXP SWAP1 DIV PUSH20 0xFFFFFFFFFFFFFFFFFFFFFFFFFFFFFFFFFFFFFFFF AND PUSH20 0xFFFFFFFFFFFFFFFFFFFFFFFFFFFFFFFFFFFFFFFF AND PUSH20 0xFFFFFFFFFFFFFFFFFFFFFFFFFFFFFFFFFFFFFFFF AND DUP2 MSTORE PUSH1 0x20 ADD SWAP1 DUP2 MSTORE PUSH1 0x20 ADD PUSH0 KECCAK256 PUSH1 0x1 ADD SLOAD PUSH1 0x5 SLOAD PUSH2 0x709 SWAP2 SWAP1 PUSH2 0x12E0 JUMP JUMPDEST SWAP1 DUP2 ISZERO MUL SWAP1 PUSH1 0x40 MLOAD PUSH0 PUSH1 0x40 MLOAD DUP1 DUP4 SUB DUP2 DUP6 DUP9 DUP9 CALL SWAP4 POP POP POP POP ISZERO DUP1 ISZERO PUSH2 0x731 JUMPI RETURNDATASIZE PUSH0 DUP1 RETURNDATACOPY RETURNDATASIZE PUSH0 REVERT JUMPDEST POP PUSH2 0x9BD JUMP JUMPDEST PUSH1 0x7 SLOAD PUSH1 0x6 SLOAD SUB PUSH2 0x862 JUMPI PUSH32 0x56E3895424A85EF26C4C78D9988DEA28D97C77C140B919289906403E8017170 PUSH1 0x40 MLOAD PUSH2 0x76F SWAP1 PUSH2 0x14A5 JUMP JUMPDEST PUSH1 0x40 MLOAD DUP1 SWAP2 SUB SWAP1 LOG1 PUSH1 0x1 PUSH0 SWAP1 SLOAD SWAP1 PUSH2 0x100 EXP SWAP1 DIV PUSH20 0xFFFFFFFFFFFFFFFFFFFFFFFFFFFFFFFFFFFFFFFF AND PUSH20 0xFFFFFFFFFFFFFFFFFFFFFFFFFFFFFFFFFFFFFFFF AND PUSH2 0x8FC PUSH1 0x2 PUSH1 0x5 SLOAD PUSH2 0x7C1 SWAP2 SWAP1 PUSH2 0x14F0 JUMP JUMPDEST SWAP1 DUP2 ISZERO MUL SWAP1 PUSH1 0x40 MLOAD PUSH0 PUSH1 0x40 MLOAD DUP1 DUP4 SUB DUP2 DUP6 DUP9 DUP9 CALL SWAP4 POP POP POP POP ISZERO DUP1 ISZERO PUSH2 0x7E9 JUMPI RETURNDATASIZE PUSH0 DUP1 RETURNDATACOPY RETURNDATASIZE PUSH0 REVERT JUMPDEST POP PUSH1 0x2 PUSH0 SWAP1 SLOAD SWAP1 PUSH2 0x100 EXP SWAP1 DIV PUSH20 0xFFFFFFFFFFFFFFFFFFFFFFFFFFFFFFFFFFFFFFFF AND PUSH20 0xFFFFFFFFFFFFFFFFFFFFFFFFFFFFFFFFFFFFFFFF AND PUSH2 0x8FC PUSH1 0x2 PUSH1 0x5 SLOAD PUSH2 0x834 SWAP2 SWAP1 PUSH2 0x14F0 JUMP JUMPDEST SWAP1 DUP2 ISZERO MUL SWAP1 PUSH1 0x40 MLOAD PUSH0 PUSH1 0x40 MLOAD DUP1 DUP4 SUB DUP2 DUP6 DUP9 DUP9 CALL SWAP4 POP POP POP POP ISZERO DUP1 ISZERO PUSH2 0x85C JUMPI RETURNDATASIZE PUSH0 DUP1 RETURNDATACOPY RETURNDATASIZE PUSH0 REVERT JUMPDEST POP PUSH2 0x9BD JUMP JUMPDEST PUSH1 0x7 SLOAD PUSH1 0x6 SLOAD EQ PUSH2 0x9BC JUMPI PUSH2 0x875 PUSH2 0x1031 JUMP JUMPDEST ISZERO PUSH2 0x91B JUMPI PUSH32 0x56E3895424A85EF26C4C78D9988DEA28D97C77C140B919289906403E8017170 PUSH1 0x40 MLOAD PUSH2 0x8A7 SWAP1 PUSH2 0x156A JUMP JUMPDEST PUSH1 0x40 MLOAD DUP1 SWAP2 SUB SWAP1 LOG1 PUSH1 0x1 PUSH0 SWAP1 SLOAD SWAP1 PUSH2 0x100 EXP SWAP1 DIV PUSH20 0xFFFFFFFFFFFFFFFFFFFFFFFFFFFFFFFFFFFFFFFF AND PUSH20 0xFFFFFFFFFFFFFFFFFFFFFFFFFFFFFFFFFFFFFFFF AND PUSH2 0x8FC PUSH1 0x5 SLOAD SWAP1 DUP2 ISZERO MUL SWAP1 PUSH1 0x40 MLOAD PUSH0 PUSH1 0x40 MLOAD DUP1 DUP4 SUB DUP2 DUP6 DUP9 DUP9 CALL SWAP4 POP POP POP POP ISZERO DUP1 ISZERO PUSH2 0x915 JUMPI RETURNDATASIZE PUSH0 DUP1 RETURNDATACOPY RETURNDATASIZE PUSH0 REVERT JUMPDEST POP PUSH2 0x9BD JUMP JUMPDEST PUSH32 0x56E3895424A85EF26C4C78D9988DEA28D97C77C140B919289906403E8017170 PUSH1 0x40 MLOAD PUSH2 0x948 SWAP1 PUSH2 0x15D2 JUMP JUMPDEST PUSH1 0x40 MLOAD DUP1 SWAP2 SUB SWAP1 LOG1 PUSH1 0x2 PUSH0 SWAP1 SLOAD SWAP1 PUSH2 0x100 EXP SWAP1 DIV PUSH20 0xFFFFFFFFFFFFFFFFFFFFFFFFFFFFFFFFFFFFFFFF AND PUSH20 0xFFFFFFFFFFFFFFFFFFFFFFFFFFFFFFFFFFFFFFFF AND PUSH2 0x8FC PUSH1 0x5 SLOAD SWAP1 DUP2 ISZERO MUL SWAP1 PUSH1 0x40 MLOAD PUSH0 PUSH1 0x40 MLOAD DUP1 DUP4 SUB DUP2 DUP6 DUP9 DUP9 CALL SWAP4 POP POP POP POP ISZERO DUP1 ISZERO PUSH2 0x9B6 JUMPI RETURNDATASIZE PUSH0 DUP1 RETURNDATACOPY RETURNDATASIZE PUSH0 REVERT JUMPDEST POP PUSH2 0x9BD JUMP JUMPDEST JUMPDEST POP JUMP JUMPDEST PUSH1 0x8 PUSH0 SWAP1 SLOAD SWAP1 PUSH2 0x100 EXP SWAP1 DIV PUSH1 0xFF AND DUP2 JUMP JUMPDEST PUSH1 0x5 SLOAD DUP2 JUMP JUMPDEST PUSH1 0x6 SLOAD DUP2 JUMP JUMPDEST PUSH0 DUP1 SLOAD SWAP1 PUSH2 0x100 EXP SWAP1 DIV PUSH20 0xFFFFFFFFFFFFFFFFFFFFFFFFFFFFFFFFFFFFFFFF AND DUP2 JUMP JUMPDEST PUSH1 0x3 SLOAD DUP1 TIMESTAMP GT PUSH2 0xA48 JUMPI DUP1 PUSH1 0x40 MLOAD PUSH32 0x2A35A32400000000000000000000000000000000000000000000000000000000 DUP2 MSTORE PUSH1 0x4 ADD PUSH2 0xA3F SWAP2 SWAP1 PUSH2 0x10DC JUMP JUMPDEST PUSH1 0x40 MLOAD DUP1 SWAP2 SUB SWAP1 REVERT JUMPDEST PUSH1 0x4 SLOAD DUP1 TIMESTAMP LT PUSH2 0xA8F JUMPI DUP1 PUSH1 0x40 MLOAD PUSH32 0x691E568200000000000000000000000000000000000000000000000000000000 DUP2 MSTORE PUSH1 0x4 ADD PUSH2 0xA86 SWAP2 SWAP1 PUSH2 0x10DC JUMP JUMPDEST PUSH1 0x40 MLOAD DUP1 SWAP2 SUB SWAP1 REVERT JUMPDEST PUSH1 0x1 PUSH0 SWAP1 SLOAD SWAP1 PUSH2 0x100 EXP SWAP1 DIV PUSH20 0xFFFFFFFFFFFFFFFFFFFFFFFFFFFFFFFFFFFFFFFF AND PUSH20 0xFFFFFFFFFFFFFFFFFFFFFFFFFFFFFFFFFFFFFFFF AND CALLER PUSH20 0xFFFFFFFFFFFFFFFFFFFFFFFFFFFFFFFFFFFFFFFF AND EQ ISZERO DUP1 ISZERO PUSH2 0xB39 JUMPI POP PUSH1 0x2 PUSH0 SWAP1 SLOAD SWAP1 PUSH2 0x100 EXP SWAP1 DIV PUSH20 0xFFFFFFFFFFFFFFFFFFFFFFFFFFFFFFFFFFFFFFFF AND PUSH20 0xFFFFFFFFFFFFFFFFFFFFFFFFFFFFFFFFFFFFFFFF AND CALLER PUSH20 0xFFFFFFFFFFFFFFFFFFFFFFFFFFFFFFFFFFFFFFFF AND EQ ISZERO JUMPDEST PUSH2 0xEF0 JUMPI CALLER PUSH20 0xFFFFFFFFFFFFFFFFFFFFFFFFFFFFFFFFFFFFFFFF AND PUSH1 0x1 PUSH0 SWAP1 SLOAD SWAP1 PUSH2 0x100 EXP SWAP1 DIV PUSH20 0xFFFFFFFFFFFFFFFFFFFFFFFFFFFFFFFFFFFFFFFF AND PUSH20 0xFFFFFFFFFFFFFFFFFFFFFFFFFFFFFFFFFFFFFFFF AND EQ DUP1 ISZERO PUSH2 0xB9B JUMPI POP PUSH0 PUSH1 0x6 SLOAD EQ ISZERO JUMPDEST DUP1 PUSH2 0xC00 JUMPI POP CALLER PUSH20 0xFFFFFFFFFFFFFFFFFFFFFFFFFFFFFFFFFFFFFFFF AND PUSH1 0x2 PUSH0 SWAP1 SLOAD SWAP1 PUSH2 0x100 EXP SWAP1 DIV PUSH20 0xFFFFFFFFFFFFFFFFFFFFFFFFFFFFFFFFFFFFFFFF AND PUSH20 0xFFFFFFFFFFFFFFFFFFFFFFFFFFFFFFFFFFFFFFFF AND EQ DUP1 ISZERO PUSH2 0xBFF JUMPI POP PUSH0 PUSH1 0x7 SLOAD EQ ISZERO JUMPDEST JUMPDEST ISZERO PUSH2 0xC40 JUMPI PUSH1 0x40 MLOAD PUSH32 0x8C379A000000000000000000000000000000000000000000000000000000000 DUP2 MSTORE PUSH1 0x4 ADD PUSH2 0xC37 SWAP1 PUSH2 0x163A JUMP JUMPDEST PUSH1 0x40 MLOAD DUP1 SWAP2 SUB SWAP1 REVERT JUMPDEST PUSH1 0x1 DUP5 LT DUP1 PUSH2 0xC4F JUMPI POP PUSH1 0x3 DUP5 GT JUMPDEST ISZERO PUSH2 0xC8F JUMPI PUSH1 0x40 MLOAD PUSH32 0x8C379A000000000000000000000000000000000000000000000000000000000 DUP2 MSTORE PUSH1 0x4 ADD PUSH2 0xC86 SWAP1 PUSH2 0x16A2 JUMP JUMPDEST PUSH1 0x40 MLOAD DUP1 SWAP2 SUB SWAP1 REVERT JUMPDEST DUP4 DUP4 PUSH1 0x40 MLOAD PUSH1 0x20 ADD PUSH2 0xCA2 SWAP3 SWAP2 SWAP1 PUSH2 0x1700 JUMP JUMPDEST PUSH1 0x40 MLOAD PUSH1 0x20 DUP2 DUP4 SUB SUB DUP2 MSTORE SWAP1 PUSH1 0x40 MSTORE DUP1 MLOAD SWAP1 PUSH1 0x20 ADD KECCAK256 PUSH1 0x9 PUSH0 CALLER PUSH20 0xFFFFFFFFFFFFFFFFFFFFFFFFFFFFFFFFFFFFFFFF AND PUSH20 0xFFFFFFFFFFFFFFFFFFFFFFFFFFFFFFFFFFFFFFFF AND DUP2 MSTORE PUSH1 0x20 ADD SWAP1 DUP2 MSTORE PUSH1 0x20 ADD PUSH0 KECCAK256 PUSH0 ADD SLOAD SUB PUSH2 0xEB4 JUMPI PUSH1 0x1 PUSH0 SWAP1 SLOAD SWAP1 PUSH2 0x100 EXP SWAP1 DIV PUSH20 0xFFFFFFFFFFFFFFFFFFFFFFFFFFFFFFFFFFFFFFFF AND PUSH20 0xFFFFFFFFFFFFFFFFFFFFFFFFFFFFFFFFFFFFFFFF AND CALLER PUSH20 0xFFFFFFFFFFFFFFFFFFFFFFFFFFFFFFFFFFFFFFFF AND SUB PUSH2 0xE02 JUMPI DUP4 PUSH1 0x6 DUP2 SWAP1 SSTORE POP PUSH1 0x1 PUSH0 SWAP1 SLOAD SWAP1 PUSH2 0x100 EXP SWAP1 DIV PUSH20 0xFFFFFFFFFFFFFFFFFFFFFFFFFFFFFFFFFFFFFFFF AND PUSH20 0xFFFFFFFFFFFFFFFFFFFFFFFFFFFFFFFFFFFFFFFF AND PUSH2 0x8FC PUSH1 0x9 PUSH0 CALLER PUSH20 0xFFFFFFFFFFFFFFFFFFFFFFFFFFFFFFFFFFFFFFFF AND PUSH20 0xFFFFFFFFFFFFFFFFFFFFFFFFFFFFFFFFFFFFFFFF AND DUP2 MSTORE PUSH1 0x20 ADD SWAP1 DUP2 MSTORE PUSH1 0x20 ADD PUSH0 KECCAK256 PUSH1 0x1 ADD SLOAD SWAP1 DUP2 ISZERO MUL SWAP1 PUSH1 0x40 MLOAD PUSH0 PUSH1 0x40 MLOAD DUP1 DUP4 SUB DUP2 DUP6 DUP9 DUP9 CALL SWAP4 POP POP POP POP ISZERO DUP1 ISZERO PUSH2 0xDFC JUMPI RETURNDATASIZE PUSH0 DUP1 RETURNDATACOPY RETURNDATASIZE PUSH0 REVERT JUMPDEST POP PUSH2 0xEAF JUMP JUMPDEST DUP4 PUSH1 0x7 DUP2 SWAP1 SSTORE POP PUSH1 0x2 PUSH0 SWAP1 SLOAD SWAP1 PUSH2 0x100 EXP SWAP1 DIV PUSH20 0xFFFFFFFFFFFFFFFFFFFFFFFFFFFFFFFFFFFFFFFF AND PUSH20 0xFFFFFFFFFFFFFFFFFFFFFFFFFFFFFFFFFFFFFFFF AND PUSH2 0x8FC PUSH1 0x9 PUSH0 CALLER PUSH20 0xFFFFFFFFFFFFFFFFFFFFFFFFFFFFFFFFFFFFFFFF AND PUSH20 0xFFFFFFFFFFFFFFFFFFFFFFFFFFFFFFFFFFFFFFFF AND DUP2 MSTORE PUSH1 0x20 ADD SWAP1 DUP2 MSTORE PUSH1 0x20 ADD PUSH0 KECCAK256 PUSH1 0x1 ADD SLOAD SWAP1 DUP2 ISZERO MUL SWAP1 PUSH1 0x40 MLOAD PUSH0 PUSH1 0x40 MLOAD DUP1 DUP4 SUB DUP2 DUP6 DUP9 DUP9 CALL SWAP4 POP POP POP POP ISZERO DUP1 ISZERO PUSH2 0xEAD JUMPI RETURNDATASIZE PUSH0 DUP1 RETURNDATACOPY RETURNDATASIZE PUSH0 REVERT JUMPDEST POP JUMPDEST PUSH2 0xEEF JUMP JUMPDEST PUSH1 0x40 MLOAD PUSH32 0x8C379A000000000000000000000000000000000000000000000000000000000 DUP2 MSTORE PUSH1 0x4 ADD PUSH2 0xEE6 SWAP1 PUSH2 0x1775 JUMP JUMPDEST PUSH1 0x40 MLOAD DUP1 SWAP2 SUB SWAP1 REVERT JUMPDEST JUMPDEST POP POP POP POP JUMP JUMPDEST PUSH1 0x2 PUSH0 SWAP1 SLOAD SWAP1 PUSH2 0x100 EXP SWAP1 DIV PUSH20 0xFFFFFFFFFFFFFFFFFFFFFFFFFFFFFFFFFFFFFFFF AND DUP2 JUMP JUMPDEST PUSH1 0x4 SLOAD DUP2 JUMP JUMPDEST PUSH1 0x9 PUSH1 0x20 MSTORE DUP1 PUSH0 MSTORE PUSH1 0x40 PUSH0 KECCAK256 PUSH0 SWAP2 POP SWAP1 POP DUP1 PUSH0 ADD SLOAD SWAP1 DUP1 PUSH1 0x1 ADD SLOAD SWAP1 POP DUP3 JUMP JUMPDEST PUSH1 0x7 SLOAD DUP2 JUMP JUMPDEST PUSH1 0x3 SLOAD DUP1 TIMESTAMP LT PUSH2 0xF8E JUMPI DUP1 PUSH1 0x40 MLOAD PUSH32 0x691E568200000000000000000000000000000000000000000000000000000000 DUP2 MSTORE PUSH1 0x4 ADD PUSH2 0xF85 SWAP2 SWAP1 PUSH2 0x10DC JUMP JUMPDEST PUSH1 0x40 MLOAD DUP1 SWAP2 SUB SWAP1 REVERT JUMPDEST PUSH1 0x5 SLOAD CALLVALUE EQ PUSH2 0xF9B JUMPI PUSH0 DUP1 REVERT JUMPDEST PUSH1 0x40 MLOAD DUP1 PUSH1 0x40 ADD PUSH1 0x40 MSTORE DUP1 DUP4 DUP2 MSTORE PUSH1 0x20 ADD CALLVALUE DUP2 MSTORE POP PUSH1 0x9 PUSH0 CALLER PUSH20 0xFFFFFFFFFFFFFFFFFFFFFFFFFFFFFFFFFFFFFFFF AND PUSH20 0xFFFFFFFFFFFFFFFFFFFFFFFFFFFFFFFFFFFFFFFF AND DUP2 MSTORE PUSH1 0x20 ADD SWAP1 DUP2 MSTORE PUSH1 0x20 ADD PUSH0 KECCAK256 PUSH0 DUP3 ADD MLOAD DUP2 PUSH0 ADD SSTORE PUSH1 0x20 DUP3 ADD MLOAD DUP2 PUSH1 0x1 ADD SSTORE SWAP1 POP POP POP POP JUMP JUMPDEST PUSH1 0x1 PUSH0 SWAP1 SLOAD SWAP1 PUSH2 0x100 EXP SWAP1 DIV PUSH20 0xFFFFFFFFFFFFFFFFFFFFFFFFFFFFFFFFFFFFFFFF AND DUP2 JUMP JUMPDEST PUSH1 0x3 SLOAD DUP2 JUMP JUMPDEST PUSH0 PUSH1 0x1 PUSH1 0x6 SLOAD EQ DUP1 ISZERO PUSH2 0x1046 JUMPI POP PUSH1 0x3 PUSH1 0x7 SLOAD EQ JUMPDEST DUP1 PUSH2 0x1061 JUMPI POP PUSH1 0x2 PUSH1 0x6 SLOAD EQ DUP1 ISZERO PUSH2 0x1060 JUMPI POP PUSH1 0x1 PUSH1 0x7 SLOAD EQ JUMPDEST JUMPDEST DUP1 PUSH2 0x107C JUMPI POP PUSH1 0x3 PUSH1 0x6 SLOAD EQ DUP1 ISZERO PUSH2 0x107B JUMPI POP PUSH1 0x2 PUSH1 0x7 SLOAD EQ JUMPDEST JUMPDEST ISZERO PUSH2 0x108A JUMPI PUSH1 0x1 SWAP1 POP PUSH2 0x108E JUMP JUMPDEST PUSH0 SWAP1 POP JUMPDEST SWAP1 JUMP JUMPDEST PUSH0 DUP2 ISZERO ISZERO SWAP1 POP SWAP2 SWAP1 POP JUMP JUMPDEST PUSH2 0x10A5 DUP2 PUSH2 0x1091 JUMP JUMPDEST DUP3 MSTORE POP POP JUMP JUMPDEST PUSH0 PUSH1 0x20 DUP3 ADD SWAP1 POP PUSH2 0x10BE PUSH0 DUP4 ADD DUP5 PUSH2 0x109C JUMP JUMPDEST SWAP3 SWAP2 POP POP JUMP JUMPDEST PUSH0 DUP2 SWAP1 POP SWAP2 SWAP1 POP JUMP JUMPDEST PUSH2 0x10D6 DUP2 PUSH2 0x10C4 JUMP JUMPDEST DUP3 MSTORE POP POP JUMP JUMPDEST PUSH0 PUSH1 0x20 DUP3 ADD SWAP1 POP PUSH2 0x10EF PUSH0 DUP4 ADD DUP5 PUSH2 0x10CD JUMP JUMPDEST SWAP3 SWAP2 POP POP JUMP JUMPDEST PUSH0 PUSH20 0xFFFFFFFFFFFFFFFFFFFFFFFFFFFFFFFFFFFFFFFF DUP3 AND SWAP1 POP SWAP2 SWAP1 POP JUMP JUMPDEST PUSH0 PUSH2 0x111E DUP3 PUSH2 0x10F5 JUMP JUMPDEST SWAP1 POP SWAP2 SWAP1 POP JUMP JUMPDEST PUSH2 0x112E DUP2 PUSH2 0x1114 JUMP JUMPDEST DUP3 MSTORE POP POP JUMP JUMPDEST PUSH0 PUSH1 0x20 DUP3 ADD SWAP1 POP PUSH2 0x1147 PUSH0 DUP4 ADD DUP5 PUSH2 0x1125 JUMP JUMPDEST SWAP3 SWAP2 POP POP JUMP JUMPDEST PUSH0 DUP1 REVERT JUMPDEST PUSH2 0x115A DUP2 PUSH2 0x10C4 JUMP JUMPDEST DUP2 EQ PUSH2 0x1164 JUMPI PUSH0 DUP1 REVERT JUMPDEST POP JUMP JUMPDEST PUSH0 DUP2 CALLDATALOAD SWAP1 POP PUSH2 0x1175 DUP2 PUSH2 0x1151 JUMP JUMPDEST SWAP3 SWAP2 POP POP JUMP JUMPDEST PUSH0 DUP2 SWAP1 POP SWAP2 SWAP1 POP JUMP JUMPDEST PUSH2 0x118D DUP2 PUSH2 0x117B JUMP JUMPDEST DUP2 EQ PUSH2 0x1197 JUMPI PUSH0 DUP1 REVERT JUMPDEST POP JUMP JUMPDEST PUSH0 DUP2 CALLDATALOAD SWAP1 POP PUSH2 0x11A8 DUP2 PUSH2 0x1184 JUMP JUMPDEST SWAP3 SWAP2 POP POP JUMP JUMPDEST PUSH0 DUP1 PUSH1 0x40 DUP4 DUP6 SUB SLT ISZERO PUSH2 0x11C4 JUMPI PUSH2 0x11C3 PUSH2 0x114D JUMP JUMPDEST JUMPDEST PUSH0 PUSH2 0x11D1 DUP6 DUP3 DUP7 ADD PUSH2 0x1167 JUMP JUMPDEST SWAP3 POP POP PUSH1 0x20 PUSH2 0x11E2 DUP6 DUP3 DUP7 ADD PUSH2 0x119A JUMP JUMPDEST SWAP2 POP POP SWAP3 POP SWAP3 SWAP1 POP JUMP JUMPDEST PUSH0 PUSH2 0x11F6 DUP3 PUSH2 0x10F5 JUMP JUMPDEST SWAP1 POP SWAP2 SWAP1 POP JUMP JUMPDEST PUSH2 0x1206 DUP2 PUSH2 0x11EC JUMP JUMPDEST DUP2 EQ PUSH2 0x1210 JUMPI PUSH0 DUP1 REVERT JUMPDEST POP JUMP JUMPDEST PUSH0 DUP2 CALLDATALOAD SWAP1 POP PUSH2 0x1221 DUP2 PUSH2 0x11FD JUMP JUMPDEST SWAP3 SWAP2 POP POP JUMP JUMPDEST PUSH0 PUSH1 0x20 DUP3 DUP5 SUB SLT ISZERO PUSH2 0x123C JUMPI PUSH2 0x123B PUSH2 0x114D JUMP JUMPDEST JUMPDEST PUSH0 PUSH2 0x1249 DUP5 DUP3 DUP6 ADD PUSH2 0x1213 JUMP JUMPDEST SWAP2 POP POP SWAP3 SWAP2 POP POP JUMP JUMPDEST PUSH2 0x125B DUP2 PUSH2 0x117B JUMP JUMPDEST DUP3 MSTORE POP POP JUMP JUMPDEST PUSH0 PUSH1 0x40 DUP3 ADD SWAP1 POP PUSH2 0x1274 PUSH0 DUP4 ADD DUP6 PUSH2 0x1252 JUMP JUMPDEST PUSH2 0x1281 PUSH1 0x20 DUP4 ADD DUP5 PUSH2 0x10CD JUMP JUMPDEST SWAP4 SWAP3 POP POP POP JUMP JUMPDEST PUSH0 PUSH1 0x20 DUP3 DUP5 SUB SLT ISZERO PUSH2 0x129D JUMPI PUSH2 0x129C PUSH2 0x114D JUMP JUMPDEST JUMPDEST PUSH0 PUSH2 0x12AA DUP5 DUP3 DUP6 ADD PUSH2 0x119A JUMP JUMPDEST SWAP2 POP POP SWAP3 SWAP2 POP POP JUMP JUMPDEST PUSH32 0x4E487B7100000000000000000000000000000000000000000000000000000000 PUSH0 MSTORE PUSH1 0x11 PUSH1 0x4 MSTORE PUSH1 0x24 PUSH0 REVERT JUMPDEST PUSH0 PUSH2 0x12EA DUP3 PUSH2 0x10C4 JUMP JUMPDEST SWAP2 POP PUSH2 0x12F5 DUP4 PUSH2 0x10C4 JUMP JUMPDEST SWAP3 POP DUP3 DUP3 ADD SWAP1 POP DUP1 DUP3 GT ISZERO PUSH2 0x130D JUMPI PUSH2 0x130C PUSH2 0x12B3 JUMP JUMPDEST JUMPDEST SWAP3 SWAP2 POP POP JUMP JUMPDEST PUSH0 DUP3 DUP3 MSTORE PUSH1 0x20 DUP3 ADD SWAP1 POP SWAP3 SWAP2 POP POP JUMP JUMPDEST PUSH32 0x4E6F206F6E652072657665616C65640000000000000000000000000000000000 PUSH0 DUP3 ADD MSTORE POP JUMP JUMPDEST PUSH0 PUSH2 0x1357 PUSH1 0xF DUP4 PUSH2 0x1313 JUMP JUMPDEST SWAP2 POP PUSH2 0x1362 DUP3 PUSH2 0x1323 JUMP JUMPDEST PUSH1 0x20 DUP3 ADD SWAP1 POP SWAP2 SWAP1 POP JUMP JUMPDEST PUSH0 PUSH1 0x20 DUP3 ADD SWAP1 POP DUP2 DUP2 SUB PUSH0 DUP4 ADD MSTORE PUSH2 0x1384 DUP2 PUSH2 0x134B JUMP JUMPDEST SWAP1 POP SWAP2 SWAP1 POP JUMP JUMPDEST PUSH32 0x506C617965722031206469646E277420706C6179000000000000000000000000 PUSH0 DUP3 ADD MSTORE POP JUMP JUMPDEST PUSH0 PUSH2 0x13BF PUSH1 0x14 DUP4 PUSH2 0x1313 JUMP JUMPDEST SWAP2 POP PUSH2 0x13CA DUP3 PUSH2 0x138B JUMP JUMPDEST PUSH1 0x20 DUP3 ADD SWAP1 POP SWAP2 SWAP1 POP JUMP JUMPDEST PUSH0 PUSH1 0x20 DUP3 ADD SWAP1 POP DUP2 DUP2 SUB PUSH0 DUP4 ADD MSTORE PUSH2 0x13EC DUP2 PUSH2 0x13B3 JUMP JUMPDEST SWAP1 POP SWAP2 SWAP1 POP JUMP JUMPDEST PUSH32 0x506C617965722032206469646E277420706C6179000000000000000000000000 PUSH0 DUP3 ADD MSTORE POP JUMP JUMPDEST PUSH0 PUSH2 0x1427 PUSH1 0x14 DUP4 PUSH2 0x1313 JUMP JUMPDEST SWAP2 POP PUSH2 0x1432 DUP3 PUSH2 0x13F3 JUMP JUMPDEST PUSH1 0x20 DUP3 ADD SWAP1 POP SWAP2 SWAP1 POP JUMP JUMPDEST PUSH0 PUSH1 0x20 DUP3 ADD SWAP1 POP DUP2 DUP2 SUB PUSH0 DUP4 ADD MSTORE PUSH2 0x1454 DUP2 PUSH2 0x141B JUMP JUMPDEST SWAP1 POP SWAP2 SWAP1 POP JUMP JUMPDEST PUSH32 0x4472617700000000000000000000000000000000000000000000000000000000 PUSH0 DUP3 ADD MSTORE POP JUMP JUMPDEST PUSH0 PUSH2 0x148F PUSH1 0x4 DUP4 PUSH2 0x1313 JUMP JUMPDEST SWAP2 POP PUSH2 0x149A DUP3 PUSH2 0x145B JUMP JUMPDEST PUSH1 0x20 DUP3 ADD SWAP1 POP SWAP2 SWAP1 POP JUMP JUMPDEST PUSH0 PUSH1 0x20 DUP3 ADD SWAP1 POP DUP2 DUP2 SUB PUSH0 DUP4 ADD MSTORE PUSH2 0x14BC DUP2 PUSH2 0x1483 JUMP JUMPDEST SWAP1 POP SWAP2 SWAP1 POP JUMP JUMPDEST PUSH32 0x4E487B7100000000000000000000000000000000000000000000000000000000 PUSH0 MSTORE PUSH1 0x12 PUSH1 0x4 MSTORE PUSH1 0x24 PUSH0 REVERT JUMPDEST PUSH0 PUSH2 0x14FA DUP3 PUSH2 0x10C4 JUMP JUMPDEST SWAP2 POP PUSH2 0x1505 DUP4 PUSH2 0x10C4 JUMP JUMPDEST SWAP3 POP DUP3 PUSH2 0x1515 JUMPI PUSH2 0x1514 PUSH2 0x14C3 JUMP JUMPDEST JUMPDEST DUP3 DUP3 DIV SWAP1 POP SWAP3 SWAP2 POP POP JUMP JUMPDEST PUSH32 0x506C6179657220312077696E7300000000000000000000000000000000000000 PUSH0 DUP3 ADD MSTORE POP JUMP JUMPDEST PUSH0 PUSH2 0x1554 PUSH1 0xD DUP4 PUSH2 0x1313 JUMP JUMPDEST SWAP2 POP PUSH2 0x155F DUP3 PUSH2 0x1520 JUMP JUMPDEST PUSH1 0x20 DUP3 ADD SWAP1 POP SWAP2 SWAP1 POP JUMP JUMPDEST PUSH0 PUSH1 0x20 DUP3 ADD SWAP1 POP DUP2 DUP2 SUB PUSH0 DUP4 ADD MSTORE PUSH2 0x1581 DUP2 PUSH2 0x1548 JUMP JUMPDEST SWAP1 POP SWAP2 SWAP1 POP JUMP JUMPDEST PUSH32 0x506C6179657220322077696E7300000000000000000000000000000000000000 PUSH0 DUP3 ADD MSTORE POP JUMP JUMPDEST PUSH0 PUSH2 0x15BC PUSH1 0xD DUP4 PUSH2 0x1313 JUMP JUMPDEST SWAP2 POP PUSH2 0x15C7 DUP3 PUSH2 0x1588 JUMP JUMPDEST PUSH1 0x20 DUP3 ADD SWAP1 POP SWAP2 SWAP1 POP JUMP JUMPDEST PUSH0 PUSH1 0x20 DUP3 ADD SWAP1 POP DUP2 DUP2 SUB PUSH0 DUP4 ADD MSTORE PUSH2 0x15E9 DUP2 PUSH2 0x15B0 JUMP JUMPDEST SWAP1 POP SWAP2 SWAP1 POP JUMP JUMPDEST PUSH32 0x416C72656164792052657665616C656421000000000000000000000000000000 PUSH0 DUP3 ADD MSTORE POP JUMP JUMPDEST PUSH0 PUSH2 0x1624 PUSH1 0x11 DUP4 PUSH2 0x1313 JUMP JUMPDEST SWAP2 POP PUSH2 0x162F DUP3 PUSH2 0x15F0 JUMP JUMPDEST PUSH1 0x20 DUP3 ADD SWAP1 POP SWAP2 SWAP1 POP JUMP JUMPDEST PUSH0 PUSH1 0x20 DUP3 ADD SWAP1 POP DUP2 DUP2 SUB PUSH0 DUP4 ADD MSTORE PUSH2 0x1651 DUP2 PUSH2 0x1618 JUMP JUMPDEST SWAP1 POP SWAP2 SWAP1 POP JUMP JUMPDEST PUSH32 0x496E76616C69642076616C756521000000000000000000000000000000000000 PUSH0 DUP3 ADD MSTORE POP JUMP JUMPDEST PUSH0 PUSH2 0x168C PUSH1 0xE DUP4 PUSH2 0x1313 JUMP JUMPDEST SWAP2 POP PUSH2 0x1697 DUP3 PUSH2 0x1658 JUMP JUMPDEST PUSH1 0x20 DUP3 ADD SWAP1 POP SWAP2 SWAP1 POP JUMP JUMPDEST PUSH0 PUSH1 0x20 DUP3 ADD SWAP1 POP DUP2 DUP2 SUB PUSH0 DUP4 ADD MSTORE PUSH2 0x16B9 DUP2 PUSH2 0x1680 JUMP JUMPDEST SWAP1 POP SWAP2 SWAP1 POP JUMP JUMPDEST PUSH0 DUP2 SWAP1 POP SWAP2 SWAP1 POP JUMP JUMPDEST PUSH2 0x16DA PUSH2 0x16D5 DUP3 PUSH2 0x10C4 JUMP JUMPDEST PUSH2 0x16C0 JUMP JUMPDEST DUP3 MSTORE POP POP JUMP JUMPDEST PUSH0 DUP2 SWAP1 POP SWAP2 SWAP1 POP JUMP JUMPDEST PUSH2 0x16FA PUSH2 0x16F5 DUP3 PUSH2 0x117B JUMP JUMPDEST PUSH2 0x16E0 JUMP JUMPDEST DUP3 MSTORE POP POP JUMP JUMPDEST PUSH0 PUSH2 0x170B DUP3 DUP6 PUSH2 0x16C9 JUMP JUMPDEST PUSH1 0x20 DUP3 ADD SWAP2 POP PUSH2 0x171B DUP3 DUP5 PUSH2 0x16E9 JUMP JUMPDEST PUSH1 0x20 DUP3 ADD SWAP2 POP DUP2 SWAP1 POP SWAP4 SWAP3 POP POP POP JUMP JUMPDEST PUSH32 0x446F65736E2774206D61636820626C696E64656420506C617921000000000000 PUSH0 DUP3 ADD MSTORE POP JUMP JUMPDEST PUSH0 PUSH2 0x175F PUSH1 0x1A DUP4 PUSH2 0x1313 JUMP JUMPDEST SWAP2 POP PUSH2 0x176A DUP3 PUSH2 0x172B JUMP JUMPDEST PUSH1 0x20 DUP3 ADD SWAP1 POP SWAP2 SWAP1 POP JUMP JUMPDEST PUSH0 PUSH1 0x20 DUP3 ADD SWAP1 POP DUP2 DUP2 SUB PUSH0 DUP4 ADD MSTORE PUSH2 0x178C DUP2 PUSH2 0x1753 JUMP JUMPDEST SWAP1 POP SWAP2 SWAP1 POP JUMP INVALID LOG2 PUSH5 0x6970667358 0x22 SLT KECCAK256 0xC3 BALANCE 0xB6 0xCC 0x4C CALLDATASIZE 0xF 0xB7 0xB1 0x2E 0xAF AND BASEFEE SWAP5 0xF9 CODECOPY TIMESTAMP ADDRESS SWAP15 0xFB STATICCALL SUB 0xB2 0x49 0xE0 PUSH20 0x1966F1A0E18164736F6C63430008170033000000 "
				},
				"gasEstimates": {
					"creation": {
						"codeDepositCost": "1217800",
						"executionCost": "infinite",
						"totalCost": "infinite"
					},
					"external": {
						"beneficiary()": "2594",
						"ended()": "2489",
						"gameEnd()": "infinite",
						"move1()": "2492",
						"move2()": "2447",
						"play(bytes32)": "49065",
						"player1()": "2574",
						"player2()": "2531",
						"playingEnd()": "2513",
						"plays(address)": "5093",
						"reveal(uint256,bytes32)": "infinite",
						"revealEnd()": "2470",
						"reward()": "2470"
					},
					"internal": {
						"whoWin()": "12808"
					}
				},
				"methodIdentifiers": {
					"beneficiary()": "38af3eed",
					"ended()": "12fa6feb",
					"gameEnd()": "0b8eebde",
					"move1()": "33d85d44",
					"move2()": "c78eb546",
					"play(bytes32)": "c7a1865b",
					"player1()": "d30895e4",
					"player2()": "59a5f12d",
					"playingEnd()": "edd66370",
					"plays(address)": "ac71131a",
					"reveal(uint256,bytes32)": "4036778f",
					"revealEnd()": "a6e66477",
					"reward()": "228cb733"
				}
			},
			"storageLayout": {
				"storage": [
					{
						"astId": 8,
						"contract": "Q 2.sol:RockPaperScissor",
						"label": "beneficiary",
						"offset": 0,
						"slot": "0",
						"type": "t_address_payable"
					},
					{
						"astId": 10,
						"contract": "Q 2.sol:RockPaperScissor",
						"label": "player1",
						"offset": 0,
						"slot": "1",
						"type": "t_address_payable"
					},
					{
						"astId": 12,
						"contract": "Q 2.sol:RockPaperScissor",
						"label": "player2",
						"offset": 0,
						"slot": "2",
						"type": "t_address_payable"
					},
					{
						"astId": 14,
						"contract": "Q 2.sol:RockPaperScissor",
						"label": "playingEnd",
						"offset": 0,
						"slot": "3",
						"type": "t_uint256"
					},
					{
						"astId": 16,
						"contract": "Q 2.sol:RockPaperScissor",
						"label": "revealEnd",
						"offset": 0,
						"slot": "4",
						"type": "t_uint256"
					},
					{
						"astId": 18,
						"contract": "Q 2.sol:RockPaperScissor",
						"label": "reward",
						"offset": 0,
						"slot": "5",
						"type": "t_uint256"
					},
					{
						"astId": 20,
						"contract": "Q 2.sol:RockPaperScissor",
						"label": "move1",
						"offset": 0,
						"slot": "6",
						"type": "t_uint256"
					},
					{
						"astId": 22,
						"contract": "Q 2.sol:RockPaperScissor",
						"label": "move2",
						"offset": 0,
						"slot": "7",
						"type": "t_uint256"
					},
					{
						"astId": 24,
						"contract": "Q 2.sol:RockPaperScissor",
						"label": "ended",
						"offset": 0,
						"slot": "8",
						"type": "t_bool"
					},
					{
						"astId": 29,
						"contract": "Q 2.sol:RockPaperScissor",
						"label": "plays",
						"offset": 0,
						"slot": "9",
						"type": "t_mapping(t_address,t_struct(Play)6_storage)"
					}
				],
				"types": {
					"t_address": {
						"encoding": "inplace",
						"label": "address",
						"numberOfBytes": "20"
					},
					"t_address_payable": {
						"encoding": "inplace",
						"label": "address payable",
						"numberOfBytes": "20"
					},
					"t_bool": {
						"encoding": "inplace",
						"label": "bool",
						"numberOfBytes": "1"
					},
					"t_bytes32": {
						"encoding": "inplace",
						"label": "bytes32",
						"numberOfBytes": "32"
					},
					"t_mapping(t_address,t_struct(Play)6_storage)": {
						"encoding": "mapping",
						"key": "t_address",
						"label": "mapping(address => struct RockPaperScissor.Play)",
						"numberOfBytes": "32",
						"value": "t_struct(Play)6_storage"
					},
					"t_struct(Play)6_storage": {
						"encoding": "inplace",
						"label": "struct RockPaperScissor.Play",
						"members": [
							{
								"astId": 3,
								"contract": "Q 2.sol:RockPaperScissor",
								"label": "blindedMove",
								"offset": 0,
								"slot": "0",
								"type": "t_bytes32"
							},
							{
								"astId": 5,
								"contract": "Q 2.sol:RockPaperScissor",
								"label": "deposit",
								"offset": 0,
								"slot": "1",
								"type": "t_uint256"
							}
						],
						"numberOfBytes": "64"
					},
					"t_uint256": {
						"encoding": "inplace",
						"label": "uint256",
						"numberOfBytes": "32"
					}
				}
			},
			"userdoc": {
				"kind": "user",
				"methods": {},
				"version": 1
			}
		}
	}
}